{
	"data": {
		"bytecode": {
			"linkReferences": {},
			"object": "608060405234801561001057600080fd5b5061159d806100206000396000f3fe608060405234801561001057600080fd5b506004361061002b5760003560e01c80630f9c5d4914610030575b600080fd5b61004a6004803603810190610045919061133f565b610060565b604051610057919061139c565b60405180910390f35b600080600367ffffffffffffffff81111561007e5761007d61101d565b5b6040519080825280602002602001820160405280156100ac5781602001602082028036833780820191505090505b50905060005b6003811015610105578381600381106100ce576100cd6113b7565b5b60200201518282815181106100e6576100e56113b7565b5b60200260200101818152505080806100fd90611415565b9150506100b2565b506000610112828661012d565b03610121576001915050610127565b60009150505b92915050565b6000807f30644e72e131a029b85045b68181585d2833e84879b9709143e1f593f00000019050600061015d6102c4565b905080608001515160018651610173919061145d565b1461017d57600080fd5b60006040518060400160405280600081526020016000815250905060005b865181101561023657838782815181106101b8576101b76113b7565b5b6020026020010151106101ca57600080fd5b6102218261021c85608001516001856101e3919061145d565b815181106101f4576101f36113b7565b5b60200260200101518a858151811061020f5761020e6113b7565b5b60200260200101516107b7565b610859565b9150808061022e90611415565b91505061019b565b50610260818360800151600081518110610253576102526113b7565b5b6020026020010151610859565b90506102a68560000151866020015161027884610921565b856040015161028a8a60400151610921565b876060015161029c8960000151610921565b89602001516109c6565b6102b657600193505050506102be565b600093505050505b92915050565b6102cc610ee9565b60405180604001604052807f0f4b32f1bd6458cf46b284dc93245f2ae17e458029758c6e92a5000b906bdcd281526020017f1ec187bad29b215c9dc358d4f2b82a176f0d9be76cba2e2c882fa17a9df8a3fe8152508160000181905250604051806040016040528060405180604001604052807f1e1f7dbdbf4630b9498e085f64525d6fecee3cd4a37f8c82a92a18202d5c193181526020017f2fef1b63eac92d9c3515555ee86abfdf7d87969dca3499e64abbf758f9372e7d815250815260200160405180604001604052807f27f19ddb42f0ca17004bd538732a72192c00962a583fc2d58cb6aa917b85fdd881526020017f214d4bb763e9d8caa31d6213123b14a4c76bb5c88a4e127b453c240fb86d2cf08152508152508160200181905250604051806040016040528060405180604001604052807e22040f27a5ace1ac3776910f7d20260f82cff51c6cf11b4b1f3133ab1273d181526020017f22c206afab437ae81ae6fada42bfea522f2f3d5cdbce622e1875b4706fb7e34d815250815260200160405180604001604052807f210694f9519746dd78135bb19c308ef8c7d054659d5906cfb211a0fef917b34181526020017f0bb73031d0074c626c2d2f0e17ca01893413e196d294c6c43276ceef5096d7e38152508152508160400181905250604051806040016040528060405180604001604052807f200d6cbcc089117801da9a500447c17ef1bc430a5a81766ab0816fa050756de281526020017f0bb17eff836c51714fb2cb777d23b7769773d7e18aa353072f4a2c98fba2ea46815250815260200160405180604001604052807f1b4b971d983987040cec02c5c22b761a4c2844058ee7afc0cfb0a44b857d6f0081526020017f2a7114da21e2424a573332d04ccbf8ace86e134026243d75aef5dedacb73b5ac8152508152508160600181905250600467ffffffffffffffff8111156105925761059161101d565b5b6040519080825280602002602001820160405280156105cb57816020015b6105b8610f30565b8152602001906001900390816105b05790505b50816080018190525060405180604001604052807f131abffde572e05e838b33ca81b605fe1cbe9a300ed2e757b2812174e09c6ac981526020017f2478c6c267f9f4f8f173c958ae6614428c59ab0668a4a0fb5f78b83076c291ce8152508160800151600081518110610641576106406113b7565b5b602002602001018190525060405180604001604052807f175cfc5d831aa3b5a34eae61ed7af6f1ab933cbcf68c4996e67e01c0a0e1b5be81526020017f24b32c892e1c1883c97b6001f6db1c8ac8375444d066aecf4691be3835218f7081525081608001516001815181106106b9576106b86113b7565b5b602002602001018190525060405180604001604052807f1975aee5672d2f05d8080d76dd24c7a8397505c369d0eb864ffa1d26f901bf9b81526020017f046bb0d9c23b1ecce914a6fb0e064bc34e4aa5cea6d2684e8d2b1a85e6b556f58152508160800151600281518110610731576107306113b7565b5b602002602001018190525060405180604001604052807f1387ba48dc4a432ac3d308da034c6f3dc7879acfa502dbd3d90ac5ef4f73cd6681526020017f2c07f572bbc963fc196203b9683ceb6d0a11c21480b17368bb28c66b6b9c668f81525081608001516003815181106107a9576107a86113b7565b5b602002602001018190525090565b6107bf610f30565b6107c7610f4a565b8360000151816000600381106107e0576107df6113b7565b5b602002018181525050836020015181600160038110610802576108016113b7565b5b60200201818152505082816002600381106108205761081f6113b7565b5b602002018181525050600060608360808460076107d05a03fa9050806000810361084657fe5b508061085157600080fd5b505092915050565b610861610f30565b610869610f6c565b836000015181600060048110610882576108816113b7565b5b6020020181815250508360200151816001600481106108a4576108a36113b7565b5b6020020181815250508260000151816002600481106108c6576108c56113b7565b5b6020020181815250508260200151816003600481106108e8576108e76113b7565b5b602002018181525050600060608360c08460066107d05a03fa9050806000810361090e57fe5b508061091957600080fd5b505092915050565b610929610f30565b60007f30644e72e131a029b85045b68181585d97816a916871ca8d3c208c16d87cfd47905060008360000151148015610966575060008360200151145b1561098a5760405180604001604052806000815260200160008152509150506109c1565b6040518060400160405280846000015181526020018285602001516109af91906114c0565b836109ba91906114f1565b8152509150505b919050565b600080600467ffffffffffffffff8111156109e4576109e361101d565b5b604051908082528060200260200182016040528015610a1d57816020015b610a0a610f30565b815260200190600190039081610a025790505b5090506000600467ffffffffffffffff811115610a3d57610a3c61101d565b5b604051908082528060200260200182016040528015610a7657816020015b610a63610f8e565b815260200190600190039081610a5b5790505b5090508a82600081518110610a8e57610a8d6113b7565b5b60200260200101819052508882600181518110610aae57610aad6113b7565b5b60200260200101819052508682600281518110610ace57610acd6113b7565b5b60200260200101819052508482600381518110610aee57610aed6113b7565b5b60200260200101819052508981600081518110610b0e57610b0d6113b7565b5b60200260200101819052508781600181518110610b2e57610b2d6113b7565b5b60200260200101819052508581600281518110610b4e57610b4d6113b7565b5b60200260200101819052508381600381518110610b6e57610b6d6113b7565b5b6020026020010181905250610b838282610b93565b9250505098975050505050505050565b60008151835114610ba357600080fd5b6000835190506000600682610bb89190611525565b905060008167ffffffffffffffff811115610bd657610bd561101d565b5b604051908082528060200260200182016040528015610c045781602001602082028036833780820191505090505b50905060005b83811015610e8957868181518110610c2557610c246113b7565b5b602002602001015160000151826000600684610c419190611525565b610c4b919061145d565b81518110610c5c57610c5b6113b7565b5b602002602001018181525050868181518110610c7b57610c7a6113b7565b5b602002602001015160200151826001600684610c979190611525565b610ca1919061145d565b81518110610cb257610cb16113b7565b5b602002602001018181525050858181518110610cd157610cd06113b7565b5b602002602001015160000151600160028110610cf057610cef6113b7565b5b6020020151826002600684610d059190611525565b610d0f919061145d565b81518110610d2057610d1f6113b7565b5b602002602001018181525050858181518110610d3f57610d3e6113b7565b5b602002602001015160000151600060028110610d5e57610d5d6113b7565b5b6020020151826003600684610d739190611525565b610d7d919061145d565b81518110610d8e57610d8d6113b7565b5b602002602001018181525050858181518110610dad57610dac6113b7565b5b602002602001015160200151600160028110610dcc57610dcb6113b7565b5b6020020151826004600684610de19190611525565b610deb919061145d565b81518110610dfc57610dfb6113b7565b5b602002602001018181525050858181518110610e1b57610e1a6113b7565b5b602002602001015160200151600060028110610e3a57610e396113b7565b5b6020020151826005600684610e4f9190611525565b610e59919061145d565b81518110610e6a57610e696113b7565b5b6020026020010181815250508080610e8190611415565b915050610c0a565b50610e92610fb4565b6000602082602086026020860160086107d05a03fa90508060008103610eb457fe5b5080610ebf57600080fd5b600082600060018110610ed557610ed46113b7565b5b602002015114159550505050505092915050565b6040518060a00160405280610efc610f30565b8152602001610f09610f8e565b8152602001610f16610f8e565b8152602001610f23610f8e565b8152602001606081525090565b604051806040016040528060008152602001600081525090565b6040518060600160405280600390602082028036833780820191505090505090565b6040518060800160405280600490602082028036833780820191505090505090565b6040518060400160405280610fa1610fd6565b8152602001610fae610fd6565b81525090565b6040518060200160405280600190602082028036833780820191505090505090565b6040518060400160405280600290602082028036833780820191505090505090565b6000604051905090565b600080fd5b600080fd5b6000601f19601f8301169050919050565b7f4e487b7100000000000000000000000000000000000000000000000000000000600052604160045260246000fd5b6110558261100c565b810181811067ffffffffffffffff821117156110745761107361101d565b5b80604052505050565b6000611087610ff8565b9050611093828261104c565b919050565b6000819050919050565b6110ab81611098565b81146110b657600080fd5b50565b6000813590506110c8816110a2565b92915050565b6000604082840312156110e4576110e3611007565b5b6110ee604061107d565b905060006110fe848285016110b9565b6000830152506020611112848285016110b9565b60208301525092915050565b600080fd5b600067ffffffffffffffff82111561113e5761113d61101d565b5b602082029050919050565b600080fd5b600061116161115c84611123565b61107d565b9050806020840283018581111561117b5761117a611149565b5b835b818110156111a4578061119088826110b9565b84526020840193505060208101905061117d565b5050509392505050565b600082601f8301126111c3576111c261111e565b5b60026111d084828561114e565b91505092915050565b6000608082840312156111ef576111ee611007565b5b6111f9604061107d565b90506000611209848285016111ae565b600083015250604061121d848285016111ae565b60208301525092915050565b600061010082840312156112405761123f611007565b5b61124a606061107d565b9050600061125a848285016110ce565b600083015250604061126e848285016111d9565b60208301525060c0611282848285016110ce565b60408301525092915050565b600067ffffffffffffffff8211156112a9576112a861101d565b5b602082029050919050565b60006112c76112c28461128e565b61107d565b905080602084028301858111156112e1576112e0611149565b5b835b8181101561130a57806112f688826110b9565b8452602084019350506020810190506112e3565b5050509392505050565b600082601f8301126113295761132861111e565b5b60036113368482856112b4565b91505092915050565b600080610160838503121561135757611356611002565b5b600061136585828601611229565b92505061010061137785828601611314565b9150509250929050565b60008115159050919050565b61139681611381565b82525050565b60006020820190506113b1600083018461138d565b92915050565b7f4e487b7100000000000000000000000000000000000000000000000000000000600052603260045260246000fd5b7f4e487b7100000000000000000000000000000000000000000000000000000000600052601160045260246000fd5b600061142082611098565b91507fffffffffffffffffffffffffffffffffffffffffffffffffffffffffffffffff8203611452576114516113e6565b5b600182019050919050565b600061146882611098565b915061147383611098565b925082820190508082111561148b5761148a6113e6565b5b92915050565b7f4e487b7100000000000000000000000000000000000000000000000000000000600052601260045260246000fd5b60006114cb82611098565b91506114d683611098565b9250826114e6576114e5611491565b5b828206905092915050565b60006114fc82611098565b915061150783611098565b925082820390508181111561151f5761151e6113e6565b5b92915050565b600061153082611098565b915061153b83611098565b925082820261154981611098565b915082820484148315176115605761155f6113e6565b5b509291505056fea26469706673582212207a1f2e7f07c5b806fa653590b3ab27d3312b1f566a066e829b5f54e7b14a398b64736f6c63430008120033",
			"opcodes": "PUSH1 0x80 PUSH1 0x40 MSTORE CALLVALUE DUP1 ISZERO PUSH2 0x10 JUMPI PUSH1 0x0 DUP1 REVERT JUMPDEST POP PUSH2 0x159D DUP1 PUSH2 0x20 PUSH1 0x0 CODECOPY PUSH1 0x0 RETURN INVALID PUSH1 0x80 PUSH1 0x40 MSTORE CALLVALUE DUP1 ISZERO PUSH2 0x10 JUMPI PUSH1 0x0 DUP1 REVERT JUMPDEST POP PUSH1 0x4 CALLDATASIZE LT PUSH2 0x2B JUMPI PUSH1 0x0 CALLDATALOAD PUSH1 0xE0 SHR DUP1 PUSH4 0xF9C5D49 EQ PUSH2 0x30 JUMPI JUMPDEST PUSH1 0x0 DUP1 REVERT JUMPDEST PUSH2 0x4A PUSH1 0x4 DUP1 CALLDATASIZE SUB DUP2 ADD SWAP1 PUSH2 0x45 SWAP2 SWAP1 PUSH2 0x133F JUMP JUMPDEST PUSH2 0x60 JUMP JUMPDEST PUSH1 0x40 MLOAD PUSH2 0x57 SWAP2 SWAP1 PUSH2 0x139C JUMP JUMPDEST PUSH1 0x40 MLOAD DUP1 SWAP2 SUB SWAP1 RETURN JUMPDEST PUSH1 0x0 DUP1 PUSH1 0x3 PUSH8 0xFFFFFFFFFFFFFFFF DUP2 GT ISZERO PUSH2 0x7E JUMPI PUSH2 0x7D PUSH2 0x101D JUMP JUMPDEST JUMPDEST PUSH1 0x40 MLOAD SWAP1 DUP1 DUP3 MSTORE DUP1 PUSH1 0x20 MUL PUSH1 0x20 ADD DUP3 ADD PUSH1 0x40 MSTORE DUP1 ISZERO PUSH2 0xAC JUMPI DUP2 PUSH1 0x20 ADD PUSH1 0x20 DUP3 MUL DUP1 CALLDATASIZE DUP4 CALLDATACOPY DUP1 DUP3 ADD SWAP2 POP POP SWAP1 POP JUMPDEST POP SWAP1 POP PUSH1 0x0 JUMPDEST PUSH1 0x3 DUP2 LT ISZERO PUSH2 0x105 JUMPI DUP4 DUP2 PUSH1 0x3 DUP2 LT PUSH2 0xCE JUMPI PUSH2 0xCD PUSH2 0x13B7 JUMP JUMPDEST JUMPDEST PUSH1 0x20 MUL ADD MLOAD DUP3 DUP3 DUP2 MLOAD DUP2 LT PUSH2 0xE6 JUMPI PUSH2 0xE5 PUSH2 0x13B7 JUMP JUMPDEST JUMPDEST PUSH1 0x20 MUL PUSH1 0x20 ADD ADD DUP2 DUP2 MSTORE POP POP DUP1 DUP1 PUSH2 0xFD SWAP1 PUSH2 0x1415 JUMP JUMPDEST SWAP2 POP POP PUSH2 0xB2 JUMP JUMPDEST POP PUSH1 0x0 PUSH2 0x112 DUP3 DUP7 PUSH2 0x12D JUMP JUMPDEST SUB PUSH2 0x121 JUMPI PUSH1 0x1 SWAP2 POP POP PUSH2 0x127 JUMP JUMPDEST PUSH1 0x0 SWAP2 POP POP JUMPDEST SWAP3 SWAP2 POP POP JUMP JUMPDEST PUSH1 0x0 DUP1 PUSH32 0x30644E72E131A029B85045B68181585D2833E84879B9709143E1F593F0000001 SWAP1 POP PUSH1 0x0 PUSH2 0x15D PUSH2 0x2C4 JUMP JUMPDEST SWAP1 POP DUP1 PUSH1 0x80 ADD MLOAD MLOAD PUSH1 0x1 DUP7 MLOAD PUSH2 0x173 SWAP2 SWAP1 PUSH2 0x145D JUMP JUMPDEST EQ PUSH2 0x17D JUMPI PUSH1 0x0 DUP1 REVERT JUMPDEST PUSH1 0x0 PUSH1 0x40 MLOAD DUP1 PUSH1 0x40 ADD PUSH1 0x40 MSTORE DUP1 PUSH1 0x0 DUP2 MSTORE PUSH1 0x20 ADD PUSH1 0x0 DUP2 MSTORE POP SWAP1 POP PUSH1 0x0 JUMPDEST DUP7 MLOAD DUP2 LT ISZERO PUSH2 0x236 JUMPI DUP4 DUP8 DUP3 DUP2 MLOAD DUP2 LT PUSH2 0x1B8 JUMPI PUSH2 0x1B7 PUSH2 0x13B7 JUMP JUMPDEST JUMPDEST PUSH1 0x20 MUL PUSH1 0x20 ADD ADD MLOAD LT PUSH2 0x1CA JUMPI PUSH1 0x0 DUP1 REVERT JUMPDEST PUSH2 0x221 DUP3 PUSH2 0x21C DUP6 PUSH1 0x80 ADD MLOAD PUSH1 0x1 DUP6 PUSH2 0x1E3 SWAP2 SWAP1 PUSH2 0x145D JUMP JUMPDEST DUP2 MLOAD DUP2 LT PUSH2 0x1F4 JUMPI PUSH2 0x1F3 PUSH2 0x13B7 JUMP JUMPDEST JUMPDEST PUSH1 0x20 MUL PUSH1 0x20 ADD ADD MLOAD DUP11 DUP6 DUP2 MLOAD DUP2 LT PUSH2 0x20F JUMPI PUSH2 0x20E PUSH2 0x13B7 JUMP JUMPDEST JUMPDEST PUSH1 0x20 MUL PUSH1 0x20 ADD ADD MLOAD PUSH2 0x7B7 JUMP JUMPDEST PUSH2 0x859 JUMP JUMPDEST SWAP2 POP DUP1 DUP1 PUSH2 0x22E SWAP1 PUSH2 0x1415 JUMP JUMPDEST SWAP2 POP POP PUSH2 0x19B JUMP JUMPDEST POP PUSH2 0x260 DUP2 DUP4 PUSH1 0x80 ADD MLOAD PUSH1 0x0 DUP2 MLOAD DUP2 LT PUSH2 0x253 JUMPI PUSH2 0x252 PUSH2 0x13B7 JUMP JUMPDEST JUMPDEST PUSH1 0x20 MUL PUSH1 0x20 ADD ADD MLOAD PUSH2 0x859 JUMP JUMPDEST SWAP1 POP PUSH2 0x2A6 DUP6 PUSH1 0x0 ADD MLOAD DUP7 PUSH1 0x20 ADD MLOAD PUSH2 0x278 DUP5 PUSH2 0x921 JUMP JUMPDEST DUP6 PUSH1 0x40 ADD MLOAD PUSH2 0x28A DUP11 PUSH1 0x40 ADD MLOAD PUSH2 0x921 JUMP JUMPDEST DUP8 PUSH1 0x60 ADD MLOAD PUSH2 0x29C DUP10 PUSH1 0x0 ADD MLOAD PUSH2 0x921 JUMP JUMPDEST DUP10 PUSH1 0x20 ADD MLOAD PUSH2 0x9C6 JUMP JUMPDEST PUSH2 0x2B6 JUMPI PUSH1 0x1 SWAP4 POP POP POP POP PUSH2 0x2BE JUMP JUMPDEST PUSH1 0x0 SWAP4 POP POP POP POP JUMPDEST SWAP3 SWAP2 POP POP JUMP JUMPDEST PUSH2 0x2CC PUSH2 0xEE9 JUMP JUMPDEST PUSH1 0x40 MLOAD DUP1 PUSH1 0x40 ADD PUSH1 0x40 MSTORE DUP1 PUSH32 0xF4B32F1BD6458CF46B284DC93245F2AE17E458029758C6E92A5000B906BDCD2 DUP2 MSTORE PUSH1 0x20 ADD PUSH32 0x1EC187BAD29B215C9DC358D4F2B82A176F0D9BE76CBA2E2C882FA17A9DF8A3FE DUP2 MSTORE POP DUP2 PUSH1 0x0 ADD DUP2 SWAP1 MSTORE POP PUSH1 0x40 MLOAD DUP1 PUSH1 0x40 ADD PUSH1 0x40 MSTORE DUP1 PUSH1 0x40 MLOAD DUP1 PUSH1 0x40 ADD PUSH1 0x40 MSTORE DUP1 PUSH32 0x1E1F7DBDBF4630B9498E085F64525D6FECEE3CD4A37F8C82A92A18202D5C1931 DUP2 MSTORE PUSH1 0x20 ADD PUSH32 0x2FEF1B63EAC92D9C3515555EE86ABFDF7D87969DCA3499E64ABBF758F9372E7D DUP2 MSTORE POP DUP2 MSTORE PUSH1 0x20 ADD PUSH1 0x40 MLOAD DUP1 PUSH1 0x40 ADD PUSH1 0x40 MSTORE DUP1 PUSH32 0x27F19DDB42F0CA17004BD538732A72192C00962A583FC2D58CB6AA917B85FDD8 DUP2 MSTORE PUSH1 0x20 ADD PUSH32 0x214D4BB763E9D8CAA31D6213123B14A4C76BB5C88A4E127B453C240FB86D2CF0 DUP2 MSTORE POP DUP2 MSTORE POP DUP2 PUSH1 0x20 ADD DUP2 SWAP1 MSTORE POP PUSH1 0x40 MLOAD DUP1 PUSH1 0x40 ADD PUSH1 0x40 MSTORE DUP1 PUSH1 0x40 MLOAD DUP1 PUSH1 0x40 ADD PUSH1 0x40 MSTORE DUP1 PUSH31 0x22040F27A5ACE1AC3776910F7D20260F82CFF51C6CF11B4B1F3133AB1273D1 DUP2 MSTORE PUSH1 0x20 ADD PUSH32 0x22C206AFAB437AE81AE6FADA42BFEA522F2F3D5CDBCE622E1875B4706FB7E34D DUP2 MSTORE POP DUP2 MSTORE PUSH1 0x20 ADD PUSH1 0x40 MLOAD DUP1 PUSH1 0x40 ADD PUSH1 0x40 MSTORE DUP1 PUSH32 0x210694F9519746DD78135BB19C308EF8C7D054659D5906CFB211A0FEF917B341 DUP2 MSTORE PUSH1 0x20 ADD PUSH32 0xBB73031D0074C626C2D2F0E17CA01893413E196D294C6C43276CEEF5096D7E3 DUP2 MSTORE POP DUP2 MSTORE POP DUP2 PUSH1 0x40 ADD DUP2 SWAP1 MSTORE POP PUSH1 0x40 MLOAD DUP1 PUSH1 0x40 ADD PUSH1 0x40 MSTORE DUP1 PUSH1 0x40 MLOAD DUP1 PUSH1 0x40 ADD PUSH1 0x40 MSTORE DUP1 PUSH32 0x200D6CBCC089117801DA9A500447C17EF1BC430A5A81766AB0816FA050756DE2 DUP2 MSTORE PUSH1 0x20 ADD PUSH32 0xBB17EFF836C51714FB2CB777D23B7769773D7E18AA353072F4A2C98FBA2EA46 DUP2 MSTORE POP DUP2 MSTORE PUSH1 0x20 ADD PUSH1 0x40 MLOAD DUP1 PUSH1 0x40 ADD PUSH1 0x40 MSTORE DUP1 PUSH32 0x1B4B971D983987040CEC02C5C22B761A4C2844058EE7AFC0CFB0A44B857D6F00 DUP2 MSTORE PUSH1 0x20 ADD PUSH32 0x2A7114DA21E2424A573332D04CCBF8ACE86E134026243D75AEF5DEDACB73B5AC DUP2 MSTORE POP DUP2 MSTORE POP DUP2 PUSH1 0x60 ADD DUP2 SWAP1 MSTORE POP PUSH1 0x4 PUSH8 0xFFFFFFFFFFFFFFFF DUP2 GT ISZERO PUSH2 0x592 JUMPI PUSH2 0x591 PUSH2 0x101D JUMP JUMPDEST JUMPDEST PUSH1 0x40 MLOAD SWAP1 DUP1 DUP3 MSTORE DUP1 PUSH1 0x20 MUL PUSH1 0x20 ADD DUP3 ADD PUSH1 0x40 MSTORE DUP1 ISZERO PUSH2 0x5CB JUMPI DUP2 PUSH1 0x20 ADD JUMPDEST PUSH2 0x5B8 PUSH2 0xF30 JUMP JUMPDEST DUP2 MSTORE PUSH1 0x20 ADD SWAP1 PUSH1 0x1 SWAP1 SUB SWAP1 DUP2 PUSH2 0x5B0 JUMPI SWAP1 POP JUMPDEST POP DUP2 PUSH1 0x80 ADD DUP2 SWAP1 MSTORE POP PUSH1 0x40 MLOAD DUP1 PUSH1 0x40 ADD PUSH1 0x40 MSTORE DUP1 PUSH32 0x131ABFFDE572E05E838B33CA81B605FE1CBE9A300ED2E757B2812174E09C6AC9 DUP2 MSTORE PUSH1 0x20 ADD PUSH32 0x2478C6C267F9F4F8F173C958AE6614428C59AB0668A4A0FB5F78B83076C291CE DUP2 MSTORE POP DUP2 PUSH1 0x80 ADD MLOAD PUSH1 0x0 DUP2 MLOAD DUP2 LT PUSH2 0x641 JUMPI PUSH2 0x640 PUSH2 0x13B7 JUMP JUMPDEST JUMPDEST PUSH1 0x20 MUL PUSH1 0x20 ADD ADD DUP2 SWAP1 MSTORE POP PUSH1 0x40 MLOAD DUP1 PUSH1 0x40 ADD PUSH1 0x40 MSTORE DUP1 PUSH32 0x175CFC5D831AA3B5A34EAE61ED7AF6F1AB933CBCF68C4996E67E01C0A0E1B5BE DUP2 MSTORE PUSH1 0x20 ADD PUSH32 0x24B32C892E1C1883C97B6001F6DB1C8AC8375444D066AECF4691BE3835218F70 DUP2 MSTORE POP DUP2 PUSH1 0x80 ADD MLOAD PUSH1 0x1 DUP2 MLOAD DUP2 LT PUSH2 0x6B9 JUMPI PUSH2 0x6B8 PUSH2 0x13B7 JUMP JUMPDEST JUMPDEST PUSH1 0x20 MUL PUSH1 0x20 ADD ADD DUP2 SWAP1 MSTORE POP PUSH1 0x40 MLOAD DUP1 PUSH1 0x40 ADD PUSH1 0x40 MSTORE DUP1 PUSH32 0x1975AEE5672D2F05D8080D76DD24C7A8397505C369D0EB864FFA1D26F901BF9B DUP2 MSTORE PUSH1 0x20 ADD PUSH32 0x46BB0D9C23B1ECCE914A6FB0E064BC34E4AA5CEA6D2684E8D2B1A85E6B556F5 DUP2 MSTORE POP DUP2 PUSH1 0x80 ADD MLOAD PUSH1 0x2 DUP2 MLOAD DUP2 LT PUSH2 0x731 JUMPI PUSH2 0x730 PUSH2 0x13B7 JUMP JUMPDEST JUMPDEST PUSH1 0x20 MUL PUSH1 0x20 ADD ADD DUP2 SWAP1 MSTORE POP PUSH1 0x40 MLOAD DUP1 PUSH1 0x40 ADD PUSH1 0x40 MSTORE DUP1 PUSH32 0x1387BA48DC4A432AC3D308DA034C6F3DC7879ACFA502DBD3D90AC5EF4F73CD66 DUP2 MSTORE PUSH1 0x20 ADD PUSH32 0x2C07F572BBC963FC196203B9683CEB6D0A11C21480B17368BB28C66B6B9C668F DUP2 MSTORE POP DUP2 PUSH1 0x80 ADD MLOAD PUSH1 0x3 DUP2 MLOAD DUP2 LT PUSH2 0x7A9 JUMPI PUSH2 0x7A8 PUSH2 0x13B7 JUMP JUMPDEST JUMPDEST PUSH1 0x20 MUL PUSH1 0x20 ADD ADD DUP2 SWAP1 MSTORE POP SWAP1 JUMP JUMPDEST PUSH2 0x7BF PUSH2 0xF30 JUMP JUMPDEST PUSH2 0x7C7 PUSH2 0xF4A JUMP JUMPDEST DUP4 PUSH1 0x0 ADD MLOAD DUP2 PUSH1 0x0 PUSH1 0x3 DUP2 LT PUSH2 0x7E0 JUMPI PUSH2 0x7DF PUSH2 0x13B7 JUMP JUMPDEST JUMPDEST PUSH1 0x20 MUL ADD DUP2 DUP2 MSTORE POP POP DUP4 PUSH1 0x20 ADD MLOAD DUP2 PUSH1 0x1 PUSH1 0x3 DUP2 LT PUSH2 0x802 JUMPI PUSH2 0x801 PUSH2 0x13B7 JUMP JUMPDEST JUMPDEST PUSH1 0x20 MUL ADD DUP2 DUP2 MSTORE POP POP DUP3 DUP2 PUSH1 0x2 PUSH1 0x3 DUP2 LT PUSH2 0x820 JUMPI PUSH2 0x81F PUSH2 0x13B7 JUMP JUMPDEST JUMPDEST PUSH1 0x20 MUL ADD DUP2 DUP2 MSTORE POP POP PUSH1 0x0 PUSH1 0x60 DUP4 PUSH1 0x80 DUP5 PUSH1 0x7 PUSH2 0x7D0 GAS SUB STATICCALL SWAP1 POP DUP1 PUSH1 0x0 DUP2 SUB PUSH2 0x846 JUMPI INVALID JUMPDEST POP DUP1 PUSH2 0x851 JUMPI PUSH1 0x0 DUP1 REVERT JUMPDEST POP POP SWAP3 SWAP2 POP POP JUMP JUMPDEST PUSH2 0x861 PUSH2 0xF30 JUMP JUMPDEST PUSH2 0x869 PUSH2 0xF6C JUMP JUMPDEST DUP4 PUSH1 0x0 ADD MLOAD DUP2 PUSH1 0x0 PUSH1 0x4 DUP2 LT PUSH2 0x882 JUMPI PUSH2 0x881 PUSH2 0x13B7 JUMP JUMPDEST JUMPDEST PUSH1 0x20 MUL ADD DUP2 DUP2 MSTORE POP POP DUP4 PUSH1 0x20 ADD MLOAD DUP2 PUSH1 0x1 PUSH1 0x4 DUP2 LT PUSH2 0x8A4 JUMPI PUSH2 0x8A3 PUSH2 0x13B7 JUMP JUMPDEST JUMPDEST PUSH1 0x20 MUL ADD DUP2 DUP2 MSTORE POP POP DUP3 PUSH1 0x0 ADD MLOAD DUP2 PUSH1 0x2 PUSH1 0x4 DUP2 LT PUSH2 0x8C6 JUMPI PUSH2 0x8C5 PUSH2 0x13B7 JUMP JUMPDEST JUMPDEST PUSH1 0x20 MUL ADD DUP2 DUP2 MSTORE POP POP DUP3 PUSH1 0x20 ADD MLOAD DUP2 PUSH1 0x3 PUSH1 0x4 DUP2 LT PUSH2 0x8E8 JUMPI PUSH2 0x8E7 PUSH2 0x13B7 JUMP JUMPDEST JUMPDEST PUSH1 0x20 MUL ADD DUP2 DUP2 MSTORE POP POP PUSH1 0x0 PUSH1 0x60 DUP4 PUSH1 0xC0 DUP5 PUSH1 0x6 PUSH2 0x7D0 GAS SUB STATICCALL SWAP1 POP DUP1 PUSH1 0x0 DUP2 SUB PUSH2 0x90E JUMPI INVALID JUMPDEST POP DUP1 PUSH2 0x919 JUMPI PUSH1 0x0 DUP1 REVERT JUMPDEST POP POP SWAP3 SWAP2 POP POP JUMP JUMPDEST PUSH2 0x929 PUSH2 0xF30 JUMP JUMPDEST PUSH1 0x0 PUSH32 0x30644E72E131A029B85045B68181585D97816A916871CA8D3C208C16D87CFD47 SWAP1 POP PUSH1 0x0 DUP4 PUSH1 0x0 ADD MLOAD EQ DUP1 ISZERO PUSH2 0x966 JUMPI POP PUSH1 0x0 DUP4 PUSH1 0x20 ADD MLOAD EQ JUMPDEST ISZERO PUSH2 0x98A JUMPI PUSH1 0x40 MLOAD DUP1 PUSH1 0x40 ADD PUSH1 0x40 MSTORE DUP1 PUSH1 0x0 DUP2 MSTORE PUSH1 0x20 ADD PUSH1 0x0 DUP2 MSTORE POP SWAP2 POP POP PUSH2 0x9C1 JUMP JUMPDEST PUSH1 0x40 MLOAD DUP1 PUSH1 0x40 ADD PUSH1 0x40 MSTORE DUP1 DUP5 PUSH1 0x0 ADD MLOAD DUP2 MSTORE PUSH1 0x20 ADD DUP3 DUP6 PUSH1 0x20 ADD MLOAD PUSH2 0x9AF SWAP2 SWAP1 PUSH2 0x14C0 JUMP JUMPDEST DUP4 PUSH2 0x9BA SWAP2 SWAP1 PUSH2 0x14F1 JUMP JUMPDEST DUP2 MSTORE POP SWAP2 POP POP JUMPDEST SWAP2 SWAP1 POP JUMP JUMPDEST PUSH1 0x0 DUP1 PUSH1 0x4 PUSH8 0xFFFFFFFFFFFFFFFF DUP2 GT ISZERO PUSH2 0x9E4 JUMPI PUSH2 0x9E3 PUSH2 0x101D JUMP JUMPDEST JUMPDEST PUSH1 0x40 MLOAD SWAP1 DUP1 DUP3 MSTORE DUP1 PUSH1 0x20 MUL PUSH1 0x20 ADD DUP3 ADD PUSH1 0x40 MSTORE DUP1 ISZERO PUSH2 0xA1D JUMPI DUP2 PUSH1 0x20 ADD JUMPDEST PUSH2 0xA0A PUSH2 0xF30 JUMP JUMPDEST DUP2 MSTORE PUSH1 0x20 ADD SWAP1 PUSH1 0x1 SWAP1 SUB SWAP1 DUP2 PUSH2 0xA02 JUMPI SWAP1 POP JUMPDEST POP SWAP1 POP PUSH1 0x0 PUSH1 0x4 PUSH8 0xFFFFFFFFFFFFFFFF DUP2 GT ISZERO PUSH2 0xA3D JUMPI PUSH2 0xA3C PUSH2 0x101D JUMP JUMPDEST JUMPDEST PUSH1 0x40 MLOAD SWAP1 DUP1 DUP3 MSTORE DUP1 PUSH1 0x20 MUL PUSH1 0x20 ADD DUP3 ADD PUSH1 0x40 MSTORE DUP1 ISZERO PUSH2 0xA76 JUMPI DUP2 PUSH1 0x20 ADD JUMPDEST PUSH2 0xA63 PUSH2 0xF8E JUMP JUMPDEST DUP2 MSTORE PUSH1 0x20 ADD SWAP1 PUSH1 0x1 SWAP1 SUB SWAP1 DUP2 PUSH2 0xA5B JUMPI SWAP1 POP JUMPDEST POP SWAP1 POP DUP11 DUP3 PUSH1 0x0 DUP2 MLOAD DUP2 LT PUSH2 0xA8E JUMPI PUSH2 0xA8D PUSH2 0x13B7 JUMP JUMPDEST JUMPDEST PUSH1 0x20 MUL PUSH1 0x20 ADD ADD DUP2 SWAP1 MSTORE POP DUP9 DUP3 PUSH1 0x1 DUP2 MLOAD DUP2 LT PUSH2 0xAAE JUMPI PUSH2 0xAAD PUSH2 0x13B7 JUMP JUMPDEST JUMPDEST PUSH1 0x20 MUL PUSH1 0x20 ADD ADD DUP2 SWAP1 MSTORE POP DUP7 DUP3 PUSH1 0x2 DUP2 MLOAD DUP2 LT PUSH2 0xACE JUMPI PUSH2 0xACD PUSH2 0x13B7 JUMP JUMPDEST JUMPDEST PUSH1 0x20 MUL PUSH1 0x20 ADD ADD DUP2 SWAP1 MSTORE POP DUP5 DUP3 PUSH1 0x3 DUP2 MLOAD DUP2 LT PUSH2 0xAEE JUMPI PUSH2 0xAED PUSH2 0x13B7 JUMP JUMPDEST JUMPDEST PUSH1 0x20 MUL PUSH1 0x20 ADD ADD DUP2 SWAP1 MSTORE POP DUP10 DUP2 PUSH1 0x0 DUP2 MLOAD DUP2 LT PUSH2 0xB0E JUMPI PUSH2 0xB0D PUSH2 0x13B7 JUMP JUMPDEST JUMPDEST PUSH1 0x20 MUL PUSH1 0x20 ADD ADD DUP2 SWAP1 MSTORE POP DUP8 DUP2 PUSH1 0x1 DUP2 MLOAD DUP2 LT PUSH2 0xB2E JUMPI PUSH2 0xB2D PUSH2 0x13B7 JUMP JUMPDEST JUMPDEST PUSH1 0x20 MUL PUSH1 0x20 ADD ADD DUP2 SWAP1 MSTORE POP DUP6 DUP2 PUSH1 0x2 DUP2 MLOAD DUP2 LT PUSH2 0xB4E JUMPI PUSH2 0xB4D PUSH2 0x13B7 JUMP JUMPDEST JUMPDEST PUSH1 0x20 MUL PUSH1 0x20 ADD ADD DUP2 SWAP1 MSTORE POP DUP4 DUP2 PUSH1 0x3 DUP2 MLOAD DUP2 LT PUSH2 0xB6E JUMPI PUSH2 0xB6D PUSH2 0x13B7 JUMP JUMPDEST JUMPDEST PUSH1 0x20 MUL PUSH1 0x20 ADD ADD DUP2 SWAP1 MSTORE POP PUSH2 0xB83 DUP3 DUP3 PUSH2 0xB93 JUMP JUMPDEST SWAP3 POP POP POP SWAP9 SWAP8 POP POP POP POP POP POP POP POP JUMP JUMPDEST PUSH1 0x0 DUP2 MLOAD DUP4 MLOAD EQ PUSH2 0xBA3 JUMPI PUSH1 0x0 DUP1 REVERT JUMPDEST PUSH1 0x0 DUP4 MLOAD SWAP1 POP PUSH1 0x0 PUSH1 0x6 DUP3 PUSH2 0xBB8 SWAP2 SWAP1 PUSH2 0x1525 JUMP JUMPDEST SWAP1 POP PUSH1 0x0 DUP2 PUSH8 0xFFFFFFFFFFFFFFFF DUP2 GT ISZERO PUSH2 0xBD6 JUMPI PUSH2 0xBD5 PUSH2 0x101D JUMP JUMPDEST JUMPDEST PUSH1 0x40 MLOAD SWAP1 DUP1 DUP3 MSTORE DUP1 PUSH1 0x20 MUL PUSH1 0x20 ADD DUP3 ADD PUSH1 0x40 MSTORE DUP1 ISZERO PUSH2 0xC04 JUMPI DUP2 PUSH1 0x20 ADD PUSH1 0x20 DUP3 MUL DUP1 CALLDATASIZE DUP4 CALLDATACOPY DUP1 DUP3 ADD SWAP2 POP POP SWAP1 POP JUMPDEST POP SWAP1 POP PUSH1 0x0 JUMPDEST DUP4 DUP2 LT ISZERO PUSH2 0xE89 JUMPI DUP7 DUP2 DUP2 MLOAD DUP2 LT PUSH2 0xC25 JUMPI PUSH2 0xC24 PUSH2 0x13B7 JUMP JUMPDEST JUMPDEST PUSH1 0x20 MUL PUSH1 0x20 ADD ADD MLOAD PUSH1 0x0 ADD MLOAD DUP3 PUSH1 0x0 PUSH1 0x6 DUP5 PUSH2 0xC41 SWAP2 SWAP1 PUSH2 0x1525 JUMP JUMPDEST PUSH2 0xC4B SWAP2 SWAP1 PUSH2 0x145D JUMP JUMPDEST DUP2 MLOAD DUP2 LT PUSH2 0xC5C JUMPI PUSH2 0xC5B PUSH2 0x13B7 JUMP JUMPDEST JUMPDEST PUSH1 0x20 MUL PUSH1 0x20 ADD ADD DUP2 DUP2 MSTORE POP POP DUP7 DUP2 DUP2 MLOAD DUP2 LT PUSH2 0xC7B JUMPI PUSH2 0xC7A PUSH2 0x13B7 JUMP JUMPDEST JUMPDEST PUSH1 0x20 MUL PUSH1 0x20 ADD ADD MLOAD PUSH1 0x20 ADD MLOAD DUP3 PUSH1 0x1 PUSH1 0x6 DUP5 PUSH2 0xC97 SWAP2 SWAP1 PUSH2 0x1525 JUMP JUMPDEST PUSH2 0xCA1 SWAP2 SWAP1 PUSH2 0x145D JUMP JUMPDEST DUP2 MLOAD DUP2 LT PUSH2 0xCB2 JUMPI PUSH2 0xCB1 PUSH2 0x13B7 JUMP JUMPDEST JUMPDEST PUSH1 0x20 MUL PUSH1 0x20 ADD ADD DUP2 DUP2 MSTORE POP POP DUP6 DUP2 DUP2 MLOAD DUP2 LT PUSH2 0xCD1 JUMPI PUSH2 0xCD0 PUSH2 0x13B7 JUMP JUMPDEST JUMPDEST PUSH1 0x20 MUL PUSH1 0x20 ADD ADD MLOAD PUSH1 0x0 ADD MLOAD PUSH1 0x1 PUSH1 0x2 DUP2 LT PUSH2 0xCF0 JUMPI PUSH2 0xCEF PUSH2 0x13B7 JUMP JUMPDEST JUMPDEST PUSH1 0x20 MUL ADD MLOAD DUP3 PUSH1 0x2 PUSH1 0x6 DUP5 PUSH2 0xD05 SWAP2 SWAP1 PUSH2 0x1525 JUMP JUMPDEST PUSH2 0xD0F SWAP2 SWAP1 PUSH2 0x145D JUMP JUMPDEST DUP2 MLOAD DUP2 LT PUSH2 0xD20 JUMPI PUSH2 0xD1F PUSH2 0x13B7 JUMP JUMPDEST JUMPDEST PUSH1 0x20 MUL PUSH1 0x20 ADD ADD DUP2 DUP2 MSTORE POP POP DUP6 DUP2 DUP2 MLOAD DUP2 LT PUSH2 0xD3F JUMPI PUSH2 0xD3E PUSH2 0x13B7 JUMP JUMPDEST JUMPDEST PUSH1 0x20 MUL PUSH1 0x20 ADD ADD MLOAD PUSH1 0x0 ADD MLOAD PUSH1 0x0 PUSH1 0x2 DUP2 LT PUSH2 0xD5E JUMPI PUSH2 0xD5D PUSH2 0x13B7 JUMP JUMPDEST JUMPDEST PUSH1 0x20 MUL ADD MLOAD DUP3 PUSH1 0x3 PUSH1 0x6 DUP5 PUSH2 0xD73 SWAP2 SWAP1 PUSH2 0x1525 JUMP JUMPDEST PUSH2 0xD7D SWAP2 SWAP1 PUSH2 0x145D JUMP JUMPDEST DUP2 MLOAD DUP2 LT PUSH2 0xD8E JUMPI PUSH2 0xD8D PUSH2 0x13B7 JUMP JUMPDEST JUMPDEST PUSH1 0x20 MUL PUSH1 0x20 ADD ADD DUP2 DUP2 MSTORE POP POP DUP6 DUP2 DUP2 MLOAD DUP2 LT PUSH2 0xDAD JUMPI PUSH2 0xDAC PUSH2 0x13B7 JUMP JUMPDEST JUMPDEST PUSH1 0x20 MUL PUSH1 0x20 ADD ADD MLOAD PUSH1 0x20 ADD MLOAD PUSH1 0x1 PUSH1 0x2 DUP2 LT PUSH2 0xDCC JUMPI PUSH2 0xDCB PUSH2 0x13B7 JUMP JUMPDEST JUMPDEST PUSH1 0x20 MUL ADD MLOAD DUP3 PUSH1 0x4 PUSH1 0x6 DUP5 PUSH2 0xDE1 SWAP2 SWAP1 PUSH2 0x1525 JUMP JUMPDEST PUSH2 0xDEB SWAP2 SWAP1 PUSH2 0x145D JUMP JUMPDEST DUP2 MLOAD DUP2 LT PUSH2 0xDFC JUMPI PUSH2 0xDFB PUSH2 0x13B7 JUMP JUMPDEST JUMPDEST PUSH1 0x20 MUL PUSH1 0x20 ADD ADD DUP2 DUP2 MSTORE POP POP DUP6 DUP2 DUP2 MLOAD DUP2 LT PUSH2 0xE1B JUMPI PUSH2 0xE1A PUSH2 0x13B7 JUMP JUMPDEST JUMPDEST PUSH1 0x20 MUL PUSH1 0x20 ADD ADD MLOAD PUSH1 0x20 ADD MLOAD PUSH1 0x0 PUSH1 0x2 DUP2 LT PUSH2 0xE3A JUMPI PUSH2 0xE39 PUSH2 0x13B7 JUMP JUMPDEST JUMPDEST PUSH1 0x20 MUL ADD MLOAD DUP3 PUSH1 0x5 PUSH1 0x6 DUP5 PUSH2 0xE4F SWAP2 SWAP1 PUSH2 0x1525 JUMP JUMPDEST PUSH2 0xE59 SWAP2 SWAP1 PUSH2 0x145D JUMP JUMPDEST DUP2 MLOAD DUP2 LT PUSH2 0xE6A JUMPI PUSH2 0xE69 PUSH2 0x13B7 JUMP JUMPDEST JUMPDEST PUSH1 0x20 MUL PUSH1 0x20 ADD ADD DUP2 DUP2 MSTORE POP POP DUP1 DUP1 PUSH2 0xE81 SWAP1 PUSH2 0x1415 JUMP JUMPDEST SWAP2 POP POP PUSH2 0xC0A JUMP JUMPDEST POP PUSH2 0xE92 PUSH2 0xFB4 JUMP JUMPDEST PUSH1 0x0 PUSH1 0x20 DUP3 PUSH1 0x20 DUP7 MUL PUSH1 0x20 DUP7 ADD PUSH1 0x8 PUSH2 0x7D0 GAS SUB STATICCALL SWAP1 POP DUP1 PUSH1 0x0 DUP2 SUB PUSH2 0xEB4 JUMPI INVALID JUMPDEST POP DUP1 PUSH2 0xEBF JUMPI PUSH1 0x0 DUP1 REVERT JUMPDEST PUSH1 0x0 DUP3 PUSH1 0x0 PUSH1 0x1 DUP2 LT PUSH2 0xED5 JUMPI PUSH2 0xED4 PUSH2 0x13B7 JUMP JUMPDEST JUMPDEST PUSH1 0x20 MUL ADD MLOAD EQ ISZERO SWAP6 POP POP POP POP POP POP SWAP3 SWAP2 POP POP JUMP JUMPDEST PUSH1 0x40 MLOAD DUP1 PUSH1 0xA0 ADD PUSH1 0x40 MSTORE DUP1 PUSH2 0xEFC PUSH2 0xF30 JUMP JUMPDEST DUP2 MSTORE PUSH1 0x20 ADD PUSH2 0xF09 PUSH2 0xF8E JUMP JUMPDEST DUP2 MSTORE PUSH1 0x20 ADD PUSH2 0xF16 PUSH2 0xF8E JUMP JUMPDEST DUP2 MSTORE PUSH1 0x20 ADD PUSH2 0xF23 PUSH2 0xF8E JUMP JUMPDEST DUP2 MSTORE PUSH1 0x20 ADD PUSH1 0x60 DUP2 MSTORE POP SWAP1 JUMP JUMPDEST PUSH1 0x40 MLOAD DUP1 PUSH1 0x40 ADD PUSH1 0x40 MSTORE DUP1 PUSH1 0x0 DUP2 MSTORE PUSH1 0x20 ADD PUSH1 0x0 DUP2 MSTORE POP SWAP1 JUMP JUMPDEST PUSH1 0x40 MLOAD DUP1 PUSH1 0x60 ADD PUSH1 0x40 MSTORE DUP1 PUSH1 0x3 SWAP1 PUSH1 0x20 DUP3 MUL DUP1 CALLDATASIZE DUP4 CALLDATACOPY DUP1 DUP3 ADD SWAP2 POP POP SWAP1 POP POP SWAP1 JUMP JUMPDEST PUSH1 0x40 MLOAD DUP1 PUSH1 0x80 ADD PUSH1 0x40 MSTORE DUP1 PUSH1 0x4 SWAP1 PUSH1 0x20 DUP3 MUL DUP1 CALLDATASIZE DUP4 CALLDATACOPY DUP1 DUP3 ADD SWAP2 POP POP SWAP1 POP POP SWAP1 JUMP JUMPDEST PUSH1 0x40 MLOAD DUP1 PUSH1 0x40 ADD PUSH1 0x40 MSTORE DUP1 PUSH2 0xFA1 PUSH2 0xFD6 JUMP JUMPDEST DUP2 MSTORE PUSH1 0x20 ADD PUSH2 0xFAE PUSH2 0xFD6 JUMP JUMPDEST DUP2 MSTORE POP SWAP1 JUMP JUMPDEST PUSH1 0x40 MLOAD DUP1 PUSH1 0x20 ADD PUSH1 0x40 MSTORE DUP1 PUSH1 0x1 SWAP1 PUSH1 0x20 DUP3 MUL DUP1 CALLDATASIZE DUP4 CALLDATACOPY DUP1 DUP3 ADD SWAP2 POP POP SWAP1 POP POP SWAP1 JUMP JUMPDEST PUSH1 0x40 MLOAD DUP1 PUSH1 0x40 ADD PUSH1 0x40 MSTORE DUP1 PUSH1 0x2 SWAP1 PUSH1 0x20 DUP3 MUL DUP1 CALLDATASIZE DUP4 CALLDATACOPY DUP1 DUP3 ADD SWAP2 POP POP SWAP1 POP POP SWAP1 JUMP JUMPDEST PUSH1 0x0 PUSH1 0x40 MLOAD SWAP1 POP SWAP1 JUMP JUMPDEST PUSH1 0x0 DUP1 REVERT JUMPDEST PUSH1 0x0 DUP1 REVERT JUMPDEST PUSH1 0x0 PUSH1 0x1F NOT PUSH1 0x1F DUP4 ADD AND SWAP1 POP SWAP2 SWAP1 POP JUMP JUMPDEST PUSH32 0x4E487B7100000000000000000000000000000000000000000000000000000000 PUSH1 0x0 MSTORE PUSH1 0x41 PUSH1 0x4 MSTORE PUSH1 0x24 PUSH1 0x0 REVERT JUMPDEST PUSH2 0x1055 DUP3 PUSH2 0x100C JUMP JUMPDEST DUP2 ADD DUP2 DUP2 LT PUSH8 0xFFFFFFFFFFFFFFFF DUP3 GT OR ISZERO PUSH2 0x1074 JUMPI PUSH2 0x1073 PUSH2 0x101D JUMP JUMPDEST JUMPDEST DUP1 PUSH1 0x40 MSTORE POP POP POP JUMP JUMPDEST PUSH1 0x0 PUSH2 0x1087 PUSH2 0xFF8 JUMP JUMPDEST SWAP1 POP PUSH2 0x1093 DUP3 DUP3 PUSH2 0x104C JUMP JUMPDEST SWAP2 SWAP1 POP JUMP JUMPDEST PUSH1 0x0 DUP2 SWAP1 POP SWAP2 SWAP1 POP JUMP JUMPDEST PUSH2 0x10AB DUP2 PUSH2 0x1098 JUMP JUMPDEST DUP2 EQ PUSH2 0x10B6 JUMPI PUSH1 0x0 DUP1 REVERT JUMPDEST POP JUMP JUMPDEST PUSH1 0x0 DUP2 CALLDATALOAD SWAP1 POP PUSH2 0x10C8 DUP2 PUSH2 0x10A2 JUMP JUMPDEST SWAP3 SWAP2 POP POP JUMP JUMPDEST PUSH1 0x0 PUSH1 0x40 DUP3 DUP5 SUB SLT ISZERO PUSH2 0x10E4 JUMPI PUSH2 0x10E3 PUSH2 0x1007 JUMP JUMPDEST JUMPDEST PUSH2 0x10EE PUSH1 0x40 PUSH2 0x107D JUMP JUMPDEST SWAP1 POP PUSH1 0x0 PUSH2 0x10FE DUP5 DUP3 DUP6 ADD PUSH2 0x10B9 JUMP JUMPDEST PUSH1 0x0 DUP4 ADD MSTORE POP PUSH1 0x20 PUSH2 0x1112 DUP5 DUP3 DUP6 ADD PUSH2 0x10B9 JUMP JUMPDEST PUSH1 0x20 DUP4 ADD MSTORE POP SWAP3 SWAP2 POP POP JUMP JUMPDEST PUSH1 0x0 DUP1 REVERT JUMPDEST PUSH1 0x0 PUSH8 0xFFFFFFFFFFFFFFFF DUP3 GT ISZERO PUSH2 0x113E JUMPI PUSH2 0x113D PUSH2 0x101D JUMP JUMPDEST JUMPDEST PUSH1 0x20 DUP3 MUL SWAP1 POP SWAP2 SWAP1 POP JUMP JUMPDEST PUSH1 0x0 DUP1 REVERT JUMPDEST PUSH1 0x0 PUSH2 0x1161 PUSH2 0x115C DUP5 PUSH2 0x1123 JUMP JUMPDEST PUSH2 0x107D JUMP JUMPDEST SWAP1 POP DUP1 PUSH1 0x20 DUP5 MUL DUP4 ADD DUP6 DUP2 GT ISZERO PUSH2 0x117B JUMPI PUSH2 0x117A PUSH2 0x1149 JUMP JUMPDEST JUMPDEST DUP4 JUMPDEST DUP2 DUP2 LT ISZERO PUSH2 0x11A4 JUMPI DUP1 PUSH2 0x1190 DUP9 DUP3 PUSH2 0x10B9 JUMP JUMPDEST DUP5 MSTORE PUSH1 0x20 DUP5 ADD SWAP4 POP POP PUSH1 0x20 DUP2 ADD SWAP1 POP PUSH2 0x117D JUMP JUMPDEST POP POP POP SWAP4 SWAP3 POP POP POP JUMP JUMPDEST PUSH1 0x0 DUP3 PUSH1 0x1F DUP4 ADD SLT PUSH2 0x11C3 JUMPI PUSH2 0x11C2 PUSH2 0x111E JUMP JUMPDEST JUMPDEST PUSH1 0x2 PUSH2 0x11D0 DUP5 DUP3 DUP6 PUSH2 0x114E JUMP JUMPDEST SWAP2 POP POP SWAP3 SWAP2 POP POP JUMP JUMPDEST PUSH1 0x0 PUSH1 0x80 DUP3 DUP5 SUB SLT ISZERO PUSH2 0x11EF JUMPI PUSH2 0x11EE PUSH2 0x1007 JUMP JUMPDEST JUMPDEST PUSH2 0x11F9 PUSH1 0x40 PUSH2 0x107D JUMP JUMPDEST SWAP1 POP PUSH1 0x0 PUSH2 0x1209 DUP5 DUP3 DUP6 ADD PUSH2 0x11AE JUMP JUMPDEST PUSH1 0x0 DUP4 ADD MSTORE POP PUSH1 0x40 PUSH2 0x121D DUP5 DUP3 DUP6 ADD PUSH2 0x11AE JUMP JUMPDEST PUSH1 0x20 DUP4 ADD MSTORE POP SWAP3 SWAP2 POP POP JUMP JUMPDEST PUSH1 0x0 PUSH2 0x100 DUP3 DUP5 SUB SLT ISZERO PUSH2 0x1240 JUMPI PUSH2 0x123F PUSH2 0x1007 JUMP JUMPDEST JUMPDEST PUSH2 0x124A PUSH1 0x60 PUSH2 0x107D JUMP JUMPDEST SWAP1 POP PUSH1 0x0 PUSH2 0x125A DUP5 DUP3 DUP6 ADD PUSH2 0x10CE JUMP JUMPDEST PUSH1 0x0 DUP4 ADD MSTORE POP PUSH1 0x40 PUSH2 0x126E DUP5 DUP3 DUP6 ADD PUSH2 0x11D9 JUMP JUMPDEST PUSH1 0x20 DUP4 ADD MSTORE POP PUSH1 0xC0 PUSH2 0x1282 DUP5 DUP3 DUP6 ADD PUSH2 0x10CE JUMP JUMPDEST PUSH1 0x40 DUP4 ADD MSTORE POP SWAP3 SWAP2 POP POP JUMP JUMPDEST PUSH1 0x0 PUSH8 0xFFFFFFFFFFFFFFFF DUP3 GT ISZERO PUSH2 0x12A9 JUMPI PUSH2 0x12A8 PUSH2 0x101D JUMP JUMPDEST JUMPDEST PUSH1 0x20 DUP3 MUL SWAP1 POP SWAP2 SWAP1 POP JUMP JUMPDEST PUSH1 0x0 PUSH2 0x12C7 PUSH2 0x12C2 DUP5 PUSH2 0x128E JUMP JUMPDEST PUSH2 0x107D JUMP JUMPDEST SWAP1 POP DUP1 PUSH1 0x20 DUP5 MUL DUP4 ADD DUP6 DUP2 GT ISZERO PUSH2 0x12E1 JUMPI PUSH2 0x12E0 PUSH2 0x1149 JUMP JUMPDEST JUMPDEST DUP4 JUMPDEST DUP2 DUP2 LT ISZERO PUSH2 0x130A JUMPI DUP1 PUSH2 0x12F6 DUP9 DUP3 PUSH2 0x10B9 JUMP JUMPDEST DUP5 MSTORE PUSH1 0x20 DUP5 ADD SWAP4 POP POP PUSH1 0x20 DUP2 ADD SWAP1 POP PUSH2 0x12E3 JUMP JUMPDEST POP POP POP SWAP4 SWAP3 POP POP POP JUMP JUMPDEST PUSH1 0x0 DUP3 PUSH1 0x1F DUP4 ADD SLT PUSH2 0x1329 JUMPI PUSH2 0x1328 PUSH2 0x111E JUMP JUMPDEST JUMPDEST PUSH1 0x3 PUSH2 0x1336 DUP5 DUP3 DUP6 PUSH2 0x12B4 JUMP JUMPDEST SWAP2 POP POP SWAP3 SWAP2 POP POP JUMP JUMPDEST PUSH1 0x0 DUP1 PUSH2 0x160 DUP4 DUP6 SUB SLT ISZERO PUSH2 0x1357 JUMPI PUSH2 0x1356 PUSH2 0x1002 JUMP JUMPDEST JUMPDEST PUSH1 0x0 PUSH2 0x1365 DUP6 DUP3 DUP7 ADD PUSH2 0x1229 JUMP JUMPDEST SWAP3 POP POP PUSH2 0x100 PUSH2 0x1377 DUP6 DUP3 DUP7 ADD PUSH2 0x1314 JUMP JUMPDEST SWAP2 POP POP SWAP3 POP SWAP3 SWAP1 POP JUMP JUMPDEST PUSH1 0x0 DUP2 ISZERO ISZERO SWAP1 POP SWAP2 SWAP1 POP JUMP JUMPDEST PUSH2 0x1396 DUP2 PUSH2 0x1381 JUMP JUMPDEST DUP3 MSTORE POP POP JUMP JUMPDEST PUSH1 0x0 PUSH1 0x20 DUP3 ADD SWAP1 POP PUSH2 0x13B1 PUSH1 0x0 DUP4 ADD DUP5 PUSH2 0x138D JUMP JUMPDEST SWAP3 SWAP2 POP POP JUMP JUMPDEST PUSH32 0x4E487B7100000000000000000000000000000000000000000000000000000000 PUSH1 0x0 MSTORE PUSH1 0x32 PUSH1 0x4 MSTORE PUSH1 0x24 PUSH1 0x0 REVERT JUMPDEST PUSH32 0x4E487B7100000000000000000000000000000000000000000000000000000000 PUSH1 0x0 MSTORE PUSH1 0x11 PUSH1 0x4 MSTORE PUSH1 0x24 PUSH1 0x0 REVERT JUMPDEST PUSH1 0x0 PUSH2 0x1420 DUP3 PUSH2 0x1098 JUMP JUMPDEST SWAP2 POP PUSH32 0xFFFFFFFFFFFFFFFFFFFFFFFFFFFFFFFFFFFFFFFFFFFFFFFFFFFFFFFFFFFFFFFF DUP3 SUB PUSH2 0x1452 JUMPI PUSH2 0x1451 PUSH2 0x13E6 JUMP JUMPDEST JUMPDEST PUSH1 0x1 DUP3 ADD SWAP1 POP SWAP2 SWAP1 POP JUMP JUMPDEST PUSH1 0x0 PUSH2 0x1468 DUP3 PUSH2 0x1098 JUMP JUMPDEST SWAP2 POP PUSH2 0x1473 DUP4 PUSH2 0x1098 JUMP JUMPDEST SWAP3 POP DUP3 DUP3 ADD SWAP1 POP DUP1 DUP3 GT ISZERO PUSH2 0x148B JUMPI PUSH2 0x148A PUSH2 0x13E6 JUMP JUMPDEST JUMPDEST SWAP3 SWAP2 POP POP JUMP JUMPDEST PUSH32 0x4E487B7100000000000000000000000000000000000000000000000000000000 PUSH1 0x0 MSTORE PUSH1 0x12 PUSH1 0x4 MSTORE PUSH1 0x24 PUSH1 0x0 REVERT JUMPDEST PUSH1 0x0 PUSH2 0x14CB DUP3 PUSH2 0x1098 JUMP JUMPDEST SWAP2 POP PUSH2 0x14D6 DUP4 PUSH2 0x1098 JUMP JUMPDEST SWAP3 POP DUP3 PUSH2 0x14E6 JUMPI PUSH2 0x14E5 PUSH2 0x1491 JUMP JUMPDEST JUMPDEST DUP3 DUP3 MOD SWAP1 POP SWAP3 SWAP2 POP POP JUMP JUMPDEST PUSH1 0x0 PUSH2 0x14FC DUP3 PUSH2 0x1098 JUMP JUMPDEST SWAP2 POP PUSH2 0x1507 DUP4 PUSH2 0x1098 JUMP JUMPDEST SWAP3 POP DUP3 DUP3 SUB SWAP1 POP DUP2 DUP2 GT ISZERO PUSH2 0x151F JUMPI PUSH2 0x151E PUSH2 0x13E6 JUMP JUMPDEST JUMPDEST SWAP3 SWAP2 POP POP JUMP JUMPDEST PUSH1 0x0 PUSH2 0x1530 DUP3 PUSH2 0x1098 JUMP JUMPDEST SWAP2 POP PUSH2 0x153B DUP4 PUSH2 0x1098 JUMP JUMPDEST SWAP3 POP DUP3 DUP3 MUL PUSH2 0x1549 DUP2 PUSH2 0x1098 JUMP JUMPDEST SWAP2 POP DUP3 DUP3 DIV DUP5 EQ DUP4 ISZERO OR PUSH2 0x1560 JUMPI PUSH2 0x155F PUSH2 0x13E6 JUMP JUMPDEST JUMPDEST POP SWAP3 SWAP2 POP POP JUMP INVALID LOG2 PUSH5 0x6970667358 0x22 SLT KECCAK256 PUSH27 0x1F2E7F07C5B806FA653590B3AB27D3312B1F566A066E829B5F54E7 0xB1 0x4A CODECOPY DUP12 PUSH5 0x736F6C6343 STOP ADDMOD SLT STOP CALLER "
		},
		"gasEstimates": {
			"creation": {
				"codeDepositCost": "1106600",
				"executionCost": "1147",
				"totalCost": "1107747"
			},
			"external": {
				"verifyTx(((uint256,uint256),(uint256[2],uint256[2]),(uint256,uint256)),uint256[3])": "infinite"
			},
			"internal": {
				"verify(uint256[] memory,struct Verifier.Proof memory)": "infinite",
				"verifyingKey()": "infinite"
			}
		},
		"methodIdentifiers": {
			"verifyTx(((uint256,uint256),(uint256[2],uint256[2]),(uint256,uint256)),uint256[3])": "0f9c5d49"
		}
	},
	"abi": [
		{
			"inputs": [
				{
					"components": [
						{
							"components": [
								{
									"internalType": "uint256",
									"name": "X",
									"type": "uint256"
								},
								{
									"internalType": "uint256",
									"name": "Y",
									"type": "uint256"
								}
							],
							"internalType": "struct Pairing.G1Point",
							"name": "a",
							"type": "tuple"
						},
						{
							"components": [
								{
									"internalType": "uint256[2]",
									"name": "X",
									"type": "uint256[2]"
								},
								{
									"internalType": "uint256[2]",
									"name": "Y",
									"type": "uint256[2]"
								}
							],
							"internalType": "struct Pairing.G2Point",
							"name": "b",
							"type": "tuple"
						},
						{
							"components": [
								{
									"internalType": "uint256",
									"name": "X",
									"type": "uint256"
								},
								{
									"internalType": "uint256",
									"name": "Y",
									"type": "uint256"
								}
							],
							"internalType": "struct Pairing.G1Point",
							"name": "c",
							"type": "tuple"
						}
					],
					"internalType": "struct Verifier.Proof",
					"name": "proof",
					"type": "tuple"
				},
				{
					"internalType": "uint256[3]",
					"name": "input",
					"type": "uint256[3]"
				}
			],
			"name": "verifyTx",
			"outputs": [
				{
					"internalType": "bool",
					"name": "r",
					"type": "bool"
				}
			],
			"stateMutability": "view",
			"type": "function"
		}
	]
}