{
	"verifier.sol": {
		"Verifier": {
			"abi": [
				{
					"inputs": [
						{
							"components": [
								{
									"components": [
										{
											"internalType": "uint256",
											"name": "X",
											"type": "uint256"
										},
										{
											"internalType": "uint256",
											"name": "Y",
											"type": "uint256"
										}
									],
									"internalType": "struct Pairing.G1Point",
									"name": "a",
									"type": "tuple"
								},
								{
									"components": [
										{
											"internalType": "uint256[2]",
											"name": "X",
											"type": "uint256[2]"
										},
										{
											"internalType": "uint256[2]",
											"name": "Y",
											"type": "uint256[2]"
										}
									],
									"internalType": "struct Pairing.G2Point",
									"name": "b",
									"type": "tuple"
								},
								{
									"components": [
										{
											"internalType": "uint256",
											"name": "X",
											"type": "uint256"
										},
										{
											"internalType": "uint256",
											"name": "Y",
											"type": "uint256"
										}
									],
									"internalType": "struct Pairing.G1Point",
									"name": "c",
									"type": "tuple"
								}
							],
							"internalType": "struct Verifier.Proof",
							"name": "proof",
							"type": "tuple"
						},
						{
							"internalType": "uint256[3]",
							"name": "input",
							"type": "uint256[3]"
						}
					],
					"name": "verifyTx",
					"outputs": [
						{
							"internalType": "bool",
							"name": "r",
							"type": "bool"
						}
					],
					"stateMutability": "view",
					"type": "function"
				}
			],
			"devdoc": {
				"kind": "dev",
				"methods": {},
				"version": 1
			},
			"evm": {
				"assembly": "    /* \"verifier.sol\":6234:10062  contract Verifier {... */\n  mstore(0x40, 0x80)\n  callvalue\n  dup1\n  iszero\n  tag_1\n  jumpi\n  0x00\n  dup1\n  revert\ntag_1:\n  pop\n  dataSize(sub_0)\n  dup1\n  dataOffset(sub_0)\n  0x00\n  codecopy\n  0x00\n  return\nstop\n\nsub_0: assembly {\n        /* \"verifier.sol\":6234:10062  contract Verifier {... */\n      mstore(0x40, 0x80)\n      callvalue\n      dup1\n      iszero\n      tag_1\n      jumpi\n      0x00\n      dup1\n      revert\n    tag_1:\n      pop\n      jumpi(tag_2, lt(calldatasize, 0x04))\n      shr(0xe0, calldataload(0x00))\n      dup1\n      0x0f9c5d49\n      eq\n      tag_3\n      jumpi\n    tag_2:\n      0x00\n      dup1\n      revert\n        /* \"verifier.sol\":9660:10060  function verifyTx(... */\n    tag_3:\n      tag_4\n      0x04\n      dup1\n      calldatasize\n      sub\n      dup2\n      add\n      swap1\n      tag_5\n      swap2\n      swap1\n      tag_6\n      jump\t// in\n    tag_5:\n      tag_7\n      jump\t// in\n    tag_4:\n      mload(0x40)\n      tag_8\n      swap2\n      swap1\n      tag_9\n      jump\t// in\n    tag_8:\n      mload(0x40)\n      dup1\n      swap2\n      sub\n      swap1\n      return\n    tag_7:\n        /* \"verifier.sol\":9763:9769  bool r */\n      0x00\n        /* \"verifier.sol\":9781:9806  uint[] memory inputValues */\n      dup1\n        /* \"verifier.sol\":9820:9821  3 */\n      0x03\n        /* \"verifier.sol\":9809:9822  new uint[](3) */\n      0xffffffffffffffff\n      dup2\n      gt\n      iszero\n      tag_11\n      jumpi\n      tag_12\n      tag_13\n      jump\t// in\n    tag_12:\n    tag_11:\n      mload(0x40)\n      swap1\n      dup1\n      dup3\n      mstore\n      dup1\n      0x20\n      mul\n      0x20\n      add\n      dup3\n      add\n      0x40\n      mstore\n      dup1\n      iszero\n      tag_14\n      jumpi\n      dup2\n      0x20\n      add\n      0x20\n      dup3\n      mul\n      dup1\n      calldatasize\n      dup4\n      calldatacopy\n      dup1\n      dup3\n      add\n      swap2\n      pop\n      pop\n      swap1\n      pop\n    tag_14:\n      pop\n        /* \"verifier.sol\":9781:9822  uint[] memory inputValues = new uint[](3) */\n      swap1\n      pop\n        /* \"verifier.sol\":9845:9851  uint i */\n      0x00\n        /* \"verifier.sol\":9841:9929  for(uint i = 0; i < input.length; i++){... */\n    tag_15:\n        /* \"verifier.sol\":9861:9873  input.length */\n      0x03\n        /* \"verifier.sol\":9857:9858  i */\n      dup2\n        /* \"verifier.sol\":9857:9873  i < input.length */\n      lt\n        /* \"verifier.sol\":9841:9929  for(uint i = 0; i < input.length; i++){... */\n      iszero\n      tag_16\n      jumpi\n        /* \"verifier.sol\":9910:9915  input */\n      dup4\n        /* \"verifier.sol\":9916:9917  i */\n      dup2\n        /* \"verifier.sol\":9910:9918  input[i] */\n      0x03\n      dup2\n      lt\n      tag_18\n      jumpi\n      tag_19\n      tag_20\n      jump\t// in\n    tag_19:\n    tag_18:\n      0x20\n      mul\n      add\n      mload\n        /* \"verifier.sol\":9893:9904  inputValues */\n      dup3\n        /* \"verifier.sol\":9905:9906  i */\n      dup3\n        /* \"verifier.sol\":9893:9907  inputValues[i] */\n      dup2\n      mload\n      dup2\n      lt\n      tag_21\n      jumpi\n      tag_22\n      tag_20\n      jump\t// in\n    tag_22:\n    tag_21:\n      0x20\n      mul\n      0x20\n      add\n      add\n        /* \"verifier.sol\":9893:9918  inputValues[i] = input[i] */\n      dup2\n      dup2\n      mstore\n      pop\n      pop\n        /* \"verifier.sol\":9875:9878  i++ */\n      dup1\n      dup1\n      tag_23\n      swap1\n      tag_24\n      jump\t// in\n    tag_23:\n      swap2\n      pop\n      pop\n        /* \"verifier.sol\":9841:9929  for(uint i = 0; i < input.length; i++){... */\n      jump(tag_15)\n    tag_16:\n      pop\n        /* \"verifier.sol\":9972:9973  0 */\n      0x00\n        /* \"verifier.sol\":9942:9968  verify(inputValues, proof) */\n      tag_25\n        /* \"verifier.sol\":9949:9960  inputValues */\n      dup3\n        /* \"verifier.sol\":9962:9967  proof */\n      dup7\n        /* \"verifier.sol\":9942:9948  verify */\n      tag_26\n        /* \"verifier.sol\":9942:9968  verify(inputValues, proof) */\n      jump\t// in\n    tag_25:\n        /* \"verifier.sol\":9942:9973  verify(inputValues, proof) == 0 */\n      sub\n        /* \"verifier.sol\":9938:10054  if (verify(inputValues, proof) == 0) {... */\n      tag_27\n      jumpi\n        /* \"verifier.sol\":9996:10000  true */\n      0x01\n        /* \"verifier.sol\":9989:10000  return true */\n      swap2\n      pop\n      pop\n      jump(tag_10)\n        /* \"verifier.sol\":9938:10054  if (verify(inputValues, proof) == 0) {... */\n    tag_27:\n        /* \"verifier.sol\":10038:10043  false */\n      0x00\n        /* \"verifier.sol\":10031:10043  return false */\n      swap2\n      pop\n      pop\n        /* \"verifier.sol\":9660:10060  function verifyTx(... */\n    tag_10:\n      swap3\n      swap2\n      pop\n      pop\n      jump\t// out\n        /* \"verifier.sol\":8734:9655  function verify(uint[] memory input, Proof memory proof) internal view returns (uint) {... */\n    tag_26:\n        /* \"verifier.sol\":8814:8818  uint */\n      0x00\n        /* \"verifier.sol\":8830:8856  uint256 snark_scalar_field */\n      dup1\n        /* \"verifier.sol\":8859:8936  21888242871839275222246405745257275088548364400416034343698204186575808495617 */\n      0x30644e72e131a029b85045b68181585d2833e84879b9709143e1f593f0000001\n        /* \"verifier.sol\":8830:8936  uint256 snark_scalar_field = 21888242871839275222246405745257275088548364400416034343698204186575808495617 */\n      swap1\n      pop\n        /* \"verifier.sol\":8946:8968  VerifyingKey memory vk */\n      0x00\n        /* \"verifier.sol\":8971:8985  verifyingKey() */\n      tag_30\n        /* \"verifier.sol\":8971:8983  verifyingKey */\n      tag_31\n        /* \"verifier.sol\":8971:8985  verifyingKey() */\n      jump\t// in\n    tag_30:\n        /* \"verifier.sol\":8946:8985  VerifyingKey memory vk = verifyingKey() */\n      swap1\n      pop\n        /* \"verifier.sol\":9023:9025  vk */\n      dup1\n        /* \"verifier.sol\":9023:9035  vk.gamma_abc */\n      0x80\n      add\n      mload\n        /* \"verifier.sol\":9023:9042  vk.gamma_abc.length */\n      mload\n        /* \"verifier.sol\":9018:9019  1 */\n      0x01\n        /* \"verifier.sol\":9003:9008  input */\n      dup7\n        /* \"verifier.sol\":9003:9015  input.length */\n      mload\n        /* \"verifier.sol\":9003:9019  input.length + 1 */\n      tag_32\n      swap2\n      swap1\n      tag_33\n      jump\t// in\n    tag_32:\n        /* \"verifier.sol\":9003:9042  input.length + 1 == vk.gamma_abc.length */\n      eq\n        /* \"verifier.sol\":8995:9043  require(input.length + 1 == vk.gamma_abc.length) */\n      tag_34\n      jumpi\n      0x00\n      dup1\n      revert\n    tag_34:\n        /* \"verifier.sol\":9100:9127  Pairing.G1Point memory vk_x */\n      0x00\n        /* \"verifier.sol\":9130:9151  Pairing.G1Point(0, 0) */\n      mload(0x40)\n      dup1\n      0x40\n      add\n      0x40\n      mstore\n      dup1\n        /* \"verifier.sol\":9146:9147  0 */\n      0x00\n        /* \"verifier.sol\":9130:9151  Pairing.G1Point(0, 0) */\n      dup2\n      mstore\n      0x20\n      add\n        /* \"verifier.sol\":9149:9150  0 */\n      0x00\n        /* \"verifier.sol\":9130:9151  Pairing.G1Point(0, 0) */\n      dup2\n      mstore\n      pop\n        /* \"verifier.sol\":9100:9151  Pairing.G1Point memory vk_x = Pairing.G1Point(0, 0) */\n      swap1\n      pop\n        /* \"verifier.sol\":9166:9172  uint i */\n      0x00\n        /* \"verifier.sol\":9161:9358  for (uint i = 0; i < input.length; i++) {... */\n    tag_35:\n        /* \"verifier.sol\":9182:9187  input */\n      dup7\n        /* \"verifier.sol\":9182:9194  input.length */\n      mload\n        /* \"verifier.sol\":9178:9179  i */\n      dup2\n        /* \"verifier.sol\":9178:9194  i < input.length */\n      lt\n        /* \"verifier.sol\":9161:9358  for (uint i = 0; i < input.length; i++) {... */\n      iszero\n      tag_36\n      jumpi\n        /* \"verifier.sol\":9234:9252  snark_scalar_field */\n      dup4\n        /* \"verifier.sol\":9223:9228  input */\n      dup8\n        /* \"verifier.sol\":9229:9230  i */\n      dup3\n        /* \"verifier.sol\":9223:9231  input[i] */\n      dup2\n      mload\n      dup2\n      lt\n      tag_38\n      jumpi\n      tag_39\n      tag_20\n      jump\t// in\n    tag_39:\n    tag_38:\n      0x20\n      mul\n      0x20\n      add\n      add\n      mload\n        /* \"verifier.sol\":9223:9252  input[i] < snark_scalar_field */\n      lt\n        /* \"verifier.sol\":9215:9253  require(input[i] < snark_scalar_field) */\n      tag_40\n      jumpi\n      0x00\n      dup1\n      revert\n    tag_40:\n        /* \"verifier.sol\":9274:9347  Pairing.addition(vk_x, Pairing.scalar_mul(vk.gamma_abc[i + 1], input[i])) */\n      tag_41\n        /* \"verifier.sol\":9291:9295  vk_x */\n      dup3\n        /* \"verifier.sol\":9297:9346  Pairing.scalar_mul(vk.gamma_abc[i + 1], input[i]) */\n      tag_42\n        /* \"verifier.sol\":9316:9318  vk */\n      dup6\n        /* \"verifier.sol\":9316:9328  vk.gamma_abc */\n      0x80\n      add\n      mload\n        /* \"verifier.sol\":9333:9334  1 */\n      0x01\n        /* \"verifier.sol\":9329:9330  i */\n      dup6\n        /* \"verifier.sol\":9329:9334  i + 1 */\n      tag_43\n      swap2\n      swap1\n      tag_33\n      jump\t// in\n    tag_43:\n        /* \"verifier.sol\":9316:9335  vk.gamma_abc[i + 1] */\n      dup2\n      mload\n      dup2\n      lt\n      tag_44\n      jumpi\n      tag_45\n      tag_20\n      jump\t// in\n    tag_45:\n    tag_44:\n      0x20\n      mul\n      0x20\n      add\n      add\n      mload\n        /* \"verifier.sol\":9337:9342  input */\n      dup11\n        /* \"verifier.sol\":9343:9344  i */\n      dup6\n        /* \"verifier.sol\":9337:9345  input[i] */\n      dup2\n      mload\n      dup2\n      lt\n      tag_46\n      jumpi\n      tag_47\n      tag_20\n      jump\t// in\n    tag_47:\n    tag_46:\n      0x20\n      mul\n      0x20\n      add\n      add\n      mload\n        /* \"verifier.sol\":9297:9315  Pairing.scalar_mul */\n      tag_48\n        /* \"verifier.sol\":9297:9346  Pairing.scalar_mul(vk.gamma_abc[i + 1], input[i]) */\n      jump\t// in\n    tag_42:\n        /* \"verifier.sol\":9274:9290  Pairing.addition */\n      tag_49\n        /* \"verifier.sol\":9274:9347  Pairing.addition(vk_x, Pairing.scalar_mul(vk.gamma_abc[i + 1], input[i])) */\n      jump\t// in\n    tag_41:\n        /* \"verifier.sol\":9267:9347  vk_x = Pairing.addition(vk_x, Pairing.scalar_mul(vk.gamma_abc[i + 1], input[i])) */\n      swap2\n      pop\n        /* \"verifier.sol\":9196:9199  i++ */\n      dup1\n      dup1\n      tag_50\n      swap1\n      tag_24\n      jump\t// in\n    tag_50:\n      swap2\n      pop\n      pop\n        /* \"verifier.sol\":9161:9358  for (uint i = 0; i < input.length; i++) {... */\n      jump(tag_35)\n    tag_36:\n      pop\n        /* \"verifier.sol\":9374:9413  Pairing.addition(vk_x, vk.gamma_abc[0]) */\n      tag_51\n        /* \"verifier.sol\":9391:9395  vk_x */\n      dup2\n        /* \"verifier.sol\":9397:9399  vk */\n      dup4\n        /* \"verifier.sol\":9397:9409  vk.gamma_abc */\n      0x80\n      add\n      mload\n        /* \"verifier.sol\":9410:9411  0 */\n      0x00\n        /* \"verifier.sol\":9397:9412  vk.gamma_abc[0] */\n      dup2\n      mload\n      dup2\n      lt\n      tag_52\n      jumpi\n      tag_53\n      tag_20\n      jump\t// in\n    tag_53:\n    tag_52:\n      0x20\n      mul\n      0x20\n      add\n      add\n      mload\n        /* \"verifier.sol\":9374:9390  Pairing.addition */\n      tag_49\n        /* \"verifier.sol\":9374:9413  Pairing.addition(vk_x, vk.gamma_abc[0]) */\n      jump\t// in\n    tag_51:\n        /* \"verifier.sol\":9367:9413  vk_x = Pairing.addition(vk_x, vk.gamma_abc[0]) */\n      swap1\n      pop\n        /* \"verifier.sol\":9427:9620  Pairing.pairingProd4(... */\n      tag_54\n        /* \"verifier.sol\":9462:9467  proof */\n      dup6\n        /* \"verifier.sol\":9462:9469  proof.a */\n      0x00\n      add\n      mload\n        /* \"verifier.sol\":9471:9476  proof */\n      dup7\n        /* \"verifier.sol\":9471:9478  proof.b */\n      0x20\n      add\n      mload\n        /* \"verifier.sol\":9493:9513  Pairing.negate(vk_x) */\n      tag_55\n        /* \"verifier.sol\":9508:9512  vk_x */\n      dup5\n        /* \"verifier.sol\":9493:9507  Pairing.negate */\n      tag_56\n        /* \"verifier.sol\":9493:9513  Pairing.negate(vk_x) */\n      jump\t// in\n    tag_55:\n        /* \"verifier.sol\":9515:9517  vk */\n      dup6\n        /* \"verifier.sol\":9515:9523  vk.gamma */\n      0x40\n      add\n      mload\n        /* \"verifier.sol\":9538:9561  Pairing.negate(proof.c) */\n      tag_57\n        /* \"verifier.sol\":9553:9558  proof */\n      dup11\n        /* \"verifier.sol\":9553:9560  proof.c */\n      0x40\n      add\n      mload\n        /* \"verifier.sol\":9538:9552  Pairing.negate */\n      tag_56\n        /* \"verifier.sol\":9538:9561  Pairing.negate(proof.c) */\n      jump\t// in\n    tag_57:\n        /* \"verifier.sol\":9563:9565  vk */\n      dup8\n        /* \"verifier.sol\":9563:9571  vk.delta */\n      0x60\n      add\n      mload\n        /* \"verifier.sol\":9586:9610  Pairing.negate(vk.alpha) */\n      tag_58\n        /* \"verifier.sol\":9601:9603  vk */\n      dup10\n        /* \"verifier.sol\":9601:9609  vk.alpha */\n      0x00\n      add\n      mload\n        /* \"verifier.sol\":9586:9600  Pairing.negate */\n      tag_56\n        /* \"verifier.sol\":9586:9610  Pairing.negate(vk.alpha) */\n      jump\t// in\n    tag_58:\n        /* \"verifier.sol\":9612:9614  vk */\n      dup10\n        /* \"verifier.sol\":9612:9619  vk.beta */\n      0x20\n      add\n      mload\n        /* \"verifier.sol\":9427:9447  Pairing.pairingProd4 */\n      tag_59\n        /* \"verifier.sol\":9427:9620  Pairing.pairingProd4(... */\n      jump\t// in\n    tag_54:\n        /* \"verifier.sol\":9423:9630  if(!Pairing.pairingProd4(... */\n      tag_60\n      jumpi\n        /* \"verifier.sol\":9629:9630  1 */\n      0x01\n        /* \"verifier.sol\":9622:9630  return 1 */\n      swap4\n      pop\n      pop\n      pop\n      pop\n      jump(tag_29)\n        /* \"verifier.sol\":9423:9630  if(!Pairing.pairingProd4(... */\n    tag_60:\n        /* \"verifier.sol\":9647:9648  0 */\n      0x00\n        /* \"verifier.sol\":9640:9648  return 0 */\n      swap4\n      pop\n      pop\n      pop\n      pop\n        /* \"verifier.sol\":8734:9655  function verify(uint[] memory input, Proof memory proof) internal view returns (uint) {... */\n    tag_29:\n      swap3\n      swap2\n      pop\n      pop\n      jump\t// out\n        /* \"verifier.sol\":6581:8729  function verifyingKey() pure internal returns (VerifyingKey memory vk) {... */\n    tag_31:\n        /* \"verifier.sol\":6628:6650  VerifyingKey memory vk */\n      tag_61\n      tag_62\n      jump\t// in\n    tag_61:\n        /* \"verifier.sol\":6673:6842  Pairing.G1Point(uint256(0x0f4b32f1bd6458cf46b284dc93245f2ae17e458029758c6e92a5000b906bdcd2), uint256(0x1ec187bad29b215c9dc358d4f2b82a176f0d9be76cba2e2c882fa17a9df8a3fe)) */\n      mload(0x40)\n      dup1\n      0x40\n      add\n      0x40\n      mstore\n      dup1\n        /* \"verifier.sol\":6697:6763  0x0f4b32f1bd6458cf46b284dc93245f2ae17e458029758c6e92a5000b906bdcd2 */\n      0x0f4b32f1bd6458cf46b284dc93245f2ae17e458029758c6e92a5000b906bdcd2\n        /* \"verifier.sol\":6673:6842  Pairing.G1Point(uint256(0x0f4b32f1bd6458cf46b284dc93245f2ae17e458029758c6e92a5000b906bdcd2), uint256(0x1ec187bad29b215c9dc358d4f2b82a176f0d9be76cba2e2c882fa17a9df8a3fe)) */\n      dup2\n      mstore\n      0x20\n      add\n        /* \"verifier.sol\":6774:6840  0x1ec187bad29b215c9dc358d4f2b82a176f0d9be76cba2e2c882fa17a9df8a3fe */\n      0x1ec187bad29b215c9dc358d4f2b82a176f0d9be76cba2e2c882fa17a9df8a3fe\n        /* \"verifier.sol\":6673:6842  Pairing.G1Point(uint256(0x0f4b32f1bd6458cf46b284dc93245f2ae17e458029758c6e92a5000b906bdcd2), uint256(0x1ec187bad29b215c9dc358d4f2b82a176f0d9be76cba2e2c882fa17a9df8a3fe)) */\n      dup2\n      mstore\n      pop\n        /* \"verifier.sol\":6662:6664  vk */\n      dup2\n        /* \"verifier.sol\":6662:6670  vk.alpha */\n      0x00\n      add\n        /* \"verifier.sol\":6662:6842  vk.alpha = Pairing.G1Point(uint256(0x0f4b32f1bd6458cf46b284dc93245f2ae17e458029758c6e92a5000b906bdcd2), uint256(0x1ec187bad29b215c9dc358d4f2b82a176f0d9be76cba2e2c882fa17a9df8a3fe)) */\n      dup2\n      swap1\n      mstore\n      pop\n        /* \"verifier.sol\":6862:7189  Pairing.G2Point([uint256(0x1e1f7dbdbf4630b9498e085f64525d6fecee3cd4a37f8c82a92a18202d5c1931), uint256(0x2fef1b63eac92d9c3515555ee86abfdf7d87969dca3499e64abbf758f9372e7d)], [uint256(0x27f19ddb42f0ca17004bd538732a72192c00962a583fc2d58cb6aa917b85fdd8), uint256(0x214d4bb763e9d8caa31d6213123b14a4c76bb5c88a4e127b453c240fb86d2cf0)]) */\n      mload(0x40)\n      dup1\n      0x40\n      add\n      0x40\n      mstore\n      dup1\n      mload(0x40)\n      dup1\n      0x40\n      add\n      0x40\n      mstore\n      dup1\n        /* \"verifier.sol\":6887:6953  0x1e1f7dbdbf4630b9498e085f64525d6fecee3cd4a37f8c82a92a18202d5c1931 */\n      0x1e1f7dbdbf4630b9498e085f64525d6fecee3cd4a37f8c82a92a18202d5c1931\n        /* \"verifier.sol\":6862:7189  Pairing.G2Point([uint256(0x1e1f7dbdbf4630b9498e085f64525d6fecee3cd4a37f8c82a92a18202d5c1931), uint256(0x2fef1b63eac92d9c3515555ee86abfdf7d87969dca3499e64abbf758f9372e7d)], [uint256(0x27f19ddb42f0ca17004bd538732a72192c00962a583fc2d58cb6aa917b85fdd8), uint256(0x214d4bb763e9d8caa31d6213123b14a4c76bb5c88a4e127b453c240fb86d2cf0)]) */\n      dup2\n      mstore\n      0x20\n      add\n        /* \"verifier.sol\":6964:7030  0x2fef1b63eac92d9c3515555ee86abfdf7d87969dca3499e64abbf758f9372e7d */\n      0x2fef1b63eac92d9c3515555ee86abfdf7d87969dca3499e64abbf758f9372e7d\n        /* \"verifier.sol\":6862:7189  Pairing.G2Point([uint256(0x1e1f7dbdbf4630b9498e085f64525d6fecee3cd4a37f8c82a92a18202d5c1931), uint256(0x2fef1b63eac92d9c3515555ee86abfdf7d87969dca3499e64abbf758f9372e7d)], [uint256(0x27f19ddb42f0ca17004bd538732a72192c00962a583fc2d58cb6aa917b85fdd8), uint256(0x214d4bb763e9d8caa31d6213123b14a4c76bb5c88a4e127b453c240fb86d2cf0)]) */\n      dup2\n      mstore\n      pop\n      dup2\n      mstore\n      0x20\n      add\n      mload(0x40)\n      dup1\n      0x40\n      add\n      0x40\n      mstore\n      dup1\n        /* \"verifier.sol\":7043:7109  0x27f19ddb42f0ca17004bd538732a72192c00962a583fc2d58cb6aa917b85fdd8 */\n      0x27f19ddb42f0ca17004bd538732a72192c00962a583fc2d58cb6aa917b85fdd8\n        /* \"verifier.sol\":6862:7189  Pairing.G2Point([uint256(0x1e1f7dbdbf4630b9498e085f64525d6fecee3cd4a37f8c82a92a18202d5c1931), uint256(0x2fef1b63eac92d9c3515555ee86abfdf7d87969dca3499e64abbf758f9372e7d)], [uint256(0x27f19ddb42f0ca17004bd538732a72192c00962a583fc2d58cb6aa917b85fdd8), uint256(0x214d4bb763e9d8caa31d6213123b14a4c76bb5c88a4e127b453c240fb86d2cf0)]) */\n      dup2\n      mstore\n      0x20\n      add\n        /* \"verifier.sol\":7120:7186  0x214d4bb763e9d8caa31d6213123b14a4c76bb5c88a4e127b453c240fb86d2cf0 */\n      0x214d4bb763e9d8caa31d6213123b14a4c76bb5c88a4e127b453c240fb86d2cf0\n        /* \"verifier.sol\":6862:7189  Pairing.G2Point([uint256(0x1e1f7dbdbf4630b9498e085f64525d6fecee3cd4a37f8c82a92a18202d5c1931), uint256(0x2fef1b63eac92d9c3515555ee86abfdf7d87969dca3499e64abbf758f9372e7d)], [uint256(0x27f19ddb42f0ca17004bd538732a72192c00962a583fc2d58cb6aa917b85fdd8), uint256(0x214d4bb763e9d8caa31d6213123b14a4c76bb5c88a4e127b453c240fb86d2cf0)]) */\n      dup2\n      mstore\n      pop\n      dup2\n      mstore\n      pop\n        /* \"verifier.sol\":6852:6854  vk */\n      dup2\n        /* \"verifier.sol\":6852:6859  vk.beta */\n      0x20\n      add\n        /* \"verifier.sol\":6852:7189  vk.beta = Pairing.G2Point([uint256(0x1e1f7dbdbf4630b9498e085f64525d6fecee3cd4a37f8c82a92a18202d5c1931), uint256(0x2fef1b63eac92d9c3515555ee86abfdf7d87969dca3499e64abbf758f9372e7d)], [uint256(0x27f19ddb42f0ca17004bd538732a72192c00962a583fc2d58cb6aa917b85fdd8), uint256(0x214d4bb763e9d8caa31d6213123b14a4c76bb5c88a4e127b453c240fb86d2cf0)]) */\n      dup2\n      swap1\n      mstore\n      pop\n        /* \"verifier.sol\":7210:7537  Pairing.G2Point([uint256(0x0022040f27a5ace1ac3776910f7d20260f82cff51c6cf11b4b1f3133ab1273d1), uint256(0x22c206afab437ae81ae6fada42bfea522f2f3d5cdbce622e1875b4706fb7e34d)], [uint256(0x210694f9519746dd78135bb19c308ef8c7d054659d5906cfb211a0fef917b341), uint256(0x0bb73031d0074c626c2d2f0e17ca01893413e196d294c6c43276ceef5096d7e3)]) */\n      mload(0x40)\n      dup1\n      0x40\n      add\n      0x40\n      mstore\n      dup1\n      mload(0x40)\n      dup1\n      0x40\n      add\n      0x40\n      mstore\n      dup1\n        /* \"verifier.sol\":7235:7301  0x0022040f27a5ace1ac3776910f7d20260f82cff51c6cf11b4b1f3133ab1273d1 */\n      0x22040f27a5ace1ac3776910f7d20260f82cff51c6cf11b4b1f3133ab1273d1\n        /* \"verifier.sol\":7210:7537  Pairing.G2Point([uint256(0x0022040f27a5ace1ac3776910f7d20260f82cff51c6cf11b4b1f3133ab1273d1), uint256(0x22c206afab437ae81ae6fada42bfea522f2f3d5cdbce622e1875b4706fb7e34d)], [uint256(0x210694f9519746dd78135bb19c308ef8c7d054659d5906cfb211a0fef917b341), uint256(0x0bb73031d0074c626c2d2f0e17ca01893413e196d294c6c43276ceef5096d7e3)]) */\n      dup2\n      mstore\n      0x20\n      add\n        /* \"verifier.sol\":7312:7378  0x22c206afab437ae81ae6fada42bfea522f2f3d5cdbce622e1875b4706fb7e34d */\n      0x22c206afab437ae81ae6fada42bfea522f2f3d5cdbce622e1875b4706fb7e34d\n        /* \"verifier.sol\":7210:7537  Pairing.G2Point([uint256(0x0022040f27a5ace1ac3776910f7d20260f82cff51c6cf11b4b1f3133ab1273d1), uint256(0x22c206afab437ae81ae6fada42bfea522f2f3d5cdbce622e1875b4706fb7e34d)], [uint256(0x210694f9519746dd78135bb19c308ef8c7d054659d5906cfb211a0fef917b341), uint256(0x0bb73031d0074c626c2d2f0e17ca01893413e196d294c6c43276ceef5096d7e3)]) */\n      dup2\n      mstore\n      pop\n      dup2\n      mstore\n      0x20\n      add\n      mload(0x40)\n      dup1\n      0x40\n      add\n      0x40\n      mstore\n      dup1\n        /* \"verifier.sol\":7391:7457  0x210694f9519746dd78135bb19c308ef8c7d054659d5906cfb211a0fef917b341 */\n      0x210694f9519746dd78135bb19c308ef8c7d054659d5906cfb211a0fef917b341\n        /* \"verifier.sol\":7210:7537  Pairing.G2Point([uint256(0x0022040f27a5ace1ac3776910f7d20260f82cff51c6cf11b4b1f3133ab1273d1), uint256(0x22c206afab437ae81ae6fada42bfea522f2f3d5cdbce622e1875b4706fb7e34d)], [uint256(0x210694f9519746dd78135bb19c308ef8c7d054659d5906cfb211a0fef917b341), uint256(0x0bb73031d0074c626c2d2f0e17ca01893413e196d294c6c43276ceef5096d7e3)]) */\n      dup2\n      mstore\n      0x20\n      add\n        /* \"verifier.sol\":7468:7534  0x0bb73031d0074c626c2d2f0e17ca01893413e196d294c6c43276ceef5096d7e3 */\n      0x0bb73031d0074c626c2d2f0e17ca01893413e196d294c6c43276ceef5096d7e3\n        /* \"verifier.sol\":7210:7537  Pairing.G2Point([uint256(0x0022040f27a5ace1ac3776910f7d20260f82cff51c6cf11b4b1f3133ab1273d1), uint256(0x22c206afab437ae81ae6fada42bfea522f2f3d5cdbce622e1875b4706fb7e34d)], [uint256(0x210694f9519746dd78135bb19c308ef8c7d054659d5906cfb211a0fef917b341), uint256(0x0bb73031d0074c626c2d2f0e17ca01893413e196d294c6c43276ceef5096d7e3)]) */\n      dup2\n      mstore\n      pop\n      dup2\n      mstore\n      pop\n        /* \"verifier.sol\":7199:7201  vk */\n      dup2\n        /* \"verifier.sol\":7199:7207  vk.gamma */\n      0x40\n      add\n        /* \"verifier.sol\":7199:7537  vk.gamma = Pairing.G2Point([uint256(0x0022040f27a5ace1ac3776910f7d20260f82cff51c6cf11b4b1f3133ab1273d1), uint256(0x22c206afab437ae81ae6fada42bfea522f2f3d5cdbce622e1875b4706fb7e34d)], [uint256(0x210694f9519746dd78135bb19c308ef8c7d054659d5906cfb211a0fef917b341), uint256(0x0bb73031d0074c626c2d2f0e17ca01893413e196d294c6c43276ceef5096d7e3)]) */\n      dup2\n      swap1\n      mstore\n      pop\n        /* \"verifier.sol\":7558:7885  Pairing.G2Point([uint256(0x200d6cbcc089117801da9a500447c17ef1bc430a5a81766ab0816fa050756de2), uint256(0x0bb17eff836c51714fb2cb777d23b7769773d7e18aa353072f4a2c98fba2ea46)], [uint256(0x1b4b971d983987040cec02c5c22b761a4c2844058ee7afc0cfb0a44b857d6f00), uint256(0x2a7114da21e2424a573332d04ccbf8ace86e134026243d75aef5dedacb73b5ac)]) */\n      mload(0x40)\n      dup1\n      0x40\n      add\n      0x40\n      mstore\n      dup1\n      mload(0x40)\n      dup1\n      0x40\n      add\n      0x40\n      mstore\n      dup1\n        /* \"verifier.sol\":7583:7649  0x200d6cbcc089117801da9a500447c17ef1bc430a5a81766ab0816fa050756de2 */\n      0x200d6cbcc089117801da9a500447c17ef1bc430a5a81766ab0816fa050756de2\n        /* \"verifier.sol\":7558:7885  Pairing.G2Point([uint256(0x200d6cbcc089117801da9a500447c17ef1bc430a5a81766ab0816fa050756de2), uint256(0x0bb17eff836c51714fb2cb777d23b7769773d7e18aa353072f4a2c98fba2ea46)], [uint256(0x1b4b971d983987040cec02c5c22b761a4c2844058ee7afc0cfb0a44b857d6f00), uint256(0x2a7114da21e2424a573332d04ccbf8ace86e134026243d75aef5dedacb73b5ac)]) */\n      dup2\n      mstore\n      0x20\n      add\n        /* \"verifier.sol\":7660:7726  0x0bb17eff836c51714fb2cb777d23b7769773d7e18aa353072f4a2c98fba2ea46 */\n      0x0bb17eff836c51714fb2cb777d23b7769773d7e18aa353072f4a2c98fba2ea46\n        /* \"verifier.sol\":7558:7885  Pairing.G2Point([uint256(0x200d6cbcc089117801da9a500447c17ef1bc430a5a81766ab0816fa050756de2), uint256(0x0bb17eff836c51714fb2cb777d23b7769773d7e18aa353072f4a2c98fba2ea46)], [uint256(0x1b4b971d983987040cec02c5c22b761a4c2844058ee7afc0cfb0a44b857d6f00), uint256(0x2a7114da21e2424a573332d04ccbf8ace86e134026243d75aef5dedacb73b5ac)]) */\n      dup2\n      mstore\n      pop\n      dup2\n      mstore\n      0x20\n      add\n      mload(0x40)\n      dup1\n      0x40\n      add\n      0x40\n      mstore\n      dup1\n        /* \"verifier.sol\":7739:7805  0x1b4b971d983987040cec02c5c22b761a4c2844058ee7afc0cfb0a44b857d6f00 */\n      0x1b4b971d983987040cec02c5c22b761a4c2844058ee7afc0cfb0a44b857d6f00\n        /* \"verifier.sol\":7558:7885  Pairing.G2Point([uint256(0x200d6cbcc089117801da9a500447c17ef1bc430a5a81766ab0816fa050756de2), uint256(0x0bb17eff836c51714fb2cb777d23b7769773d7e18aa353072f4a2c98fba2ea46)], [uint256(0x1b4b971d983987040cec02c5c22b761a4c2844058ee7afc0cfb0a44b857d6f00), uint256(0x2a7114da21e2424a573332d04ccbf8ace86e134026243d75aef5dedacb73b5ac)]) */\n      dup2\n      mstore\n      0x20\n      add\n        /* \"verifier.sol\":7816:7882  0x2a7114da21e2424a573332d04ccbf8ace86e134026243d75aef5dedacb73b5ac */\n      0x2a7114da21e2424a573332d04ccbf8ace86e134026243d75aef5dedacb73b5ac\n        /* \"verifier.sol\":7558:7885  Pairing.G2Point([uint256(0x200d6cbcc089117801da9a500447c17ef1bc430a5a81766ab0816fa050756de2), uint256(0x0bb17eff836c51714fb2cb777d23b7769773d7e18aa353072f4a2c98fba2ea46)], [uint256(0x1b4b971d983987040cec02c5c22b761a4c2844058ee7afc0cfb0a44b857d6f00), uint256(0x2a7114da21e2424a573332d04ccbf8ace86e134026243d75aef5dedacb73b5ac)]) */\n      dup2\n      mstore\n      pop\n      dup2\n      mstore\n      pop\n        /* \"verifier.sol\":7547:7549  vk */\n      dup2\n        /* \"verifier.sol\":7547:7555  vk.delta */\n      0x60\n      add\n        /* \"verifier.sol\":7547:7885  vk.delta = Pairing.G2Point([uint256(0x200d6cbcc089117801da9a500447c17ef1bc430a5a81766ab0816fa050756de2), uint256(0x0bb17eff836c51714fb2cb777d23b7769773d7e18aa353072f4a2c98fba2ea46)], [uint256(0x1b4b971d983987040cec02c5c22b761a4c2844058ee7afc0cfb0a44b857d6f00), uint256(0x2a7114da21e2424a573332d04ccbf8ace86e134026243d75aef5dedacb73b5ac)]) */\n      dup2\n      swap1\n      mstore\n      pop\n        /* \"verifier.sol\":7932:7933  4 */\n      0x04\n        /* \"verifier.sol\":7910:7934  new Pairing.G1Point[](4) */\n      0xffffffffffffffff\n      dup2\n      gt\n      iszero\n      tag_64\n      jumpi\n      tag_65\n      tag_13\n      jump\t// in\n    tag_65:\n    tag_64:\n      mload(0x40)\n      swap1\n      dup1\n      dup3\n      mstore\n      dup1\n      0x20\n      mul\n      0x20\n      add\n      dup3\n      add\n      0x40\n      mstore\n      dup1\n      iszero\n      tag_66\n      jumpi\n      dup2\n      0x20\n      add\n    tag_67:\n      tag_68\n      tag_69\n      jump\t// in\n    tag_68:\n      dup2\n      mstore\n      0x20\n      add\n      swap1\n      0x01\n      swap1\n      sub\n      swap1\n      dup2\n      tag_67\n      jumpi\n      swap1\n      pop\n    tag_66:\n      pop\n        /* \"verifier.sol\":7895:7897  vk */\n      dup2\n        /* \"verifier.sol\":7895:7907  vk.gamma_abc */\n      0x80\n      add\n        /* \"verifier.sol\":7895:7934  vk.gamma_abc = new Pairing.G1Point[](4) */\n      dup2\n      swap1\n      mstore\n      pop\n        /* \"verifier.sol\":7962:8131  Pairing.G1Point(uint256(0x131abffde572e05e838b33ca81b605fe1cbe9a300ed2e757b2812174e09c6ac9), uint256(0x2478c6c267f9f4f8f173c958ae6614428c59ab0668a4a0fb5f78b83076c291ce)) */\n      mload(0x40)\n      dup1\n      0x40\n      add\n      0x40\n      mstore\n      dup1\n        /* \"verifier.sol\":7986:8052  0x131abffde572e05e838b33ca81b605fe1cbe9a300ed2e757b2812174e09c6ac9 */\n      0x131abffde572e05e838b33ca81b605fe1cbe9a300ed2e757b2812174e09c6ac9\n        /* \"verifier.sol\":7962:8131  Pairing.G1Point(uint256(0x131abffde572e05e838b33ca81b605fe1cbe9a300ed2e757b2812174e09c6ac9), uint256(0x2478c6c267f9f4f8f173c958ae6614428c59ab0668a4a0fb5f78b83076c291ce)) */\n      dup2\n      mstore\n      0x20\n      add\n        /* \"verifier.sol\":8063:8129  0x2478c6c267f9f4f8f173c958ae6614428c59ab0668a4a0fb5f78b83076c291ce */\n      0x2478c6c267f9f4f8f173c958ae6614428c59ab0668a4a0fb5f78b83076c291ce\n        /* \"verifier.sol\":7962:8131  Pairing.G1Point(uint256(0x131abffde572e05e838b33ca81b605fe1cbe9a300ed2e757b2812174e09c6ac9), uint256(0x2478c6c267f9f4f8f173c958ae6614428c59ab0668a4a0fb5f78b83076c291ce)) */\n      dup2\n      mstore\n      pop\n        /* \"verifier.sol\":7944:7946  vk */\n      dup2\n        /* \"verifier.sol\":7944:7956  vk.gamma_abc */\n      0x80\n      add\n      mload\n        /* \"verifier.sol\":7957:7958  0 */\n      0x00\n        /* \"verifier.sol\":7944:7959  vk.gamma_abc[0] */\n      dup2\n      mload\n      dup2\n      lt\n      tag_70\n      jumpi\n      tag_71\n      tag_20\n      jump\t// in\n    tag_71:\n    tag_70:\n      0x20\n      mul\n      0x20\n      add\n      add\n        /* \"verifier.sol\":7944:8131  vk.gamma_abc[0] = Pairing.G1Point(uint256(0x131abffde572e05e838b33ca81b605fe1cbe9a300ed2e757b2812174e09c6ac9), uint256(0x2478c6c267f9f4f8f173c958ae6614428c59ab0668a4a0fb5f78b83076c291ce)) */\n      dup2\n      swap1\n      mstore\n      pop\n        /* \"verifier.sol\":8159:8328  Pairing.G1Point(uint256(0x175cfc5d831aa3b5a34eae61ed7af6f1ab933cbcf68c4996e67e01c0a0e1b5be), uint256(0x24b32c892e1c1883c97b6001f6db1c8ac8375444d066aecf4691be3835218f70)) */\n      mload(0x40)\n      dup1\n      0x40\n      add\n      0x40\n      mstore\n      dup1\n        /* \"verifier.sol\":8183:8249  0x175cfc5d831aa3b5a34eae61ed7af6f1ab933cbcf68c4996e67e01c0a0e1b5be */\n      0x175cfc5d831aa3b5a34eae61ed7af6f1ab933cbcf68c4996e67e01c0a0e1b5be\n        /* \"verifier.sol\":8159:8328  Pairing.G1Point(uint256(0x175cfc5d831aa3b5a34eae61ed7af6f1ab933cbcf68c4996e67e01c0a0e1b5be), uint256(0x24b32c892e1c1883c97b6001f6db1c8ac8375444d066aecf4691be3835218f70)) */\n      dup2\n      mstore\n      0x20\n      add\n        /* \"verifier.sol\":8260:8326  0x24b32c892e1c1883c97b6001f6db1c8ac8375444d066aecf4691be3835218f70 */\n      0x24b32c892e1c1883c97b6001f6db1c8ac8375444d066aecf4691be3835218f70\n        /* \"verifier.sol\":8159:8328  Pairing.G1Point(uint256(0x175cfc5d831aa3b5a34eae61ed7af6f1ab933cbcf68c4996e67e01c0a0e1b5be), uint256(0x24b32c892e1c1883c97b6001f6db1c8ac8375444d066aecf4691be3835218f70)) */\n      dup2\n      mstore\n      pop\n        /* \"verifier.sol\":8141:8143  vk */\n      dup2\n        /* \"verifier.sol\":8141:8153  vk.gamma_abc */\n      0x80\n      add\n      mload\n        /* \"verifier.sol\":8154:8155  1 */\n      0x01\n        /* \"verifier.sol\":8141:8156  vk.gamma_abc[1] */\n      dup2\n      mload\n      dup2\n      lt\n      tag_72\n      jumpi\n      tag_73\n      tag_20\n      jump\t// in\n    tag_73:\n    tag_72:\n      0x20\n      mul\n      0x20\n      add\n      add\n        /* \"verifier.sol\":8141:8328  vk.gamma_abc[1] = Pairing.G1Point(uint256(0x175cfc5d831aa3b5a34eae61ed7af6f1ab933cbcf68c4996e67e01c0a0e1b5be), uint256(0x24b32c892e1c1883c97b6001f6db1c8ac8375444d066aecf4691be3835218f70)) */\n      dup2\n      swap1\n      mstore\n      pop\n        /* \"verifier.sol\":8356:8525  Pairing.G1Point(uint256(0x1975aee5672d2f05d8080d76dd24c7a8397505c369d0eb864ffa1d26f901bf9b), uint256(0x046bb0d9c23b1ecce914a6fb0e064bc34e4aa5cea6d2684e8d2b1a85e6b556f5)) */\n      mload(0x40)\n      dup1\n      0x40\n      add\n      0x40\n      mstore\n      dup1\n        /* \"verifier.sol\":8380:8446  0x1975aee5672d2f05d8080d76dd24c7a8397505c369d0eb864ffa1d26f901bf9b */\n      0x1975aee5672d2f05d8080d76dd24c7a8397505c369d0eb864ffa1d26f901bf9b\n        /* \"verifier.sol\":8356:8525  Pairing.G1Point(uint256(0x1975aee5672d2f05d8080d76dd24c7a8397505c369d0eb864ffa1d26f901bf9b), uint256(0x046bb0d9c23b1ecce914a6fb0e064bc34e4aa5cea6d2684e8d2b1a85e6b556f5)) */\n      dup2\n      mstore\n      0x20\n      add\n        /* \"verifier.sol\":8457:8523  0x046bb0d9c23b1ecce914a6fb0e064bc34e4aa5cea6d2684e8d2b1a85e6b556f5 */\n      0x046bb0d9c23b1ecce914a6fb0e064bc34e4aa5cea6d2684e8d2b1a85e6b556f5\n        /* \"verifier.sol\":8356:8525  Pairing.G1Point(uint256(0x1975aee5672d2f05d8080d76dd24c7a8397505c369d0eb864ffa1d26f901bf9b), uint256(0x046bb0d9c23b1ecce914a6fb0e064bc34e4aa5cea6d2684e8d2b1a85e6b556f5)) */\n      dup2\n      mstore\n      pop\n        /* \"verifier.sol\":8338:8340  vk */\n      dup2\n        /* \"verifier.sol\":8338:8350  vk.gamma_abc */\n      0x80\n      add\n      mload\n        /* \"verifier.sol\":8351:8352  2 */\n      0x02\n        /* \"verifier.sol\":8338:8353  vk.gamma_abc[2] */\n      dup2\n      mload\n      dup2\n      lt\n      tag_74\n      jumpi\n      tag_75\n      tag_20\n      jump\t// in\n    tag_75:\n    tag_74:\n      0x20\n      mul\n      0x20\n      add\n      add\n        /* \"verifier.sol\":8338:8525  vk.gamma_abc[2] = Pairing.G1Point(uint256(0x1975aee5672d2f05d8080d76dd24c7a8397505c369d0eb864ffa1d26f901bf9b), uint256(0x046bb0d9c23b1ecce914a6fb0e064bc34e4aa5cea6d2684e8d2b1a85e6b556f5)) */\n      dup2\n      swap1\n      mstore\n      pop\n        /* \"verifier.sol\":8553:8722  Pairing.G1Point(uint256(0x1387ba48dc4a432ac3d308da034c6f3dc7879acfa502dbd3d90ac5ef4f73cd66), uint256(0x2c07f572bbc963fc196203b9683ceb6d0a11c21480b17368bb28c66b6b9c668f)) */\n      mload(0x40)\n      dup1\n      0x40\n      add\n      0x40\n      mstore\n      dup1\n        /* \"verifier.sol\":8577:8643  0x1387ba48dc4a432ac3d308da034c6f3dc7879acfa502dbd3d90ac5ef4f73cd66 */\n      0x1387ba48dc4a432ac3d308da034c6f3dc7879acfa502dbd3d90ac5ef4f73cd66\n        /* \"verifier.sol\":8553:8722  Pairing.G1Point(uint256(0x1387ba48dc4a432ac3d308da034c6f3dc7879acfa502dbd3d90ac5ef4f73cd66), uint256(0x2c07f572bbc963fc196203b9683ceb6d0a11c21480b17368bb28c66b6b9c668f)) */\n      dup2\n      mstore\n      0x20\n      add\n        /* \"verifier.sol\":8654:8720  0x2c07f572bbc963fc196203b9683ceb6d0a11c21480b17368bb28c66b6b9c668f */\n      0x2c07f572bbc963fc196203b9683ceb6d0a11c21480b17368bb28c66b6b9c668f\n        /* \"verifier.sol\":8553:8722  Pairing.G1Point(uint256(0x1387ba48dc4a432ac3d308da034c6f3dc7879acfa502dbd3d90ac5ef4f73cd66), uint256(0x2c07f572bbc963fc196203b9683ceb6d0a11c21480b17368bb28c66b6b9c668f)) */\n      dup2\n      mstore\n      pop\n        /* \"verifier.sol\":8535:8537  vk */\n      dup2\n        /* \"verifier.sol\":8535:8547  vk.gamma_abc */\n      0x80\n      add\n      mload\n        /* \"verifier.sol\":8548:8549  3 */\n      0x03\n        /* \"verifier.sol\":8535:8550  vk.gamma_abc[3] */\n      dup2\n      mload\n      dup2\n      lt\n      tag_76\n      jumpi\n      tag_77\n      tag_20\n      jump\t// in\n    tag_77:\n    tag_76:\n      0x20\n      mul\n      0x20\n      add\n      add\n        /* \"verifier.sol\":8535:8722  vk.gamma_abc[3] = Pairing.G1Point(uint256(0x1387ba48dc4a432ac3d308da034c6f3dc7879acfa502dbd3d90ac5ef4f73cd66), uint256(0x2c07f572bbc963fc196203b9683ceb6d0a11c21480b17368bb28c66b6b9c668f)) */\n      dup2\n      swap1\n      mstore\n      pop\n        /* \"verifier.sol\":6581:8729  function verifyingKey() pure internal returns (VerifyingKey memory vk) {... */\n      swap1\n      jump\t// out\n        /* \"verifier.sol\":3082:3536  function scalar_mul(G1Point memory p, uint s) internal view returns (G1Point memory r) {... */\n    tag_48:\n        /* \"verifier.sol\":3151:3167  G1Point memory r */\n      tag_78\n      tag_69\n      jump\t// in\n    tag_78:\n        /* \"verifier.sol\":3179:3199  uint[3] memory input */\n      tag_80\n      tag_81\n      jump\t// in\n    tag_80:\n        /* \"verifier.sol\":3220:3221  p */\n      dup4\n        /* \"verifier.sol\":3220:3223  p.X */\n      0x00\n      add\n      mload\n        /* \"verifier.sol\":3209:3214  input */\n      dup2\n        /* \"verifier.sol\":3215:3216  0 */\n      0x00\n        /* \"verifier.sol\":3209:3217  input[0] */\n      0x03\n      dup2\n      lt\n      tag_82\n      jumpi\n      tag_83\n      tag_20\n      jump\t// in\n    tag_83:\n    tag_82:\n      0x20\n      mul\n      add\n        /* \"verifier.sol\":3209:3223  input[0] = p.X */\n      dup2\n      dup2\n      mstore\n      pop\n      pop\n        /* \"verifier.sol\":3244:3245  p */\n      dup4\n        /* \"verifier.sol\":3244:3247  p.Y */\n      0x20\n      add\n      mload\n        /* \"verifier.sol\":3233:3238  input */\n      dup2\n        /* \"verifier.sol\":3239:3240  1 */\n      0x01\n        /* \"verifier.sol\":3233:3241  input[1] */\n      0x03\n      dup2\n      lt\n      tag_84\n      jumpi\n      tag_85\n      tag_20\n      jump\t// in\n    tag_85:\n    tag_84:\n      0x20\n      mul\n      add\n        /* \"verifier.sol\":3233:3247  input[1] = p.Y */\n      dup2\n      dup2\n      mstore\n      pop\n      pop\n        /* \"verifier.sol\":3268:3269  s */\n      dup3\n        /* \"verifier.sol\":3257:3262  input */\n      dup2\n        /* \"verifier.sol\":3263:3264  2 */\n      0x02\n        /* \"verifier.sol\":3257:3265  input[2] */\n      0x03\n      dup2\n      lt\n      tag_86\n      jumpi\n      tag_87\n      tag_20\n      jump\t// in\n    tag_87:\n    tag_86:\n      0x20\n      mul\n      add\n        /* \"verifier.sol\":3257:3269  input[2] = s */\n      dup2\n      dup2\n      mstore\n      pop\n      pop\n        /* \"verifier.sol\":3279:3291  bool success */\n      0x00\n        /* \"verifier.sol\":3383:3387  0x60 */\n      0x60\n        /* \"verifier.sol\":3380:3381  r */\n      dup4\n        /* \"verifier.sol\":3374:3378  0x80 */\n      0x80\n        /* \"verifier.sol\":3367:3372  input */\n      dup5\n        /* \"verifier.sol\":3364:3365  7 */\n      0x07\n        /* \"verifier.sol\":3357:3361  2000 */\n      0x07d0\n        /* \"verifier.sol\":3350:3355  gas() */\n      gas\n        /* \"verifier.sol\":3346:3362  sub(gas(), 2000) */\n      sub\n        /* \"verifier.sol\":3335:3388  staticcall(sub(gas(), 2000), 7, input, 0x80, r, 0x60) */\n      staticcall\n        /* \"verifier.sol\":3324:3388  success := staticcall(sub(gas(), 2000), 7, input, 0x80, r, 0x60) */\n      swap1\n      pop\n        /* \"verifier.sol\":3465:3472  success */\n      dup1\n        /* \"verifier.sol\":3478:3479  0 */\n      0x00\n        /* \"verifier.sol\":3473:3493  case 0 { invalid() } */\n      dup2\n      sub\n        /* \"verifier.sol\":3458:3493  switch success case 0 { invalid() } */\n      tag_88\n        /* \"verifier.sol\":3473:3493  case 0 { invalid() } */\n      jumpi\n        /* \"verifier.sol\":3482:3491  invalid() */\n      invalid\n        /* \"verifier.sol\":3458:3493  switch success case 0 { invalid() } */\n    tag_88:\n      pop\n        /* \"verifier.sol\":3521:3528  success */\n      dup1\n        /* \"verifier.sol\":3512:3529  require (success) */\n      tag_90\n      jumpi\n      0x00\n      dup1\n      revert\n    tag_90:\n        /* \"verifier.sol\":3169:3536  {... */\n      pop\n      pop\n        /* \"verifier.sol\":3082:3536  function scalar_mul(G1Point memory p, uint s) internal view returns (G1Point memory r) {... */\n      swap3\n      swap2\n      pop\n      pop\n      jump\t// out\n        /* \"verifier.sol\":2432:2925  function addition(G1Point memory p1, G1Point memory p2) internal view returns (G1Point memory r) {... */\n    tag_49:\n        /* \"verifier.sol\":2511:2527  G1Point memory r */\n      tag_91\n      tag_69\n      jump\t// in\n    tag_91:\n        /* \"verifier.sol\":2539:2559  uint[4] memory input */\n      tag_93\n      tag_94\n      jump\t// in\n    tag_93:\n        /* \"verifier.sol\":2580:2582  p1 */\n      dup4\n        /* \"verifier.sol\":2580:2584  p1.X */\n      0x00\n      add\n      mload\n        /* \"verifier.sol\":2569:2574  input */\n      dup2\n        /* \"verifier.sol\":2575:2576  0 */\n      0x00\n        /* \"verifier.sol\":2569:2577  input[0] */\n      0x04\n      dup2\n      lt\n      tag_95\n      jumpi\n      tag_96\n      tag_20\n      jump\t// in\n    tag_96:\n    tag_95:\n      0x20\n      mul\n      add\n        /* \"verifier.sol\":2569:2584  input[0] = p1.X */\n      dup2\n      dup2\n      mstore\n      pop\n      pop\n        /* \"verifier.sol\":2605:2607  p1 */\n      dup4\n        /* \"verifier.sol\":2605:2609  p1.Y */\n      0x20\n      add\n      mload\n        /* \"verifier.sol\":2594:2599  input */\n      dup2\n        /* \"verifier.sol\":2600:2601  1 */\n      0x01\n        /* \"verifier.sol\":2594:2602  input[1] */\n      0x04\n      dup2\n      lt\n      tag_97\n      jumpi\n      tag_98\n      tag_20\n      jump\t// in\n    tag_98:\n    tag_97:\n      0x20\n      mul\n      add\n        /* \"verifier.sol\":2594:2609  input[1] = p1.Y */\n      dup2\n      dup2\n      mstore\n      pop\n      pop\n        /* \"verifier.sol\":2630:2632  p2 */\n      dup3\n        /* \"verifier.sol\":2630:2634  p2.X */\n      0x00\n      add\n      mload\n        /* \"verifier.sol\":2619:2624  input */\n      dup2\n        /* \"verifier.sol\":2625:2626  2 */\n      0x02\n        /* \"verifier.sol\":2619:2627  input[2] */\n      0x04\n      dup2\n      lt\n      tag_99\n      jumpi\n      tag_100\n      tag_20\n      jump\t// in\n    tag_100:\n    tag_99:\n      0x20\n      mul\n      add\n        /* \"verifier.sol\":2619:2634  input[2] = p2.X */\n      dup2\n      dup2\n      mstore\n      pop\n      pop\n        /* \"verifier.sol\":2655:2657  p2 */\n      dup3\n        /* \"verifier.sol\":2655:2659  p2.Y */\n      0x20\n      add\n      mload\n        /* \"verifier.sol\":2644:2649  input */\n      dup2\n        /* \"verifier.sol\":2650:2651  3 */\n      0x03\n        /* \"verifier.sol\":2644:2652  input[3] */\n      0x04\n      dup2\n      lt\n      tag_101\n      jumpi\n      tag_102\n      tag_20\n      jump\t// in\n    tag_102:\n    tag_101:\n      0x20\n      mul\n      add\n        /* \"verifier.sol\":2644:2659  input[3] = p2.Y */\n      dup2\n      dup2\n      mstore\n      pop\n      pop\n        /* \"verifier.sol\":2669:2681  bool success */\n      0x00\n        /* \"verifier.sol\":2773:2777  0x60 */\n      0x60\n        /* \"verifier.sol\":2770:2771  r */\n      dup4\n        /* \"verifier.sol\":2764:2768  0xc0 */\n      0xc0\n        /* \"verifier.sol\":2757:2762  input */\n      dup5\n        /* \"verifier.sol\":2754:2755  6 */\n      0x06\n        /* \"verifier.sol\":2747:2751  2000 */\n      0x07d0\n        /* \"verifier.sol\":2740:2745  gas() */\n      gas\n        /* \"verifier.sol\":2736:2752  sub(gas(), 2000) */\n      sub\n        /* \"verifier.sol\":2725:2778  staticcall(sub(gas(), 2000), 6, input, 0xc0, r, 0x60) */\n      staticcall\n        /* \"verifier.sol\":2714:2778  success := staticcall(sub(gas(), 2000), 6, input, 0xc0, r, 0x60) */\n      swap1\n      pop\n        /* \"verifier.sol\":2855:2862  success */\n      dup1\n        /* \"verifier.sol\":2868:2869  0 */\n      0x00\n        /* \"verifier.sol\":2863:2883  case 0 { invalid() } */\n      dup2\n      sub\n        /* \"verifier.sol\":2848:2883  switch success case 0 { invalid() } */\n      tag_103\n        /* \"verifier.sol\":2863:2883  case 0 { invalid() } */\n      jumpi\n        /* \"verifier.sol\":2872:2881  invalid() */\n      invalid\n        /* \"verifier.sol\":2848:2883  switch success case 0 { invalid() } */\n    tag_103:\n      pop\n        /* \"verifier.sol\":2910:2917  success */\n      dup1\n        /* \"verifier.sol\":2902:2918  require(success) */\n      tag_105\n      jumpi\n      0x00\n      dup1\n      revert\n    tag_105:\n        /* \"verifier.sol\":2529:2925  {... */\n      pop\n      pop\n        /* \"verifier.sol\":2432:2925  function addition(G1Point memory p1, G1Point memory p2) internal view returns (G1Point memory r) {... */\n      swap3\n      swap2\n      pop\n      pop\n      jump\t// out\n        /* \"verifier.sol\":2041:2381  function negate(G1Point memory p) pure internal returns (G1Point memory) {... */\n    tag_56:\n        /* \"verifier.sol\":2098:2112  G1Point memory */\n      tag_106\n      tag_69\n      jump\t// in\n    tag_106:\n        /* \"verifier.sol\":2176:2182  uint q */\n      0x00\n        /* \"verifier.sol\":2185:2262  21888242871839275222246405745257275088696311157297823662689037894645226208583 */\n      0x30644e72e131a029b85045b68181585d97816a916871ca8d3c208c16d87cfd47\n        /* \"verifier.sol\":2176:2262  uint q = 21888242871839275222246405745257275088696311157297823662689037894645226208583 */\n      swap1\n      pop\n        /* \"verifier.sol\":2283:2284  0 */\n      0x00\n        /* \"verifier.sol\":2276:2277  p */\n      dup4\n        /* \"verifier.sol\":2276:2279  p.X */\n      0x00\n      add\n      mload\n        /* \"verifier.sol\":2276:2284  p.X == 0 */\n      eq\n        /* \"verifier.sol\":2276:2296  p.X == 0 && p.Y == 0 */\n      dup1\n      iszero\n      tag_108\n      jumpi\n      pop\n        /* \"verifier.sol\":2295:2296  0 */\n      0x00\n        /* \"verifier.sol\":2288:2289  p */\n      dup4\n        /* \"verifier.sol\":2288:2291  p.Y */\n      0x20\n      add\n      mload\n        /* \"verifier.sol\":2288:2296  p.Y == 0 */\n      eq\n        /* \"verifier.sol\":2276:2296  p.X == 0 && p.Y == 0 */\n    tag_108:\n        /* \"verifier.sol\":2272:2330  if (p.X == 0 && p.Y == 0)... */\n      iszero\n      tag_109\n      jumpi\n        /* \"verifier.sol\":2317:2330  G1Point(0, 0) */\n      mload(0x40)\n      dup1\n      0x40\n      add\n      0x40\n      mstore\n      dup1\n        /* \"verifier.sol\":2325:2326  0 */\n      0x00\n        /* \"verifier.sol\":2317:2330  G1Point(0, 0) */\n      dup2\n      mstore\n      0x20\n      add\n        /* \"verifier.sol\":2328:2329  0 */\n      0x00\n        /* \"verifier.sol\":2317:2330  G1Point(0, 0) */\n      dup2\n      mstore\n      pop\n        /* \"verifier.sol\":2310:2330  return G1Point(0, 0) */\n      swap2\n      pop\n      pop\n      jump(tag_107)\n        /* \"verifier.sol\":2272:2330  if (p.X == 0 && p.Y == 0)... */\n    tag_109:\n        /* \"verifier.sol\":2347:2374  G1Point(p.X, q - (p.Y % q)) */\n      mload(0x40)\n      dup1\n      0x40\n      add\n      0x40\n      mstore\n      dup1\n        /* \"verifier.sol\":2355:2356  p */\n      dup5\n        /* \"verifier.sol\":2355:2358  p.X */\n      0x00\n      add\n      mload\n        /* \"verifier.sol\":2347:2374  G1Point(p.X, q - (p.Y % q)) */\n      dup2\n      mstore\n      0x20\n      add\n        /* \"verifier.sol\":2371:2372  q */\n      dup3\n        /* \"verifier.sol\":2365:2366  p */\n      dup6\n        /* \"verifier.sol\":2365:2368  p.Y */\n      0x20\n      add\n      mload\n        /* \"verifier.sol\":2365:2372  p.Y % q */\n      tag_110\n      swap2\n      swap1\n      tag_111\n      jump\t// in\n    tag_110:\n        /* \"verifier.sol\":2360:2361  q */\n      dup4\n        /* \"verifier.sol\":2360:2373  q - (p.Y % q) */\n      tag_112\n      swap2\n      swap1\n      tag_113\n      jump\t// in\n    tag_112:\n        /* \"verifier.sol\":2347:2374  G1Point(p.X, q - (p.Y % q)) */\n      dup2\n      mstore\n      pop\n        /* \"verifier.sol\":2340:2374  return G1Point(p.X, q - (p.Y % q)) */\n      swap2\n      pop\n      pop\n        /* \"verifier.sol\":2041:2381  function negate(G1Point memory p) pure internal returns (G1Point memory) {... */\n    tag_107:\n      swap2\n      swap1\n      pop\n      jump\t// out\n        /* \"verifier.sol\":5678:6230  function pairingProd4(... */\n    tag_59:\n        /* \"verifier.sol\":5929:5933  bool */\n      0x00\n        /* \"verifier.sol\":5945:5964  G1Point[] memory p1 */\n      dup1\n        /* \"verifier.sol\":5981:5982  4 */\n      0x04\n        /* \"verifier.sol\":5967:5983  new G1Point[](4) */\n      0xffffffffffffffff\n      dup2\n      gt\n      iszero\n      tag_115\n      jumpi\n      tag_116\n      tag_13\n      jump\t// in\n    tag_116:\n    tag_115:\n      mload(0x40)\n      swap1\n      dup1\n      dup3\n      mstore\n      dup1\n      0x20\n      mul\n      0x20\n      add\n      dup3\n      add\n      0x40\n      mstore\n      dup1\n      iszero\n      tag_117\n      jumpi\n      dup2\n      0x20\n      add\n    tag_118:\n      tag_119\n      tag_69\n      jump\t// in\n    tag_119:\n      dup2\n      mstore\n      0x20\n      add\n      swap1\n      0x01\n      swap1\n      sub\n      swap1\n      dup2\n      tag_118\n      jumpi\n      swap1\n      pop\n    tag_117:\n      pop\n        /* \"verifier.sol\":5945:5983  G1Point[] memory p1 = new G1Point[](4) */\n      swap1\n      pop\n        /* \"verifier.sol\":5993:6012  G2Point[] memory p2 */\n      0x00\n        /* \"verifier.sol\":6029:6030  4 */\n      0x04\n        /* \"verifier.sol\":6015:6031  new G2Point[](4) */\n      0xffffffffffffffff\n      dup2\n      gt\n      iszero\n      tag_120\n      jumpi\n      tag_121\n      tag_13\n      jump\t// in\n    tag_121:\n    tag_120:\n      mload(0x40)\n      swap1\n      dup1\n      dup3\n      mstore\n      dup1\n      0x20\n      mul\n      0x20\n      add\n      dup3\n      add\n      0x40\n      mstore\n      dup1\n      iszero\n      tag_122\n      jumpi\n      dup2\n      0x20\n      add\n    tag_123:\n      tag_124\n      tag_125\n      jump\t// in\n    tag_124:\n      dup2\n      mstore\n      0x20\n      add\n      swap1\n      0x01\n      swap1\n      sub\n      swap1\n      dup2\n      tag_123\n      jumpi\n      swap1\n      pop\n    tag_122:\n      pop\n        /* \"verifier.sol\":5993:6031  G2Point[] memory p2 = new G2Point[](4) */\n      swap1\n      pop\n        /* \"verifier.sol\":6049:6051  a1 */\n      dup11\n        /* \"verifier.sol\":6041:6043  p1 */\n      dup3\n        /* \"verifier.sol\":6044:6045  0 */\n      0x00\n        /* \"verifier.sol\":6041:6046  p1[0] */\n      dup2\n      mload\n      dup2\n      lt\n      tag_126\n      jumpi\n      tag_127\n      tag_20\n      jump\t// in\n    tag_127:\n    tag_126:\n      0x20\n      mul\n      0x20\n      add\n      add\n        /* \"verifier.sol\":6041:6051  p1[0] = a1 */\n      dup2\n      swap1\n      mstore\n      pop\n        /* \"verifier.sol\":6069:6071  b1 */\n      dup9\n        /* \"verifier.sol\":6061:6063  p1 */\n      dup3\n        /* \"verifier.sol\":6064:6065  1 */\n      0x01\n        /* \"verifier.sol\":6061:6066  p1[1] */\n      dup2\n      mload\n      dup2\n      lt\n      tag_128\n      jumpi\n      tag_129\n      tag_20\n      jump\t// in\n    tag_129:\n    tag_128:\n      0x20\n      mul\n      0x20\n      add\n      add\n        /* \"verifier.sol\":6061:6071  p1[1] = b1 */\n      dup2\n      swap1\n      mstore\n      pop\n        /* \"verifier.sol\":6089:6091  c1 */\n      dup7\n        /* \"verifier.sol\":6081:6083  p1 */\n      dup3\n        /* \"verifier.sol\":6084:6085  2 */\n      0x02\n        /* \"verifier.sol\":6081:6086  p1[2] */\n      dup2\n      mload\n      dup2\n      lt\n      tag_130\n      jumpi\n      tag_131\n      tag_20\n      jump\t// in\n    tag_131:\n    tag_130:\n      0x20\n      mul\n      0x20\n      add\n      add\n        /* \"verifier.sol\":6081:6091  p1[2] = c1 */\n      dup2\n      swap1\n      mstore\n      pop\n        /* \"verifier.sol\":6109:6111  d1 */\n      dup5\n        /* \"verifier.sol\":6101:6103  p1 */\n      dup3\n        /* \"verifier.sol\":6104:6105  3 */\n      0x03\n        /* \"verifier.sol\":6101:6106  p1[3] */\n      dup2\n      mload\n      dup2\n      lt\n      tag_132\n      jumpi\n      tag_133\n      tag_20\n      jump\t// in\n    tag_133:\n    tag_132:\n      0x20\n      mul\n      0x20\n      add\n      add\n        /* \"verifier.sol\":6101:6111  p1[3] = d1 */\n      dup2\n      swap1\n      mstore\n      pop\n        /* \"verifier.sol\":6129:6131  a2 */\n      dup10\n        /* \"verifier.sol\":6121:6123  p2 */\n      dup2\n        /* \"verifier.sol\":6124:6125  0 */\n      0x00\n        /* \"verifier.sol\":6121:6126  p2[0] */\n      dup2\n      mload\n      dup2\n      lt\n      tag_134\n      jumpi\n      tag_135\n      tag_20\n      jump\t// in\n    tag_135:\n    tag_134:\n      0x20\n      mul\n      0x20\n      add\n      add\n        /* \"verifier.sol\":6121:6131  p2[0] = a2 */\n      dup2\n      swap1\n      mstore\n      pop\n        /* \"verifier.sol\":6149:6151  b2 */\n      dup8\n        /* \"verifier.sol\":6141:6143  p2 */\n      dup2\n        /* \"verifier.sol\":6144:6145  1 */\n      0x01\n        /* \"verifier.sol\":6141:6146  p2[1] */\n      dup2\n      mload\n      dup2\n      lt\n      tag_136\n      jumpi\n      tag_137\n      tag_20\n      jump\t// in\n    tag_137:\n    tag_136:\n      0x20\n      mul\n      0x20\n      add\n      add\n        /* \"verifier.sol\":6141:6151  p2[1] = b2 */\n      dup2\n      swap1\n      mstore\n      pop\n        /* \"verifier.sol\":6169:6171  c2 */\n      dup6\n        /* \"verifier.sol\":6161:6163  p2 */\n      dup2\n        /* \"verifier.sol\":6164:6165  2 */\n      0x02\n        /* \"verifier.sol\":6161:6166  p2[2] */\n      dup2\n      mload\n      dup2\n      lt\n      tag_138\n      jumpi\n      tag_139\n      tag_20\n      jump\t// in\n    tag_139:\n    tag_138:\n      0x20\n      mul\n      0x20\n      add\n      add\n        /* \"verifier.sol\":6161:6171  p2[2] = c2 */\n      dup2\n      swap1\n      mstore\n      pop\n        /* \"verifier.sol\":6189:6191  d2 */\n      dup4\n        /* \"verifier.sol\":6181:6183  p2 */\n      dup2\n        /* \"verifier.sol\":6184:6185  3 */\n      0x03\n        /* \"verifier.sol\":6181:6186  p2[3] */\n      dup2\n      mload\n      dup2\n      lt\n      tag_140\n      jumpi\n      tag_141\n      tag_20\n      jump\t// in\n    tag_141:\n    tag_140:\n      0x20\n      mul\n      0x20\n      add\n      add\n        /* \"verifier.sol\":6181:6191  p2[3] = d2 */\n      dup2\n      swap1\n      mstore\n      pop\n        /* \"verifier.sol\":6208:6223  pairing(p1, p2) */\n      tag_142\n        /* \"verifier.sol\":6216:6218  p1 */\n      dup3\n        /* \"verifier.sol\":6220:6222  p2 */\n      dup3\n        /* \"verifier.sol\":6208:6215  pairing */\n      tag_143\n        /* \"verifier.sol\":6208:6223  pairing(p1, p2) */\n      jump\t// in\n    tag_142:\n        /* \"verifier.sol\":6201:6223  return pairing(p1, p2) */\n      swap3\n      pop\n      pop\n      pop\n        /* \"verifier.sol\":5678:6230  function pairingProd4(... */\n      swap9\n      swap8\n      pop\n      pop\n      pop\n      pop\n      pop\n      pop\n      pop\n      pop\n      jump\t// out\n        /* \"verifier.sol\":3747:4670  function pairing(G1Point[] memory p1, G2Point[] memory p2) internal view returns (bool) {... */\n    tag_143:\n        /* \"verifier.sol\":3829:3833  bool */\n      0x00\n        /* \"verifier.sol\":3866:3868  p2 */\n      dup2\n        /* \"verifier.sol\":3866:3875  p2.length */\n      mload\n        /* \"verifier.sol\":3853:3855  p1 */\n      dup4\n        /* \"verifier.sol\":3853:3862  p1.length */\n      mload\n        /* \"verifier.sol\":3853:3875  p1.length == p2.length */\n      eq\n        /* \"verifier.sol\":3845:3876  require(p1.length == p2.length) */\n      tag_145\n      jumpi\n      0x00\n      dup1\n      revert\n    tag_145:\n        /* \"verifier.sol\":3886:3899  uint elements */\n      0x00\n        /* \"verifier.sol\":3902:3904  p1 */\n      dup4\n        /* \"verifier.sol\":3902:3911  p1.length */\n      mload\n        /* \"verifier.sol\":3886:3911  uint elements = p1.length */\n      swap1\n      pop\n        /* \"verifier.sol\":3921:3935  uint inputSize */\n      0x00\n        /* \"verifier.sol\":3949:3950  6 */\n      0x06\n        /* \"verifier.sol\":3938:3946  elements */\n      dup3\n        /* \"verifier.sol\":3938:3950  elements * 6 */\n      tag_146\n      swap2\n      swap1\n      tag_147\n      jump\t// in\n    tag_146:\n        /* \"verifier.sol\":3921:3950  uint inputSize = elements * 6 */\n      swap1\n      pop\n        /* \"verifier.sol\":3960:3979  uint[] memory input */\n      0x00\n        /* \"verifier.sol\":3993:4002  inputSize */\n      dup2\n        /* \"verifier.sol\":3982:4003  new uint[](inputSize) */\n      0xffffffffffffffff\n      dup2\n      gt\n      iszero\n      tag_148\n      jumpi\n      tag_149\n      tag_13\n      jump\t// in\n    tag_149:\n    tag_148:\n      mload(0x40)\n      swap1\n      dup1\n      dup3\n      mstore\n      dup1\n      0x20\n      mul\n      0x20\n      add\n      dup3\n      add\n      0x40\n      mstore\n      dup1\n      iszero\n      tag_150\n      jumpi\n      dup2\n      0x20\n      add\n      0x20\n      dup3\n      mul\n      dup1\n      calldatasize\n      dup4\n      calldatacopy\n      dup1\n      dup3\n      add\n      swap2\n      pop\n      pop\n      swap1\n      pop\n    tag_150:\n      pop\n        /* \"verifier.sol\":3960:4003  uint[] memory input = new uint[](inputSize) */\n      swap1\n      pop\n        /* \"verifier.sol\":4018:4024  uint i */\n      0x00\n        /* \"verifier.sol\":4013:4320  for (uint i = 0; i < elements; i++)... */\n    tag_151:\n        /* \"verifier.sol\":4034:4042  elements */\n      dup4\n        /* \"verifier.sol\":4030:4031  i */\n      dup2\n        /* \"verifier.sol\":4030:4042  i < elements */\n      lt\n        /* \"verifier.sol\":4013:4320  for (uint i = 0; i < elements; i++)... */\n      iszero\n      tag_152\n      jumpi\n        /* \"verifier.sol\":4090:4092  p1 */\n      dup7\n        /* \"verifier.sol\":4093:4094  i */\n      dup2\n        /* \"verifier.sol\":4090:4095  p1[i] */\n      dup2\n      mload\n      dup2\n      lt\n      tag_154\n      jumpi\n      tag_155\n      tag_20\n      jump\t// in\n    tag_155:\n    tag_154:\n      0x20\n      mul\n      0x20\n      add\n      add\n      mload\n        /* \"verifier.sol\":4090:4097  p1[i].X */\n      0x00\n      add\n      mload\n        /* \"verifier.sol\":4071:4076  input */\n      dup3\n        /* \"verifier.sol\":4085:4086  0 */\n      0x00\n        /* \"verifier.sol\":4081:4082  6 */\n      0x06\n        /* \"verifier.sol\":4077:4078  i */\n      dup5\n        /* \"verifier.sol\":4077:4082  i * 6 */\n      tag_156\n      swap2\n      swap1\n      tag_147\n      jump\t// in\n    tag_156:\n        /* \"verifier.sol\":4077:4086  i * 6 + 0 */\n      tag_157\n      swap2\n      swap1\n      tag_33\n      jump\t// in\n    tag_157:\n        /* \"verifier.sol\":4071:4087  input[i * 6 + 0] */\n      dup2\n      mload\n      dup2\n      lt\n      tag_158\n      jumpi\n      tag_159\n      tag_20\n      jump\t// in\n    tag_159:\n    tag_158:\n      0x20\n      mul\n      0x20\n      add\n      add\n        /* \"verifier.sol\":4071:4097  input[i * 6 + 0] = p1[i].X */\n      dup2\n      dup2\n      mstore\n      pop\n      pop\n        /* \"verifier.sol\":4130:4132  p1 */\n      dup7\n        /* \"verifier.sol\":4133:4134  i */\n      dup2\n        /* \"verifier.sol\":4130:4135  p1[i] */\n      dup2\n      mload\n      dup2\n      lt\n      tag_160\n      jumpi\n      tag_161\n      tag_20\n      jump\t// in\n    tag_161:\n    tag_160:\n      0x20\n      mul\n      0x20\n      add\n      add\n      mload\n        /* \"verifier.sol\":4130:4137  p1[i].Y */\n      0x20\n      add\n      mload\n        /* \"verifier.sol\":4111:4116  input */\n      dup3\n        /* \"verifier.sol\":4125:4126  1 */\n      0x01\n        /* \"verifier.sol\":4121:4122  6 */\n      0x06\n        /* \"verifier.sol\":4117:4118  i */\n      dup5\n        /* \"verifier.sol\":4117:4122  i * 6 */\n      tag_162\n      swap2\n      swap1\n      tag_147\n      jump\t// in\n    tag_162:\n        /* \"verifier.sol\":4117:4126  i * 6 + 1 */\n      tag_163\n      swap2\n      swap1\n      tag_33\n      jump\t// in\n    tag_163:\n        /* \"verifier.sol\":4111:4127  input[i * 6 + 1] */\n      dup2\n      mload\n      dup2\n      lt\n      tag_164\n      jumpi\n      tag_165\n      tag_20\n      jump\t// in\n    tag_165:\n    tag_164:\n      0x20\n      mul\n      0x20\n      add\n      add\n        /* \"verifier.sol\":4111:4137  input[i * 6 + 1] = p1[i].Y */\n      dup2\n      dup2\n      mstore\n      pop\n      pop\n        /* \"verifier.sol\":4170:4172  p2 */\n      dup6\n        /* \"verifier.sol\":4173:4174  i */\n      dup2\n        /* \"verifier.sol\":4170:4175  p2[i] */\n      dup2\n      mload\n      dup2\n      lt\n      tag_166\n      jumpi\n      tag_167\n      tag_20\n      jump\t// in\n    tag_167:\n    tag_166:\n      0x20\n      mul\n      0x20\n      add\n      add\n      mload\n        /* \"verifier.sol\":4170:4177  p2[i].X */\n      0x00\n      add\n      mload\n        /* \"verifier.sol\":4178:4179  1 */\n      0x01\n        /* \"verifier.sol\":4170:4180  p2[i].X[1] */\n      0x02\n      dup2\n      lt\n      tag_168\n      jumpi\n      tag_169\n      tag_20\n      jump\t// in\n    tag_169:\n    tag_168:\n      0x20\n      mul\n      add\n      mload\n        /* \"verifier.sol\":4151:4156  input */\n      dup3\n        /* \"verifier.sol\":4165:4166  2 */\n      0x02\n        /* \"verifier.sol\":4161:4162  6 */\n      0x06\n        /* \"verifier.sol\":4157:4158  i */\n      dup5\n        /* \"verifier.sol\":4157:4162  i * 6 */\n      tag_170\n      swap2\n      swap1\n      tag_147\n      jump\t// in\n    tag_170:\n        /* \"verifier.sol\":4157:4166  i * 6 + 2 */\n      tag_171\n      swap2\n      swap1\n      tag_33\n      jump\t// in\n    tag_171:\n        /* \"verifier.sol\":4151:4167  input[i * 6 + 2] */\n      dup2\n      mload\n      dup2\n      lt\n      tag_172\n      jumpi\n      tag_173\n      tag_20\n      jump\t// in\n    tag_173:\n    tag_172:\n      0x20\n      mul\n      0x20\n      add\n      add\n        /* \"verifier.sol\":4151:4180  input[i * 6 + 2] = p2[i].X[1] */\n      dup2\n      dup2\n      mstore\n      pop\n      pop\n        /* \"verifier.sol\":4213:4215  p2 */\n      dup6\n        /* \"verifier.sol\":4216:4217  i */\n      dup2\n        /* \"verifier.sol\":4213:4218  p2[i] */\n      dup2\n      mload\n      dup2\n      lt\n      tag_174\n      jumpi\n      tag_175\n      tag_20\n      jump\t// in\n    tag_175:\n    tag_174:\n      0x20\n      mul\n      0x20\n      add\n      add\n      mload\n        /* \"verifier.sol\":4213:4220  p2[i].X */\n      0x00\n      add\n      mload\n        /* \"verifier.sol\":4221:4222  0 */\n      0x00\n        /* \"verifier.sol\":4213:4223  p2[i].X[0] */\n      0x02\n      dup2\n      lt\n      tag_176\n      jumpi\n      tag_177\n      tag_20\n      jump\t// in\n    tag_177:\n    tag_176:\n      0x20\n      mul\n      add\n      mload\n        /* \"verifier.sol\":4194:4199  input */\n      dup3\n        /* \"verifier.sol\":4208:4209  3 */\n      0x03\n        /* \"verifier.sol\":4204:4205  6 */\n      0x06\n        /* \"verifier.sol\":4200:4201  i */\n      dup5\n        /* \"verifier.sol\":4200:4205  i * 6 */\n      tag_178\n      swap2\n      swap1\n      tag_147\n      jump\t// in\n    tag_178:\n        /* \"verifier.sol\":4200:4209  i * 6 + 3 */\n      tag_179\n      swap2\n      swap1\n      tag_33\n      jump\t// in\n    tag_179:\n        /* \"verifier.sol\":4194:4210  input[i * 6 + 3] */\n      dup2\n      mload\n      dup2\n      lt\n      tag_180\n      jumpi\n      tag_181\n      tag_20\n      jump\t// in\n    tag_181:\n    tag_180:\n      0x20\n      mul\n      0x20\n      add\n      add\n        /* \"verifier.sol\":4194:4223  input[i * 6 + 3] = p2[i].X[0] */\n      dup2\n      dup2\n      mstore\n      pop\n      pop\n        /* \"verifier.sol\":4256:4258  p2 */\n      dup6\n        /* \"verifier.sol\":4259:4260  i */\n      dup2\n        /* \"verifier.sol\":4256:4261  p2[i] */\n      dup2\n      mload\n      dup2\n      lt\n      tag_182\n      jumpi\n      tag_183\n      tag_20\n      jump\t// in\n    tag_183:\n    tag_182:\n      0x20\n      mul\n      0x20\n      add\n      add\n      mload\n        /* \"verifier.sol\":4256:4263  p2[i].Y */\n      0x20\n      add\n      mload\n        /* \"verifier.sol\":4264:4265  1 */\n      0x01\n        /* \"verifier.sol\":4256:4266  p2[i].Y[1] */\n      0x02\n      dup2\n      lt\n      tag_184\n      jumpi\n      tag_185\n      tag_20\n      jump\t// in\n    tag_185:\n    tag_184:\n      0x20\n      mul\n      add\n      mload\n        /* \"verifier.sol\":4237:4242  input */\n      dup3\n        /* \"verifier.sol\":4251:4252  4 */\n      0x04\n        /* \"verifier.sol\":4247:4248  6 */\n      0x06\n        /* \"verifier.sol\":4243:4244  i */\n      dup5\n        /* \"verifier.sol\":4243:4248  i * 6 */\n      tag_186\n      swap2\n      swap1\n      tag_147\n      jump\t// in\n    tag_186:\n        /* \"verifier.sol\":4243:4252  i * 6 + 4 */\n      tag_187\n      swap2\n      swap1\n      tag_33\n      jump\t// in\n    tag_187:\n        /* \"verifier.sol\":4237:4253  input[i * 6 + 4] */\n      dup2\n      mload\n      dup2\n      lt\n      tag_188\n      jumpi\n      tag_189\n      tag_20\n      jump\t// in\n    tag_189:\n    tag_188:\n      0x20\n      mul\n      0x20\n      add\n      add\n        /* \"verifier.sol\":4237:4266  input[i * 6 + 4] = p2[i].Y[1] */\n      dup2\n      dup2\n      mstore\n      pop\n      pop\n        /* \"verifier.sol\":4299:4301  p2 */\n      dup6\n        /* \"verifier.sol\":4302:4303  i */\n      dup2\n        /* \"verifier.sol\":4299:4304  p2[i] */\n      dup2\n      mload\n      dup2\n      lt\n      tag_190\n      jumpi\n      tag_191\n      tag_20\n      jump\t// in\n    tag_191:\n    tag_190:\n      0x20\n      mul\n      0x20\n      add\n      add\n      mload\n        /* \"verifier.sol\":4299:4306  p2[i].Y */\n      0x20\n      add\n      mload\n        /* \"verifier.sol\":4307:4308  0 */\n      0x00\n        /* \"verifier.sol\":4299:4309  p2[i].Y[0] */\n      0x02\n      dup2\n      lt\n      tag_192\n      jumpi\n      tag_193\n      tag_20\n      jump\t// in\n    tag_193:\n    tag_192:\n      0x20\n      mul\n      add\n      mload\n        /* \"verifier.sol\":4280:4285  input */\n      dup3\n        /* \"verifier.sol\":4294:4295  5 */\n      0x05\n        /* \"verifier.sol\":4290:4291  6 */\n      0x06\n        /* \"verifier.sol\":4286:4287  i */\n      dup5\n        /* \"verifier.sol\":4286:4291  i * 6 */\n      tag_194\n      swap2\n      swap1\n      tag_147\n      jump\t// in\n    tag_194:\n        /* \"verifier.sol\":4286:4295  i * 6 + 5 */\n      tag_195\n      swap2\n      swap1\n      tag_33\n      jump\t// in\n    tag_195:\n        /* \"verifier.sol\":4280:4296  input[i * 6 + 5] */\n      dup2\n      mload\n      dup2\n      lt\n      tag_196\n      jumpi\n      tag_197\n      tag_20\n      jump\t// in\n    tag_197:\n    tag_196:\n      0x20\n      mul\n      0x20\n      add\n      add\n        /* \"verifier.sol\":4280:4309  input[i * 6 + 5] = p2[i].Y[0] */\n      dup2\n      dup2\n      mstore\n      pop\n      pop\n        /* \"verifier.sol\":4044:4047  i++ */\n      dup1\n      dup1\n      tag_198\n      swap1\n      tag_24\n      jump\t// in\n    tag_198:\n      swap2\n      pop\n      pop\n        /* \"verifier.sol\":4013:4320  for (uint i = 0; i < elements; i++)... */\n      jump(tag_151)\n    tag_152:\n      pop\n        /* \"verifier.sol\":4329:4347  uint[1] memory out */\n      tag_199\n      tag_200\n      jump\t// in\n    tag_199:\n        /* \"verifier.sol\":4357:4369  bool success */\n      0x00\n        /* \"verifier.sol\":4490:4494  0x20 */\n      0x20\n        /* \"verifier.sol\":4485:4488  out */\n      dup3\n        /* \"verifier.sol\":4478:4482  0x20 */\n      0x20\n        /* \"verifier.sol\":4467:4476  inputSize */\n      dup7\n        /* \"verifier.sol\":4463:4483  mul(inputSize, 0x20) */\n      mul\n        /* \"verifier.sol\":4456:4460  0x20 */\n      0x20\n        /* \"verifier.sol\":4449:4454  input */\n      dup7\n        /* \"verifier.sol\":4445:4461  add(input, 0x20) */\n      add\n        /* \"verifier.sol\":4442:4443  8 */\n      0x08\n        /* \"verifier.sol\":4435:4439  2000 */\n      0x07d0\n        /* \"verifier.sol\":4428:4433  gas() */\n      gas\n        /* \"verifier.sol\":4424:4440  sub(gas(), 2000) */\n      sub\n        /* \"verifier.sol\":4413:4495  staticcall(sub(gas(), 2000), 8, add(input, 0x20), mul(inputSize, 0x20), out, 0x20) */\n      staticcall\n        /* \"verifier.sol\":4402:4495  success := staticcall(sub(gas(), 2000), 8, add(input, 0x20), mul(inputSize, 0x20), out, 0x20) */\n      swap1\n      pop\n        /* \"verifier.sol\":4572:4579  success */\n      dup1\n        /* \"verifier.sol\":4585:4586  0 */\n      0x00\n        /* \"verifier.sol\":4580:4600  case 0 { invalid() } */\n      dup2\n      sub\n        /* \"verifier.sol\":4565:4600  switch success case 0 { invalid() } */\n      tag_201\n        /* \"verifier.sol\":4580:4600  case 0 { invalid() } */\n      jumpi\n        /* \"verifier.sol\":4589:4598  invalid() */\n      invalid\n        /* \"verifier.sol\":4565:4600  switch success case 0 { invalid() } */\n    tag_201:\n      pop\n        /* \"verifier.sol\":4627:4634  success */\n      dup1\n        /* \"verifier.sol\":4619:4635  require(success) */\n      tag_203\n      jumpi\n      0x00\n      dup1\n      revert\n    tag_203:\n        /* \"verifier.sol\":4662:4663  0 */\n      0x00\n        /* \"verifier.sol\":4652:4655  out */\n      dup3\n        /* \"verifier.sol\":4656:4657  0 */\n      0x00\n        /* \"verifier.sol\":4652:4658  out[0] */\n      0x01\n      dup2\n      lt\n      tag_204\n      jumpi\n      tag_205\n      tag_20\n      jump\t// in\n    tag_205:\n    tag_204:\n      0x20\n      mul\n      add\n      mload\n        /* \"verifier.sol\":4652:4663  out[0] != 0 */\n      eq\n      iszero\n        /* \"verifier.sol\":4645:4663  return out[0] != 0 */\n      swap6\n      pop\n      pop\n      pop\n      pop\n      pop\n      pop\n        /* \"verifier.sol\":3747:4670  function pairing(G1Point[] memory p1, G2Point[] memory p2) internal view returns (bool) {... */\n      swap3\n      swap2\n      pop\n      pop\n      jump\t// out\n    tag_62:\n      mload(0x40)\n      dup1\n      0xa0\n      add\n      0x40\n      mstore\n      dup1\n      tag_206\n      tag_69\n      jump\t// in\n    tag_206:\n      dup2\n      mstore\n      0x20\n      add\n      tag_207\n      tag_125\n      jump\t// in\n    tag_207:\n      dup2\n      mstore\n      0x20\n      add\n      tag_208\n      tag_125\n      jump\t// in\n    tag_208:\n      dup2\n      mstore\n      0x20\n      add\n      tag_209\n      tag_125\n      jump\t// in\n    tag_209:\n      dup2\n      mstore\n      0x20\n      add\n      0x60\n      dup2\n      mstore\n      pop\n      swap1\n      jump\t// out\n    tag_69:\n      mload(0x40)\n      dup1\n      0x40\n      add\n      0x40\n      mstore\n      dup1\n      0x00\n      dup2\n      mstore\n      0x20\n      add\n      0x00\n      dup2\n      mstore\n      pop\n      swap1\n      jump\t// out\n    tag_81:\n      mload(0x40)\n      dup1\n      0x60\n      add\n      0x40\n      mstore\n      dup1\n      0x03\n      swap1\n      0x20\n      dup3\n      mul\n      dup1\n      calldatasize\n      dup4\n      calldatacopy\n      dup1\n      dup3\n      add\n      swap2\n      pop\n      pop\n      swap1\n      pop\n      pop\n      swap1\n      jump\t// out\n    tag_94:\n      mload(0x40)\n      dup1\n      0x80\n      add\n      0x40\n      mstore\n      dup1\n      0x04\n      swap1\n      0x20\n      dup3\n      mul\n      dup1\n      calldatasize\n      dup4\n      calldatacopy\n      dup1\n      dup3\n      add\n      swap2\n      pop\n      pop\n      swap1\n      pop\n      pop\n      swap1\n      jump\t// out\n    tag_125:\n      mload(0x40)\n      dup1\n      0x40\n      add\n      0x40\n      mstore\n      dup1\n      tag_210\n      tag_211\n      jump\t// in\n    tag_210:\n      dup2\n      mstore\n      0x20\n      add\n      tag_212\n      tag_211\n      jump\t// in\n    tag_212:\n      dup2\n      mstore\n      pop\n      swap1\n      jump\t// out\n    tag_200:\n      mload(0x40)\n      dup1\n      0x20\n      add\n      0x40\n      mstore\n      dup1\n      0x01\n      swap1\n      0x20\n      dup3\n      mul\n      dup1\n      calldatasize\n      dup4\n      calldatacopy\n      dup1\n      dup3\n      add\n      swap2\n      pop\n      pop\n      swap1\n      pop\n      pop\n      swap1\n      jump\t// out\n    tag_211:\n      mload(0x40)\n      dup1\n      0x40\n      add\n      0x40\n      mstore\n      dup1\n      0x02\n      swap1\n      0x20\n      dup3\n      mul\n      dup1\n      calldatasize\n      dup4\n      calldatacopy\n      dup1\n      dup3\n      add\n      swap2\n      pop\n      pop\n      swap1\n      pop\n      pop\n      swap1\n      jump\t// out\n        /* \"#utility.yul\":7:82   */\n    tag_213:\n        /* \"#utility.yul\":40:46   */\n      0x00\n        /* \"#utility.yul\":73:75   */\n      0x40\n        /* \"#utility.yul\":67:76   */\n      mload\n        /* \"#utility.yul\":57:76   */\n      swap1\n      pop\n        /* \"#utility.yul\":7:82   */\n      swap1\n      jump\t// out\n        /* \"#utility.yul\":88:205   */\n    tag_214:\n        /* \"#utility.yul\":197:198   */\n      0x00\n        /* \"#utility.yul\":194:195   */\n      dup1\n        /* \"#utility.yul\":187:199   */\n      revert\n        /* \"#utility.yul\":334:451   */\n    tag_216:\n        /* \"#utility.yul\":443:444   */\n      0x00\n        /* \"#utility.yul\":440:441   */\n      dup1\n        /* \"#utility.yul\":433:445   */\n      revert\n        /* \"#utility.yul\":457:559   */\n    tag_217:\n        /* \"#utility.yul\":498:504   */\n      0x00\n        /* \"#utility.yul\":549:551   */\n      0x1f\n        /* \"#utility.yul\":545:552   */\n      not\n        /* \"#utility.yul\":540:542   */\n      0x1f\n        /* \"#utility.yul\":533:538   */\n      dup4\n        /* \"#utility.yul\":529:543   */\n      add\n        /* \"#utility.yul\":525:553   */\n      and\n        /* \"#utility.yul\":515:553   */\n      swap1\n      pop\n        /* \"#utility.yul\":457:559   */\n      swap2\n      swap1\n      pop\n      jump\t// out\n        /* \"#utility.yul\":565:745   */\n    tag_13:\n        /* \"#utility.yul\":613:690   */\n      0x4e487b7100000000000000000000000000000000000000000000000000000000\n        /* \"#utility.yul\":610:611   */\n      0x00\n        /* \"#utility.yul\":603:691   */\n      mstore\n        /* \"#utility.yul\":710:714   */\n      0x41\n        /* \"#utility.yul\":707:708   */\n      0x04\n        /* \"#utility.yul\":700:715   */\n      mstore\n        /* \"#utility.yul\":734:738   */\n      0x24\n        /* \"#utility.yul\":731:732   */\n      0x00\n        /* \"#utility.yul\":724:739   */\n      revert\n        /* \"#utility.yul\":751:1032   */\n    tag_218:\n        /* \"#utility.yul\":834:861   */\n      tag_247\n        /* \"#utility.yul\":856:860   */\n      dup3\n        /* \"#utility.yul\":834:861   */\n      tag_217\n      jump\t// in\n    tag_247:\n        /* \"#utility.yul\":826:832   */\n      dup2\n        /* \"#utility.yul\":822:862   */\n      add\n        /* \"#utility.yul\":964:970   */\n      dup2\n        /* \"#utility.yul\":952:962   */\n      dup2\n        /* \"#utility.yul\":949:971   */\n      lt\n        /* \"#utility.yul\":928:946   */\n      0xffffffffffffffff\n        /* \"#utility.yul\":916:926   */\n      dup3\n        /* \"#utility.yul\":913:947   */\n      gt\n        /* \"#utility.yul\":910:972   */\n      or\n        /* \"#utility.yul\":907:995   */\n      iszero\n      tag_248\n      jumpi\n        /* \"#utility.yul\":975:993   */\n      tag_249\n      tag_13\n      jump\t// in\n    tag_249:\n        /* \"#utility.yul\":907:995   */\n    tag_248:\n        /* \"#utility.yul\":1015:1025   */\n      dup1\n        /* \"#utility.yul\":1011:1013   */\n      0x40\n        /* \"#utility.yul\":1004:1026   */\n      mstore\n        /* \"#utility.yul\":794:1032   */\n      pop\n        /* \"#utility.yul\":751:1032   */\n      pop\n      pop\n      jump\t// out\n        /* \"#utility.yul\":1038:1167   */\n    tag_219:\n        /* \"#utility.yul\":1072:1078   */\n      0x00\n        /* \"#utility.yul\":1099:1119   */\n      tag_251\n      tag_213\n      jump\t// in\n    tag_251:\n        /* \"#utility.yul\":1089:1119   */\n      swap1\n      pop\n        /* \"#utility.yul\":1128:1161   */\n      tag_252\n        /* \"#utility.yul\":1156:1160   */\n      dup3\n        /* \"#utility.yul\":1148:1154   */\n      dup3\n        /* \"#utility.yul\":1128:1161   */\n      tag_218\n      jump\t// in\n    tag_252:\n        /* \"#utility.yul\":1038:1167   */\n      swap2\n      swap1\n      pop\n      jump\t// out\n        /* \"#utility.yul\":1296:1373   */\n    tag_221:\n        /* \"#utility.yul\":1333:1340   */\n      0x00\n        /* \"#utility.yul\":1362:1367   */\n      dup2\n        /* \"#utility.yul\":1351:1367   */\n      swap1\n      pop\n        /* \"#utility.yul\":1296:1373   */\n      swap2\n      swap1\n      pop\n      jump\t// out\n        /* \"#utility.yul\":1379:1501   */\n    tag_222:\n        /* \"#utility.yul\":1452:1476   */\n      tag_256\n        /* \"#utility.yul\":1470:1475   */\n      dup2\n        /* \"#utility.yul\":1452:1476   */\n      tag_221\n      jump\t// in\n    tag_256:\n        /* \"#utility.yul\":1445:1450   */\n      dup2\n        /* \"#utility.yul\":1442:1477   */\n      eq\n        /* \"#utility.yul\":1432:1495   */\n      tag_257\n      jumpi\n        /* \"#utility.yul\":1491:1492   */\n      0x00\n        /* \"#utility.yul\":1488:1489   */\n      dup1\n        /* \"#utility.yul\":1481:1493   */\n      revert\n        /* \"#utility.yul\":1432:1495   */\n    tag_257:\n        /* \"#utility.yul\":1379:1501   */\n      pop\n      jump\t// out\n        /* \"#utility.yul\":1507:1646   */\n    tag_223:\n        /* \"#utility.yul\":1553:1558   */\n      0x00\n        /* \"#utility.yul\":1591:1597   */\n      dup2\n        /* \"#utility.yul\":1578:1598   */\n      calldataload\n        /* \"#utility.yul\":1569:1598   */\n      swap1\n      pop\n        /* \"#utility.yul\":1607:1640   */\n      tag_259\n        /* \"#utility.yul\":1634:1639   */\n      dup2\n        /* \"#utility.yul\":1607:1640   */\n      tag_222\n      jump\t// in\n    tag_259:\n        /* \"#utility.yul\":1507:1646   */\n      swap3\n      swap2\n      pop\n      pop\n      jump\t// out\n        /* \"#utility.yul\":1682:2247   */\n    tag_224:\n        /* \"#utility.yul\":1753:1758   */\n      0x00\n        /* \"#utility.yul\":1797:1801   */\n      0x40\n        /* \"#utility.yul\":1785:1794   */\n      dup3\n        /* \"#utility.yul\":1780:1783   */\n      dup5\n        /* \"#utility.yul\":1776:1795   */\n      sub\n        /* \"#utility.yul\":1772:1802   */\n      slt\n        /* \"#utility.yul\":1769:1886   */\n      iszero\n      tag_261\n      jumpi\n        /* \"#utility.yul\":1805:1884   */\n      tag_262\n      tag_216\n      jump\t// in\n    tag_262:\n        /* \"#utility.yul\":1769:1886   */\n    tag_261:\n        /* \"#utility.yul\":1904:1925   */\n      tag_263\n        /* \"#utility.yul\":1920:1924   */\n      0x40\n        /* \"#utility.yul\":1904:1925   */\n      tag_219\n      jump\t// in\n    tag_263:\n        /* \"#utility.yul\":1895:1925   */\n      swap1\n      pop\n        /* \"#utility.yul\":1981:1982   */\n      0x00\n        /* \"#utility.yul\":2021:2070   */\n      tag_264\n        /* \"#utility.yul\":2066:2069   */\n      dup5\n        /* \"#utility.yul\":2057:2063   */\n      dup3\n        /* \"#utility.yul\":2046:2055   */\n      dup6\n        /* \"#utility.yul\":2042:2064   */\n      add\n        /* \"#utility.yul\":2021:2070   */\n      tag_223\n      jump\t// in\n    tag_264:\n        /* \"#utility.yul\":2014:2018   */\n      0x00\n        /* \"#utility.yul\":2007:2012   */\n      dup4\n        /* \"#utility.yul\":2003:2019   */\n      add\n        /* \"#utility.yul\":1996:2071   */\n      mstore\n        /* \"#utility.yul\":1935:2082   */\n      pop\n        /* \"#utility.yul\":2138:2140   */\n      0x20\n        /* \"#utility.yul\":2179:2228   */\n      tag_265\n        /* \"#utility.yul\":2224:2227   */\n      dup5\n        /* \"#utility.yul\":2215:2221   */\n      dup3\n        /* \"#utility.yul\":2204:2213   */\n      dup6\n        /* \"#utility.yul\":2200:2222   */\n      add\n        /* \"#utility.yul\":2179:2228   */\n      tag_223\n      jump\t// in\n    tag_265:\n        /* \"#utility.yul\":2172:2176   */\n      0x20\n        /* \"#utility.yul\":2165:2170   */\n      dup4\n        /* \"#utility.yul\":2161:2177   */\n      add\n        /* \"#utility.yul\":2154:2229   */\n      mstore\n        /* \"#utility.yul\":2092:2240   */\n      pop\n        /* \"#utility.yul\":1682:2247   */\n      swap3\n      swap2\n      pop\n      pop\n      jump\t// out\n        /* \"#utility.yul\":2253:2370   */\n    tag_225:\n        /* \"#utility.yul\":2362:2363   */\n      0x00\n        /* \"#utility.yul\":2359:2360   */\n      dup1\n        /* \"#utility.yul\":2352:2364   */\n      revert\n        /* \"#utility.yul\":2376:2625   */\n    tag_226:\n        /* \"#utility.yul\":2451:2455   */\n      0x00\n        /* \"#utility.yul\":2541:2559   */\n      0xffffffffffffffff\n        /* \"#utility.yul\":2533:2539   */\n      dup3\n        /* \"#utility.yul\":2530:2560   */\n      gt\n        /* \"#utility.yul\":2527:2583   */\n      iszero\n      tag_268\n      jumpi\n        /* \"#utility.yul\":2563:2581   */\n      tag_269\n      tag_13\n      jump\t// in\n    tag_269:\n        /* \"#utility.yul\":2527:2583   */\n    tag_268:\n        /* \"#utility.yul\":2613:2617   */\n      0x20\n        /* \"#utility.yul\":2605:2611   */\n      dup3\n        /* \"#utility.yul\":2601:2618   */\n      mul\n        /* \"#utility.yul\":2593:2618   */\n      swap1\n      pop\n        /* \"#utility.yul\":2376:2625   */\n      swap2\n      swap1\n      pop\n      jump\t// out\n        /* \"#utility.yul\":2631:2748   */\n    tag_227:\n        /* \"#utility.yul\":2740:2741   */\n      0x00\n        /* \"#utility.yul\":2737:2738   */\n      dup1\n        /* \"#utility.yul\":2730:2742   */\n      revert\n        /* \"#utility.yul\":2772:3415   */\n    tag_228:\n        /* \"#utility.yul\":2866:2871   */\n      0x00\n        /* \"#utility.yul\":2891:2970   */\n      tag_272\n        /* \"#utility.yul\":2907:2969   */\n      tag_273\n        /* \"#utility.yul\":2962:2968   */\n      dup5\n        /* \"#utility.yul\":2907:2969   */\n      tag_226\n      jump\t// in\n    tag_273:\n        /* \"#utility.yul\":2891:2970   */\n      tag_219\n      jump\t// in\n    tag_272:\n        /* \"#utility.yul\":2882:2970   */\n      swap1\n      pop\n        /* \"#utility.yul\":2990:2995   */\n      dup1\n        /* \"#utility.yul\":3043:3047   */\n      0x20\n        /* \"#utility.yul\":3035:3041   */\n      dup5\n        /* \"#utility.yul\":3031:3048   */\n      mul\n        /* \"#utility.yul\":3023:3029   */\n      dup4\n        /* \"#utility.yul\":3019:3049   */\n      add\n        /* \"#utility.yul\":3072:3075   */\n      dup6\n        /* \"#utility.yul\":3064:3070   */\n      dup2\n        /* \"#utility.yul\":3061:3076   */\n      gt\n        /* \"#utility.yul\":3058:3180   */\n      iszero\n      tag_274\n      jumpi\n        /* \"#utility.yul\":3091:3170   */\n      tag_275\n      tag_227\n      jump\t// in\n    tag_275:\n        /* \"#utility.yul\":3058:3180   */\n    tag_274:\n        /* \"#utility.yul\":3206:3212   */\n      dup4\n        /* \"#utility.yul\":3189:3409   */\n    tag_276:\n        /* \"#utility.yul\":3223:3229   */\n      dup2\n        /* \"#utility.yul\":3218:3221   */\n      dup2\n        /* \"#utility.yul\":3215:3230   */\n      lt\n        /* \"#utility.yul\":3189:3409   */\n      iszero\n      tag_278\n      jumpi\n        /* \"#utility.yul\":3298:3301   */\n      dup1\n        /* \"#utility.yul\":3327:3364   */\n      tag_279\n        /* \"#utility.yul\":3360:3363   */\n      dup9\n        /* \"#utility.yul\":3348:3358   */\n      dup3\n        /* \"#utility.yul\":3327:3364   */\n      tag_223\n      jump\t// in\n    tag_279:\n        /* \"#utility.yul\":3322:3325   */\n      dup5\n        /* \"#utility.yul\":3315:3365   */\n      mstore\n        /* \"#utility.yul\":3394:3398   */\n      0x20\n        /* \"#utility.yul\":3389:3392   */\n      dup5\n        /* \"#utility.yul\":3385:3399   */\n      add\n        /* \"#utility.yul\":3378:3399   */\n      swap4\n      pop\n        /* \"#utility.yul\":3265:3409   */\n      pop\n        /* \"#utility.yul\":3249:3253   */\n      0x20\n        /* \"#utility.yul\":3244:3247   */\n      dup2\n        /* \"#utility.yul\":3240:3254   */\n      add\n        /* \"#utility.yul\":3233:3254   */\n      swap1\n      pop\n        /* \"#utility.yul\":3189:3409   */\n      jump(tag_276)\n    tag_278:\n        /* \"#utility.yul\":3193:3214   */\n      pop\n        /* \"#utility.yul\":2872:3415   */\n      pop\n      pop\n        /* \"#utility.yul\":2772:3415   */\n      swap4\n      swap3\n      pop\n      pop\n      pop\n      jump\t// out\n        /* \"#utility.yul\":3439:3778   */\n    tag_229:\n        /* \"#utility.yul\":3508:3513   */\n      0x00\n        /* \"#utility.yul\":3557:3560   */\n      dup3\n        /* \"#utility.yul\":3550:3554   */\n      0x1f\n        /* \"#utility.yul\":3542:3548   */\n      dup4\n        /* \"#utility.yul\":3538:3555   */\n      add\n        /* \"#utility.yul\":3534:3561   */\n      slt\n        /* \"#utility.yul\":3524:3646   */\n      tag_281\n      jumpi\n        /* \"#utility.yul\":3565:3644   */\n      tag_282\n      tag_225\n      jump\t// in\n    tag_282:\n        /* \"#utility.yul\":3524:3646   */\n    tag_281:\n        /* \"#utility.yul\":3669:3673   */\n      0x02\n        /* \"#utility.yul\":3691:3772   */\n      tag_283\n        /* \"#utility.yul\":3768:3771   */\n      dup5\n        /* \"#utility.yul\":3760:3766   */\n      dup3\n        /* \"#utility.yul\":3752:3758   */\n      dup6\n        /* \"#utility.yul\":3691:3772   */\n      tag_228\n      jump\t// in\n    tag_283:\n        /* \"#utility.yul\":3682:3772   */\n      swap2\n      pop\n        /* \"#utility.yul\":3514:3778   */\n      pop\n        /* \"#utility.yul\":3439:3778   */\n      swap3\n      swap2\n      pop\n      pop\n      jump\t// out\n        /* \"#utility.yul\":3814:4426   */\n    tag_230:\n        /* \"#utility.yul\":3886:3891   */\n      0x00\n        /* \"#utility.yul\":3930:3934   */\n      0x80\n        /* \"#utility.yul\":3918:3927   */\n      dup3\n        /* \"#utility.yul\":3913:3916   */\n      dup5\n        /* \"#utility.yul\":3909:3928   */\n      sub\n        /* \"#utility.yul\":3905:3935   */\n      slt\n        /* \"#utility.yul\":3902:4019   */\n      iszero\n      tag_285\n      jumpi\n        /* \"#utility.yul\":3938:4017   */\n      tag_286\n      tag_216\n      jump\t// in\n    tag_286:\n        /* \"#utility.yul\":3902:4019   */\n    tag_285:\n        /* \"#utility.yul\":4037:4058   */\n      tag_287\n        /* \"#utility.yul\":4053:4057   */\n      0x40\n        /* \"#utility.yul\":4037:4058   */\n      tag_219\n      jump\t// in\n    tag_287:\n        /* \"#utility.yul\":4028:4058   */\n      swap1\n      pop\n        /* \"#utility.yul\":4114:4115   */\n      0x00\n        /* \"#utility.yul\":4154:4226   */\n      tag_288\n        /* \"#utility.yul\":4222:4225   */\n      dup5\n        /* \"#utility.yul\":4213:4219   */\n      dup3\n        /* \"#utility.yul\":4202:4211   */\n      dup6\n        /* \"#utility.yul\":4198:4220   */\n      add\n        /* \"#utility.yul\":4154:4226   */\n      tag_229\n      jump\t// in\n    tag_288:\n        /* \"#utility.yul\":4147:4151   */\n      0x00\n        /* \"#utility.yul\":4140:4145   */\n      dup4\n        /* \"#utility.yul\":4136:4152   */\n      add\n        /* \"#utility.yul\":4129:4227   */\n      mstore\n        /* \"#utility.yul\":4068:4238   */\n      pop\n        /* \"#utility.yul\":4294:4296   */\n      0x40\n        /* \"#utility.yul\":4335:4407   */\n      tag_289\n        /* \"#utility.yul\":4403:4406   */\n      dup5\n        /* \"#utility.yul\":4394:4400   */\n      dup3\n        /* \"#utility.yul\":4383:4392   */\n      dup6\n        /* \"#utility.yul\":4379:4401   */\n      add\n        /* \"#utility.yul\":4335:4407   */\n      tag_229\n      jump\t// in\n    tag_289:\n        /* \"#utility.yul\":4328:4332   */\n      0x20\n        /* \"#utility.yul\":4321:4326   */\n      dup4\n        /* \"#utility.yul\":4317:4333   */\n      add\n        /* \"#utility.yul\":4310:4408   */\n      mstore\n        /* \"#utility.yul\":4248:4419   */\n      pop\n        /* \"#utility.yul\":3814:4426   */\n      swap3\n      swap2\n      pop\n      pop\n      jump\t// out\n        /* \"#utility.yul\":4461:5254   */\n    tag_231:\n        /* \"#utility.yul\":4532:4537   */\n      0x00\n        /* \"#utility.yul\":4576:4582   */\n      0x0100\n        /* \"#utility.yul\":4564:4573   */\n      dup3\n        /* \"#utility.yul\":4559:4562   */\n      dup5\n        /* \"#utility.yul\":4555:4574   */\n      sub\n        /* \"#utility.yul\":4551:4583   */\n      slt\n        /* \"#utility.yul\":4548:4667   */\n      iszero\n      tag_291\n      jumpi\n        /* \"#utility.yul\":4586:4665   */\n      tag_292\n      tag_216\n      jump\t// in\n    tag_292:\n        /* \"#utility.yul\":4548:4667   */\n    tag_291:\n        /* \"#utility.yul\":4685:4706   */\n      tag_293\n        /* \"#utility.yul\":4701:4705   */\n      0x60\n        /* \"#utility.yul\":4685:4706   */\n      tag_219\n      jump\t// in\n    tag_293:\n        /* \"#utility.yul\":4676:4706   */\n      swap1\n      pop\n        /* \"#utility.yul\":4762:4763   */\n      0x00\n        /* \"#utility.yul\":4802:4873   */\n      tag_294\n        /* \"#utility.yul\":4869:4872   */\n      dup5\n        /* \"#utility.yul\":4860:4866   */\n      dup3\n        /* \"#utility.yul\":4849:4858   */\n      dup6\n        /* \"#utility.yul\":4845:4867   */\n      add\n        /* \"#utility.yul\":4802:4873   */\n      tag_224\n      jump\t// in\n    tag_294:\n        /* \"#utility.yul\":4795:4799   */\n      0x00\n        /* \"#utility.yul\":4788:4793   */\n      dup4\n        /* \"#utility.yul\":4784:4800   */\n      add\n        /* \"#utility.yul\":4777:4874   */\n      mstore\n        /* \"#utility.yul\":4716:4885   */\n      pop\n        /* \"#utility.yul\":4941:4943   */\n      0x40\n        /* \"#utility.yul\":4982:5054   */\n      tag_295\n        /* \"#utility.yul\":5050:5053   */\n      dup5\n        /* \"#utility.yul\":5041:5047   */\n      dup3\n        /* \"#utility.yul\":5030:5039   */\n      dup6\n        /* \"#utility.yul\":5026:5048   */\n      add\n        /* \"#utility.yul\":4982:5054   */\n      tag_230\n      jump\t// in\n    tag_295:\n        /* \"#utility.yul\":4975:4979   */\n      0x20\n        /* \"#utility.yul\":4968:4973   */\n      dup4\n        /* \"#utility.yul\":4964:4980   */\n      add\n        /* \"#utility.yul\":4957:5055   */\n      mstore\n        /* \"#utility.yul\":4895:5066   */\n      pop\n        /* \"#utility.yul\":5122:5125   */\n      0xc0\n        /* \"#utility.yul\":5164:5235   */\n      tag_296\n        /* \"#utility.yul\":5231:5234   */\n      dup5\n        /* \"#utility.yul\":5222:5228   */\n      dup3\n        /* \"#utility.yul\":5211:5220   */\n      dup6\n        /* \"#utility.yul\":5207:5229   */\n      add\n        /* \"#utility.yul\":5164:5235   */\n      tag_224\n      jump\t// in\n    tag_296:\n        /* \"#utility.yul\":5157:5161   */\n      0x40\n        /* \"#utility.yul\":5150:5155   */\n      dup4\n        /* \"#utility.yul\":5146:5162   */\n      add\n        /* \"#utility.yul\":5139:5236   */\n      mstore\n        /* \"#utility.yul\":5076:5247   */\n      pop\n        /* \"#utility.yul\":4461:5254   */\n      swap3\n      swap2\n      pop\n      pop\n      jump\t// out\n        /* \"#utility.yul\":5260:5509   */\n    tag_232:\n        /* \"#utility.yul\":5335:5339   */\n      0x00\n        /* \"#utility.yul\":5425:5443   */\n      0xffffffffffffffff\n        /* \"#utility.yul\":5417:5423   */\n      dup3\n        /* \"#utility.yul\":5414:5444   */\n      gt\n        /* \"#utility.yul\":5411:5467   */\n      iszero\n      tag_298\n      jumpi\n        /* \"#utility.yul\":5447:5465   */\n      tag_299\n      tag_13\n      jump\t// in\n    tag_299:\n        /* \"#utility.yul\":5411:5467   */\n    tag_298:\n        /* \"#utility.yul\":5497:5501   */\n      0x20\n        /* \"#utility.yul\":5489:5495   */\n      dup3\n        /* \"#utility.yul\":5485:5502   */\n      mul\n        /* \"#utility.yul\":5477:5502   */\n      swap1\n      pop\n        /* \"#utility.yul\":5260:5509   */\n      swap2\n      swap1\n      pop\n      jump\t// out\n        /* \"#utility.yul\":5533:6176   */\n    tag_233:\n        /* \"#utility.yul\":5627:5632   */\n      0x00\n        /* \"#utility.yul\":5652:5731   */\n      tag_301\n        /* \"#utility.yul\":5668:5730   */\n      tag_302\n        /* \"#utility.yul\":5723:5729   */\n      dup5\n        /* \"#utility.yul\":5668:5730   */\n      tag_232\n      jump\t// in\n    tag_302:\n        /* \"#utility.yul\":5652:5731   */\n      tag_219\n      jump\t// in\n    tag_301:\n        /* \"#utility.yul\":5643:5731   */\n      swap1\n      pop\n        /* \"#utility.yul\":5751:5756   */\n      dup1\n        /* \"#utility.yul\":5804:5808   */\n      0x20\n        /* \"#utility.yul\":5796:5802   */\n      dup5\n        /* \"#utility.yul\":5792:5809   */\n      mul\n        /* \"#utility.yul\":5784:5790   */\n      dup4\n        /* \"#utility.yul\":5780:5810   */\n      add\n        /* \"#utility.yul\":5833:5836   */\n      dup6\n        /* \"#utility.yul\":5825:5831   */\n      dup2\n        /* \"#utility.yul\":5822:5837   */\n      gt\n        /* \"#utility.yul\":5819:5941   */\n      iszero\n      tag_303\n      jumpi\n        /* \"#utility.yul\":5852:5931   */\n      tag_304\n      tag_227\n      jump\t// in\n    tag_304:\n        /* \"#utility.yul\":5819:5941   */\n    tag_303:\n        /* \"#utility.yul\":5967:5973   */\n      dup4\n        /* \"#utility.yul\":5950:6170   */\n    tag_305:\n        /* \"#utility.yul\":5984:5990   */\n      dup2\n        /* \"#utility.yul\":5979:5982   */\n      dup2\n        /* \"#utility.yul\":5976:5991   */\n      lt\n        /* \"#utility.yul\":5950:6170   */\n      iszero\n      tag_307\n      jumpi\n        /* \"#utility.yul\":6059:6062   */\n      dup1\n        /* \"#utility.yul\":6088:6125   */\n      tag_308\n        /* \"#utility.yul\":6121:6124   */\n      dup9\n        /* \"#utility.yul\":6109:6119   */\n      dup3\n        /* \"#utility.yul\":6088:6125   */\n      tag_223\n      jump\t// in\n    tag_308:\n        /* \"#utility.yul\":6083:6086   */\n      dup5\n        /* \"#utility.yul\":6076:6126   */\n      mstore\n        /* \"#utility.yul\":6155:6159   */\n      0x20\n        /* \"#utility.yul\":6150:6153   */\n      dup5\n        /* \"#utility.yul\":6146:6160   */\n      add\n        /* \"#utility.yul\":6139:6160   */\n      swap4\n      pop\n        /* \"#utility.yul\":6026:6170   */\n      pop\n        /* \"#utility.yul\":6010:6014   */\n      0x20\n        /* \"#utility.yul\":6005:6008   */\n      dup2\n        /* \"#utility.yul\":6001:6015   */\n      add\n        /* \"#utility.yul\":5994:6015   */\n      swap1\n      pop\n        /* \"#utility.yul\":5950:6170   */\n      jump(tag_305)\n    tag_307:\n        /* \"#utility.yul\":5954:5975   */\n      pop\n        /* \"#utility.yul\":5633:6176   */\n      pop\n      pop\n        /* \"#utility.yul\":5533:6176   */\n      swap4\n      swap3\n      pop\n      pop\n      pop\n      jump\t// out\n        /* \"#utility.yul\":6200:6539   */\n    tag_234:\n        /* \"#utility.yul\":6269:6274   */\n      0x00\n        /* \"#utility.yul\":6318:6321   */\n      dup3\n        /* \"#utility.yul\":6311:6315   */\n      0x1f\n        /* \"#utility.yul\":6303:6309   */\n      dup4\n        /* \"#utility.yul\":6299:6316   */\n      add\n        /* \"#utility.yul\":6295:6322   */\n      slt\n        /* \"#utility.yul\":6285:6407   */\n      tag_310\n      jumpi\n        /* \"#utility.yul\":6326:6405   */\n      tag_311\n      tag_225\n      jump\t// in\n    tag_311:\n        /* \"#utility.yul\":6285:6407   */\n    tag_310:\n        /* \"#utility.yul\":6430:6434   */\n      0x03\n        /* \"#utility.yul\":6452:6533   */\n      tag_312\n        /* \"#utility.yul\":6529:6532   */\n      dup5\n        /* \"#utility.yul\":6521:6527   */\n      dup3\n        /* \"#utility.yul\":6513:6519   */\n      dup6\n        /* \"#utility.yul\":6452:6533   */\n      tag_233\n      jump\t// in\n    tag_312:\n        /* \"#utility.yul\":6443:6533   */\n      swap2\n      pop\n        /* \"#utility.yul\":6275:6539   */\n      pop\n        /* \"#utility.yul\":6200:6539   */\n      swap3\n      swap2\n      pop\n      pop\n      jump\t// out\n        /* \"#utility.yul\":6545:7111   */\n    tag_6:\n        /* \"#utility.yul\":6658:6664   */\n      0x00\n        /* \"#utility.yul\":6666:6672   */\n      dup1\n        /* \"#utility.yul\":6715:6718   */\n      0x0160\n        /* \"#utility.yul\":6703:6712   */\n      dup4\n        /* \"#utility.yul\":6694:6701   */\n      dup6\n        /* \"#utility.yul\":6690:6713   */\n      sub\n        /* \"#utility.yul\":6686:6719   */\n      slt\n        /* \"#utility.yul\":6683:6803   */\n      iszero\n      tag_314\n      jumpi\n        /* \"#utility.yul\":6722:6801   */\n      tag_315\n      tag_214\n      jump\t// in\n    tag_315:\n        /* \"#utility.yul\":6683:6803   */\n    tag_314:\n        /* \"#utility.yul\":6842:6843   */\n      0x00\n        /* \"#utility.yul\":6867:6942   */\n      tag_316\n        /* \"#utility.yul\":6934:6941   */\n      dup6\n        /* \"#utility.yul\":6925:6931   */\n      dup3\n        /* \"#utility.yul\":6914:6923   */\n      dup7\n        /* \"#utility.yul\":6910:6932   */\n      add\n        /* \"#utility.yul\":6867:6942   */\n      tag_231\n      jump\t// in\n    tag_316:\n        /* \"#utility.yul\":6857:6942   */\n      swap3\n      pop\n        /* \"#utility.yul\":6813:6952   */\n      pop\n        /* \"#utility.yul\":6991:6994   */\n      0x0100\n        /* \"#utility.yul\":7018:7094   */\n      tag_317\n        /* \"#utility.yul\":7086:7093   */\n      dup6\n        /* \"#utility.yul\":7077:7083   */\n      dup3\n        /* \"#utility.yul\":7066:7075   */\n      dup7\n        /* \"#utility.yul\":7062:7084   */\n      add\n        /* \"#utility.yul\":7018:7094   */\n      tag_234\n      jump\t// in\n    tag_317:\n        /* \"#utility.yul\":7008:7094   */\n      swap2\n      pop\n        /* \"#utility.yul\":6962:7104   */\n      pop\n        /* \"#utility.yul\":6545:7111   */\n      swap3\n      pop\n      swap3\n      swap1\n      pop\n      jump\t// out\n        /* \"#utility.yul\":7117:7207   */\n    tag_235:\n        /* \"#utility.yul\":7151:7158   */\n      0x00\n        /* \"#utility.yul\":7194:7199   */\n      dup2\n        /* \"#utility.yul\":7187:7200   */\n      iszero\n        /* \"#utility.yul\":7180:7201   */\n      iszero\n        /* \"#utility.yul\":7169:7201   */\n      swap1\n      pop\n        /* \"#utility.yul\":7117:7207   */\n      swap2\n      swap1\n      pop\n      jump\t// out\n        /* \"#utility.yul\":7213:7322   */\n    tag_236:\n        /* \"#utility.yul\":7294:7315   */\n      tag_320\n        /* \"#utility.yul\":7309:7314   */\n      dup2\n        /* \"#utility.yul\":7294:7315   */\n      tag_235\n      jump\t// in\n    tag_320:\n        /* \"#utility.yul\":7289:7292   */\n      dup3\n        /* \"#utility.yul\":7282:7316   */\n      mstore\n        /* \"#utility.yul\":7213:7322   */\n      pop\n      pop\n      jump\t// out\n        /* \"#utility.yul\":7328:7538   */\n    tag_9:\n        /* \"#utility.yul\":7415:7419   */\n      0x00\n        /* \"#utility.yul\":7453:7455   */\n      0x20\n        /* \"#utility.yul\":7442:7451   */\n      dup3\n        /* \"#utility.yul\":7438:7456   */\n      add\n        /* \"#utility.yul\":7430:7456   */\n      swap1\n      pop\n        /* \"#utility.yul\":7466:7531   */\n      tag_322\n        /* \"#utility.yul\":7528:7529   */\n      0x00\n        /* \"#utility.yul\":7517:7526   */\n      dup4\n        /* \"#utility.yul\":7513:7530   */\n      add\n        /* \"#utility.yul\":7504:7510   */\n      dup5\n        /* \"#utility.yul\":7466:7531   */\n      tag_236\n      jump\t// in\n    tag_322:\n        /* \"#utility.yul\":7328:7538   */\n      swap3\n      swap2\n      pop\n      pop\n      jump\t// out\n        /* \"#utility.yul\":7544:7724   */\n    tag_20:\n        /* \"#utility.yul\":7592:7669   */\n      0x4e487b7100000000000000000000000000000000000000000000000000000000\n        /* \"#utility.yul\":7589:7590   */\n      0x00\n        /* \"#utility.yul\":7582:7670   */\n      mstore\n        /* \"#utility.yul\":7689:7693   */\n      0x32\n        /* \"#utility.yul\":7686:7687   */\n      0x04\n        /* \"#utility.yul\":7679:7694   */\n      mstore\n        /* \"#utility.yul\":7713:7717   */\n      0x24\n        /* \"#utility.yul\":7710:7711   */\n      0x00\n        /* \"#utility.yul\":7703:7718   */\n      revert\n        /* \"#utility.yul\":7730:7910   */\n    tag_237:\n        /* \"#utility.yul\":7778:7855   */\n      0x4e487b7100000000000000000000000000000000000000000000000000000000\n        /* \"#utility.yul\":7775:7776   */\n      0x00\n        /* \"#utility.yul\":7768:7856   */\n      mstore\n        /* \"#utility.yul\":7875:7879   */\n      0x11\n        /* \"#utility.yul\":7872:7873   */\n      0x04\n        /* \"#utility.yul\":7865:7880   */\n      mstore\n        /* \"#utility.yul\":7899:7903   */\n      0x24\n        /* \"#utility.yul\":7896:7897   */\n      0x00\n        /* \"#utility.yul\":7889:7904   */\n      revert\n        /* \"#utility.yul\":7916:8149   */\n    tag_24:\n        /* \"#utility.yul\":7955:7958   */\n      0x00\n        /* \"#utility.yul\":7978:8002   */\n      tag_326\n        /* \"#utility.yul\":7996:8001   */\n      dup3\n        /* \"#utility.yul\":7978:8002   */\n      tag_221\n      jump\t// in\n    tag_326:\n        /* \"#utility.yul\":7969:8002   */\n      swap2\n      pop\n        /* \"#utility.yul\":8024:8090   */\n      0xffffffffffffffffffffffffffffffffffffffffffffffffffffffffffffffff\n        /* \"#utility.yul\":8017:8022   */\n      dup3\n        /* \"#utility.yul\":8014:8091   */\n      sub\n        /* \"#utility.yul\":8011:8114   */\n      tag_327\n      jumpi\n        /* \"#utility.yul\":8094:8112   */\n      tag_328\n      tag_237\n      jump\t// in\n    tag_328:\n        /* \"#utility.yul\":8011:8114   */\n    tag_327:\n        /* \"#utility.yul\":8141:8142   */\n      0x01\n        /* \"#utility.yul\":8134:8139   */\n      dup3\n        /* \"#utility.yul\":8130:8143   */\n      add\n        /* \"#utility.yul\":8123:8143   */\n      swap1\n      pop\n        /* \"#utility.yul\":7916:8149   */\n      swap2\n      swap1\n      pop\n      jump\t// out\n        /* \"#utility.yul\":8155:8346   */\n    tag_33:\n        /* \"#utility.yul\":8195:8198   */\n      0x00\n        /* \"#utility.yul\":8214:8234   */\n      tag_330\n        /* \"#utility.yul\":8232:8233   */\n      dup3\n        /* \"#utility.yul\":8214:8234   */\n      tag_221\n      jump\t// in\n    tag_330:\n        /* \"#utility.yul\":8209:8234   */\n      swap2\n      pop\n        /* \"#utility.yul\":8248:8268   */\n      tag_331\n        /* \"#utility.yul\":8266:8267   */\n      dup4\n        /* \"#utility.yul\":8248:8268   */\n      tag_221\n      jump\t// in\n    tag_331:\n        /* \"#utility.yul\":8243:8268   */\n      swap3\n      pop\n        /* \"#utility.yul\":8291:8292   */\n      dup3\n        /* \"#utility.yul\":8288:8289   */\n      dup3\n        /* \"#utility.yul\":8284:8293   */\n      add\n        /* \"#utility.yul\":8277:8293   */\n      swap1\n      pop\n        /* \"#utility.yul\":8312:8315   */\n      dup1\n        /* \"#utility.yul\":8309:8310   */\n      dup3\n        /* \"#utility.yul\":8306:8316   */\n      gt\n        /* \"#utility.yul\":8303:8339   */\n      iszero\n      tag_332\n      jumpi\n        /* \"#utility.yul\":8319:8337   */\n      tag_333\n      tag_237\n      jump\t// in\n    tag_333:\n        /* \"#utility.yul\":8303:8339   */\n    tag_332:\n        /* \"#utility.yul\":8155:8346   */\n      swap3\n      swap2\n      pop\n      pop\n      jump\t// out\n        /* \"#utility.yul\":8352:8532   */\n    tag_238:\n        /* \"#utility.yul\":8400:8477   */\n      0x4e487b7100000000000000000000000000000000000000000000000000000000\n        /* \"#utility.yul\":8397:8398   */\n      0x00\n        /* \"#utility.yul\":8390:8478   */\n      mstore\n        /* \"#utility.yul\":8497:8501   */\n      0x12\n        /* \"#utility.yul\":8494:8495   */\n      0x04\n        /* \"#utility.yul\":8487:8502   */\n      mstore\n        /* \"#utility.yul\":8521:8525   */\n      0x24\n        /* \"#utility.yul\":8518:8519   */\n      0x00\n        /* \"#utility.yul\":8511:8526   */\n      revert\n        /* \"#utility.yul\":8538:8714   */\n    tag_111:\n        /* \"#utility.yul\":8570:8571   */\n      0x00\n        /* \"#utility.yul\":8587:8607   */\n      tag_336\n        /* \"#utility.yul\":8605:8606   */\n      dup3\n        /* \"#utility.yul\":8587:8607   */\n      tag_221\n      jump\t// in\n    tag_336:\n        /* \"#utility.yul\":8582:8607   */\n      swap2\n      pop\n        /* \"#utility.yul\":8621:8641   */\n      tag_337\n        /* \"#utility.yul\":8639:8640   */\n      dup4\n        /* \"#utility.yul\":8621:8641   */\n      tag_221\n      jump\t// in\n    tag_337:\n        /* \"#utility.yul\":8616:8641   */\n      swap3\n      pop\n        /* \"#utility.yul\":8660:8661   */\n      dup3\n        /* \"#utility.yul\":8650:8685   */\n      tag_338\n      jumpi\n        /* \"#utility.yul\":8665:8683   */\n      tag_339\n      tag_238\n      jump\t// in\n    tag_339:\n        /* \"#utility.yul\":8650:8685   */\n    tag_338:\n        /* \"#utility.yul\":8706:8707   */\n      dup3\n        /* \"#utility.yul\":8703:8704   */\n      dup3\n        /* \"#utility.yul\":8699:8708   */\n      mod\n        /* \"#utility.yul\":8694:8708   */\n      swap1\n      pop\n        /* \"#utility.yul\":8538:8714   */\n      swap3\n      swap2\n      pop\n      pop\n      jump\t// out\n        /* \"#utility.yul\":8720:8914   */\n    tag_113:\n        /* \"#utility.yul\":8760:8764   */\n      0x00\n        /* \"#utility.yul\":8780:8800   */\n      tag_341\n        /* \"#utility.yul\":8798:8799   */\n      dup3\n        /* \"#utility.yul\":8780:8800   */\n      tag_221\n      jump\t// in\n    tag_341:\n        /* \"#utility.yul\":8775:8800   */\n      swap2\n      pop\n        /* \"#utility.yul\":8814:8834   */\n      tag_342\n        /* \"#utility.yul\":8832:8833   */\n      dup4\n        /* \"#utility.yul\":8814:8834   */\n      tag_221\n      jump\t// in\n    tag_342:\n        /* \"#utility.yul\":8809:8834   */\n      swap3\n      pop\n        /* \"#utility.yul\":8858:8859   */\n      dup3\n        /* \"#utility.yul\":8855:8856   */\n      dup3\n        /* \"#utility.yul\":8851:8860   */\n      sub\n        /* \"#utility.yul\":8843:8860   */\n      swap1\n      pop\n        /* \"#utility.yul\":8882:8883   */\n      dup2\n        /* \"#utility.yul\":8876:8880   */\n      dup2\n        /* \"#utility.yul\":8873:8884   */\n      gt\n        /* \"#utility.yul\":8870:8907   */\n      iszero\n      tag_343\n      jumpi\n        /* \"#utility.yul\":8887:8905   */\n      tag_344\n      tag_237\n      jump\t// in\n    tag_344:\n        /* \"#utility.yul\":8870:8907   */\n    tag_343:\n        /* \"#utility.yul\":8720:8914   */\n      swap3\n      swap2\n      pop\n      pop\n      jump\t// out\n        /* \"#utility.yul\":8920:9330   */\n    tag_147:\n        /* \"#utility.yul\":8960:8967   */\n      0x00\n        /* \"#utility.yul\":8983:9003   */\n      tag_346\n        /* \"#utility.yul\":9001:9002   */\n      dup3\n        /* \"#utility.yul\":8983:9003   */\n      tag_221\n      jump\t// in\n    tag_346:\n        /* \"#utility.yul\":8978:9003   */\n      swap2\n      pop\n        /* \"#utility.yul\":9017:9037   */\n      tag_347\n        /* \"#utility.yul\":9035:9036   */\n      dup4\n        /* \"#utility.yul\":9017:9037   */\n      tag_221\n      jump\t// in\n    tag_347:\n        /* \"#utility.yul\":9012:9037   */\n      swap3\n      pop\n        /* \"#utility.yul\":9072:9073   */\n      dup3\n        /* \"#utility.yul\":9069:9070   */\n      dup3\n        /* \"#utility.yul\":9065:9074   */\n      mul\n        /* \"#utility.yul\":9094:9124   */\n      tag_348\n        /* \"#utility.yul\":9112:9123   */\n      dup2\n        /* \"#utility.yul\":9094:9124   */\n      tag_221\n      jump\t// in\n    tag_348:\n        /* \"#utility.yul\":9083:9124   */\n      swap2\n      pop\n        /* \"#utility.yul\":9273:9274   */\n      dup3\n        /* \"#utility.yul\":9264:9271   */\n      dup3\n        /* \"#utility.yul\":9260:9275   */\n      div\n        /* \"#utility.yul\":9257:9258   */\n      dup5\n        /* \"#utility.yul\":9254:9276   */\n      eq\n        /* \"#utility.yul\":9234:9235   */\n      dup4\n        /* \"#utility.yul\":9227:9236   */\n      iszero\n        /* \"#utility.yul\":9207:9290   */\n      or\n        /* \"#utility.yul\":9184:9323   */\n      tag_349\n      jumpi\n        /* \"#utility.yul\":9303:9321   */\n      tag_350\n      tag_237\n      jump\t// in\n    tag_350:\n        /* \"#utility.yul\":9184:9323   */\n    tag_349:\n        /* \"#utility.yul\":8968:9330   */\n      pop\n        /* \"#utility.yul\":8920:9330   */\n      swap3\n      swap2\n      pop\n      pop\n      jump\t// out\n\n    auxdata: 0xa26469706673582212207a1f2e7f07c5b806fa653590b3ab27d3312b1f566a066e829b5f54e7b14a398b64736f6c63430008120033\n}\n",
				"bytecode": {
					"linkReferences": {},
					"object": "608060405234801561001057600080fd5b5061159d806100206000396000f3fe608060405234801561001057600080fd5b506004361061002b5760003560e01c80630f9c5d4914610030575b600080fd5b61004a6004803603810190610045919061133f565b610060565b604051610057919061139c565b60405180910390f35b600080600367ffffffffffffffff81111561007e5761007d61101d565b5b6040519080825280602002602001820160405280156100ac5781602001602082028036833780820191505090505b50905060005b6003811015610105578381600381106100ce576100cd6113b7565b5b60200201518282815181106100e6576100e56113b7565b5b60200260200101818152505080806100fd90611415565b9150506100b2565b506000610112828661012d565b03610121576001915050610127565b60009150505b92915050565b6000807f30644e72e131a029b85045b68181585d2833e84879b9709143e1f593f00000019050600061015d6102c4565b905080608001515160018651610173919061145d565b1461017d57600080fd5b60006040518060400160405280600081526020016000815250905060005b865181101561023657838782815181106101b8576101b76113b7565b5b6020026020010151106101ca57600080fd5b6102218261021c85608001516001856101e3919061145d565b815181106101f4576101f36113b7565b5b60200260200101518a858151811061020f5761020e6113b7565b5b60200260200101516107b7565b610859565b9150808061022e90611415565b91505061019b565b50610260818360800151600081518110610253576102526113b7565b5b6020026020010151610859565b90506102a68560000151866020015161027884610921565b856040015161028a8a60400151610921565b876060015161029c8960000151610921565b89602001516109c6565b6102b657600193505050506102be565b600093505050505b92915050565b6102cc610ee9565b60405180604001604052807f0f4b32f1bd6458cf46b284dc93245f2ae17e458029758c6e92a5000b906bdcd281526020017f1ec187bad29b215c9dc358d4f2b82a176f0d9be76cba2e2c882fa17a9df8a3fe8152508160000181905250604051806040016040528060405180604001604052807f1e1f7dbdbf4630b9498e085f64525d6fecee3cd4a37f8c82a92a18202d5c193181526020017f2fef1b63eac92d9c3515555ee86abfdf7d87969dca3499e64abbf758f9372e7d815250815260200160405180604001604052807f27f19ddb42f0ca17004bd538732a72192c00962a583fc2d58cb6aa917b85fdd881526020017f214d4bb763e9d8caa31d6213123b14a4c76bb5c88a4e127b453c240fb86d2cf08152508152508160200181905250604051806040016040528060405180604001604052807e22040f27a5ace1ac3776910f7d20260f82cff51c6cf11b4b1f3133ab1273d181526020017f22c206afab437ae81ae6fada42bfea522f2f3d5cdbce622e1875b4706fb7e34d815250815260200160405180604001604052807f210694f9519746dd78135bb19c308ef8c7d054659d5906cfb211a0fef917b34181526020017f0bb73031d0074c626c2d2f0e17ca01893413e196d294c6c43276ceef5096d7e38152508152508160400181905250604051806040016040528060405180604001604052807f200d6cbcc089117801da9a500447c17ef1bc430a5a81766ab0816fa050756de281526020017f0bb17eff836c51714fb2cb777d23b7769773d7e18aa353072f4a2c98fba2ea46815250815260200160405180604001604052807f1b4b971d983987040cec02c5c22b761a4c2844058ee7afc0cfb0a44b857d6f0081526020017f2a7114da21e2424a573332d04ccbf8ace86e134026243d75aef5dedacb73b5ac8152508152508160600181905250600467ffffffffffffffff8111156105925761059161101d565b5b6040519080825280602002602001820160405280156105cb57816020015b6105b8610f30565b8152602001906001900390816105b05790505b50816080018190525060405180604001604052807f131abffde572e05e838b33ca81b605fe1cbe9a300ed2e757b2812174e09c6ac981526020017f2478c6c267f9f4f8f173c958ae6614428c59ab0668a4a0fb5f78b83076c291ce8152508160800151600081518110610641576106406113b7565b5b602002602001018190525060405180604001604052807f175cfc5d831aa3b5a34eae61ed7af6f1ab933cbcf68c4996e67e01c0a0e1b5be81526020017f24b32c892e1c1883c97b6001f6db1c8ac8375444d066aecf4691be3835218f7081525081608001516001815181106106b9576106b86113b7565b5b602002602001018190525060405180604001604052807f1975aee5672d2f05d8080d76dd24c7a8397505c369d0eb864ffa1d26f901bf9b81526020017f046bb0d9c23b1ecce914a6fb0e064bc34e4aa5cea6d2684e8d2b1a85e6b556f58152508160800151600281518110610731576107306113b7565b5b602002602001018190525060405180604001604052807f1387ba48dc4a432ac3d308da034c6f3dc7879acfa502dbd3d90ac5ef4f73cd6681526020017f2c07f572bbc963fc196203b9683ceb6d0a11c21480b17368bb28c66b6b9c668f81525081608001516003815181106107a9576107a86113b7565b5b602002602001018190525090565b6107bf610f30565b6107c7610f4a565b8360000151816000600381106107e0576107df6113b7565b5b602002018181525050836020015181600160038110610802576108016113b7565b5b60200201818152505082816002600381106108205761081f6113b7565b5b602002018181525050600060608360808460076107d05a03fa9050806000810361084657fe5b508061085157600080fd5b505092915050565b610861610f30565b610869610f6c565b836000015181600060048110610882576108816113b7565b5b6020020181815250508360200151816001600481106108a4576108a36113b7565b5b6020020181815250508260000151816002600481106108c6576108c56113b7565b5b6020020181815250508260200151816003600481106108e8576108e76113b7565b5b602002018181525050600060608360c08460066107d05a03fa9050806000810361090e57fe5b508061091957600080fd5b505092915050565b610929610f30565b60007f30644e72e131a029b85045b68181585d97816a916871ca8d3c208c16d87cfd47905060008360000151148015610966575060008360200151145b1561098a5760405180604001604052806000815260200160008152509150506109c1565b6040518060400160405280846000015181526020018285602001516109af91906114c0565b836109ba91906114f1565b8152509150505b919050565b600080600467ffffffffffffffff8111156109e4576109e361101d565b5b604051908082528060200260200182016040528015610a1d57816020015b610a0a610f30565b815260200190600190039081610a025790505b5090506000600467ffffffffffffffff811115610a3d57610a3c61101d565b5b604051908082528060200260200182016040528015610a7657816020015b610a63610f8e565b815260200190600190039081610a5b5790505b5090508a82600081518110610a8e57610a8d6113b7565b5b60200260200101819052508882600181518110610aae57610aad6113b7565b5b60200260200101819052508682600281518110610ace57610acd6113b7565b5b60200260200101819052508482600381518110610aee57610aed6113b7565b5b60200260200101819052508981600081518110610b0e57610b0d6113b7565b5b60200260200101819052508781600181518110610b2e57610b2d6113b7565b5b60200260200101819052508581600281518110610b4e57610b4d6113b7565b5b60200260200101819052508381600381518110610b6e57610b6d6113b7565b5b6020026020010181905250610b838282610b93565b9250505098975050505050505050565b60008151835114610ba357600080fd5b6000835190506000600682610bb89190611525565b905060008167ffffffffffffffff811115610bd657610bd561101d565b5b604051908082528060200260200182016040528015610c045781602001602082028036833780820191505090505b50905060005b83811015610e8957868181518110610c2557610c246113b7565b5b602002602001015160000151826000600684610c419190611525565b610c4b919061145d565b81518110610c5c57610c5b6113b7565b5b602002602001018181525050868181518110610c7b57610c7a6113b7565b5b602002602001015160200151826001600684610c979190611525565b610ca1919061145d565b81518110610cb257610cb16113b7565b5b602002602001018181525050858181518110610cd157610cd06113b7565b5b602002602001015160000151600160028110610cf057610cef6113b7565b5b6020020151826002600684610d059190611525565b610d0f919061145d565b81518110610d2057610d1f6113b7565b5b602002602001018181525050858181518110610d3f57610d3e6113b7565b5b602002602001015160000151600060028110610d5e57610d5d6113b7565b5b6020020151826003600684610d739190611525565b610d7d919061145d565b81518110610d8e57610d8d6113b7565b5b602002602001018181525050858181518110610dad57610dac6113b7565b5b602002602001015160200151600160028110610dcc57610dcb6113b7565b5b6020020151826004600684610de19190611525565b610deb919061145d565b81518110610dfc57610dfb6113b7565b5b602002602001018181525050858181518110610e1b57610e1a6113b7565b5b602002602001015160200151600060028110610e3a57610e396113b7565b5b6020020151826005600684610e4f9190611525565b610e59919061145d565b81518110610e6a57610e696113b7565b5b6020026020010181815250508080610e8190611415565b915050610c0a565b50610e92610fb4565b6000602082602086026020860160086107d05a03fa90508060008103610eb457fe5b5080610ebf57600080fd5b600082600060018110610ed557610ed46113b7565b5b602002015114159550505050505092915050565b6040518060a00160405280610efc610f30565b8152602001610f09610f8e565b8152602001610f16610f8e565b8152602001610f23610f8e565b8152602001606081525090565b604051806040016040528060008152602001600081525090565b6040518060600160405280600390602082028036833780820191505090505090565b6040518060800160405280600490602082028036833780820191505090505090565b6040518060400160405280610fa1610fd6565b8152602001610fae610fd6565b81525090565b6040518060200160405280600190602082028036833780820191505090505090565b6040518060400160405280600290602082028036833780820191505090505090565b6000604051905090565b600080fd5b600080fd5b6000601f19601f8301169050919050565b7f4e487b7100000000000000000000000000000000000000000000000000000000600052604160045260246000fd5b6110558261100c565b810181811067ffffffffffffffff821117156110745761107361101d565b5b80604052505050565b6000611087610ff8565b9050611093828261104c565b919050565b6000819050919050565b6110ab81611098565b81146110b657600080fd5b50565b6000813590506110c8816110a2565b92915050565b6000604082840312156110e4576110e3611007565b5b6110ee604061107d565b905060006110fe848285016110b9565b6000830152506020611112848285016110b9565b60208301525092915050565b600080fd5b600067ffffffffffffffff82111561113e5761113d61101d565b5b602082029050919050565b600080fd5b600061116161115c84611123565b61107d565b9050806020840283018581111561117b5761117a611149565b5b835b818110156111a4578061119088826110b9565b84526020840193505060208101905061117d565b5050509392505050565b600082601f8301126111c3576111c261111e565b5b60026111d084828561114e565b91505092915050565b6000608082840312156111ef576111ee611007565b5b6111f9604061107d565b90506000611209848285016111ae565b600083015250604061121d848285016111ae565b60208301525092915050565b600061010082840312156112405761123f611007565b5b61124a606061107d565b9050600061125a848285016110ce565b600083015250604061126e848285016111d9565b60208301525060c0611282848285016110ce565b60408301525092915050565b600067ffffffffffffffff8211156112a9576112a861101d565b5b602082029050919050565b60006112c76112c28461128e565b61107d565b905080602084028301858111156112e1576112e0611149565b5b835b8181101561130a57806112f688826110b9565b8452602084019350506020810190506112e3565b5050509392505050565b600082601f8301126113295761132861111e565b5b60036113368482856112b4565b91505092915050565b600080610160838503121561135757611356611002565b5b600061136585828601611229565b92505061010061137785828601611314565b9150509250929050565b60008115159050919050565b61139681611381565b82525050565b60006020820190506113b1600083018461138d565b92915050565b7f4e487b7100000000000000000000000000000000000000000000000000000000600052603260045260246000fd5b7f4e487b7100000000000000000000000000000000000000000000000000000000600052601160045260246000fd5b600061142082611098565b91507fffffffffffffffffffffffffffffffffffffffffffffffffffffffffffffffff8203611452576114516113e6565b5b600182019050919050565b600061146882611098565b915061147383611098565b925082820190508082111561148b5761148a6113e6565b5b92915050565b7f4e487b7100000000000000000000000000000000000000000000000000000000600052601260045260246000fd5b60006114cb82611098565b91506114d683611098565b9250826114e6576114e5611491565b5b828206905092915050565b60006114fc82611098565b915061150783611098565b925082820390508181111561151f5761151e6113e6565b5b92915050565b600061153082611098565b915061153b83611098565b925082820261154981611098565b915082820484148315176115605761155f6113e6565b5b509291505056fea26469706673582212207a1f2e7f07c5b806fa653590b3ab27d3312b1f566a066e829b5f54e7b14a398b64736f6c63430008120033",
					"opcodes": "PUSH1 0x80 PUSH1 0x40 MSTORE CALLVALUE DUP1 ISZERO PUSH2 0x10 JUMPI PUSH1 0x0 DUP1 REVERT JUMPDEST POP PUSH2 0x159D DUP1 PUSH2 0x20 PUSH1 0x0 CODECOPY PUSH1 0x0 RETURN INVALID PUSH1 0x80 PUSH1 0x40 MSTORE CALLVALUE DUP1 ISZERO PUSH2 0x10 JUMPI PUSH1 0x0 DUP1 REVERT JUMPDEST POP PUSH1 0x4 CALLDATASIZE LT PUSH2 0x2B JUMPI PUSH1 0x0 CALLDATALOAD PUSH1 0xE0 SHR DUP1 PUSH4 0xF9C5D49 EQ PUSH2 0x30 JUMPI JUMPDEST PUSH1 0x0 DUP1 REVERT JUMPDEST PUSH2 0x4A PUSH1 0x4 DUP1 CALLDATASIZE SUB DUP2 ADD SWAP1 PUSH2 0x45 SWAP2 SWAP1 PUSH2 0x133F JUMP JUMPDEST PUSH2 0x60 JUMP JUMPDEST PUSH1 0x40 MLOAD PUSH2 0x57 SWAP2 SWAP1 PUSH2 0x139C JUMP JUMPDEST PUSH1 0x40 MLOAD DUP1 SWAP2 SUB SWAP1 RETURN JUMPDEST PUSH1 0x0 DUP1 PUSH1 0x3 PUSH8 0xFFFFFFFFFFFFFFFF DUP2 GT ISZERO PUSH2 0x7E JUMPI PUSH2 0x7D PUSH2 0x101D JUMP JUMPDEST JUMPDEST PUSH1 0x40 MLOAD SWAP1 DUP1 DUP3 MSTORE DUP1 PUSH1 0x20 MUL PUSH1 0x20 ADD DUP3 ADD PUSH1 0x40 MSTORE DUP1 ISZERO PUSH2 0xAC JUMPI DUP2 PUSH1 0x20 ADD PUSH1 0x20 DUP3 MUL DUP1 CALLDATASIZE DUP4 CALLDATACOPY DUP1 DUP3 ADD SWAP2 POP POP SWAP1 POP JUMPDEST POP SWAP1 POP PUSH1 0x0 JUMPDEST PUSH1 0x3 DUP2 LT ISZERO PUSH2 0x105 JUMPI DUP4 DUP2 PUSH1 0x3 DUP2 LT PUSH2 0xCE JUMPI PUSH2 0xCD PUSH2 0x13B7 JUMP JUMPDEST JUMPDEST PUSH1 0x20 MUL ADD MLOAD DUP3 DUP3 DUP2 MLOAD DUP2 LT PUSH2 0xE6 JUMPI PUSH2 0xE5 PUSH2 0x13B7 JUMP JUMPDEST JUMPDEST PUSH1 0x20 MUL PUSH1 0x20 ADD ADD DUP2 DUP2 MSTORE POP POP DUP1 DUP1 PUSH2 0xFD SWAP1 PUSH2 0x1415 JUMP JUMPDEST SWAP2 POP POP PUSH2 0xB2 JUMP JUMPDEST POP PUSH1 0x0 PUSH2 0x112 DUP3 DUP7 PUSH2 0x12D JUMP JUMPDEST SUB PUSH2 0x121 JUMPI PUSH1 0x1 SWAP2 POP POP PUSH2 0x127 JUMP JUMPDEST PUSH1 0x0 SWAP2 POP POP JUMPDEST SWAP3 SWAP2 POP POP JUMP JUMPDEST PUSH1 0x0 DUP1 PUSH32 0x30644E72E131A029B85045B68181585D2833E84879B9709143E1F593F0000001 SWAP1 POP PUSH1 0x0 PUSH2 0x15D PUSH2 0x2C4 JUMP JUMPDEST SWAP1 POP DUP1 PUSH1 0x80 ADD MLOAD MLOAD PUSH1 0x1 DUP7 MLOAD PUSH2 0x173 SWAP2 SWAP1 PUSH2 0x145D JUMP JUMPDEST EQ PUSH2 0x17D JUMPI PUSH1 0x0 DUP1 REVERT JUMPDEST PUSH1 0x0 PUSH1 0x40 MLOAD DUP1 PUSH1 0x40 ADD PUSH1 0x40 MSTORE DUP1 PUSH1 0x0 DUP2 MSTORE PUSH1 0x20 ADD PUSH1 0x0 DUP2 MSTORE POP SWAP1 POP PUSH1 0x0 JUMPDEST DUP7 MLOAD DUP2 LT ISZERO PUSH2 0x236 JUMPI DUP4 DUP8 DUP3 DUP2 MLOAD DUP2 LT PUSH2 0x1B8 JUMPI PUSH2 0x1B7 PUSH2 0x13B7 JUMP JUMPDEST JUMPDEST PUSH1 0x20 MUL PUSH1 0x20 ADD ADD MLOAD LT PUSH2 0x1CA JUMPI PUSH1 0x0 DUP1 REVERT JUMPDEST PUSH2 0x221 DUP3 PUSH2 0x21C DUP6 PUSH1 0x80 ADD MLOAD PUSH1 0x1 DUP6 PUSH2 0x1E3 SWAP2 SWAP1 PUSH2 0x145D JUMP JUMPDEST DUP2 MLOAD DUP2 LT PUSH2 0x1F4 JUMPI PUSH2 0x1F3 PUSH2 0x13B7 JUMP JUMPDEST JUMPDEST PUSH1 0x20 MUL PUSH1 0x20 ADD ADD MLOAD DUP11 DUP6 DUP2 MLOAD DUP2 LT PUSH2 0x20F JUMPI PUSH2 0x20E PUSH2 0x13B7 JUMP JUMPDEST JUMPDEST PUSH1 0x20 MUL PUSH1 0x20 ADD ADD MLOAD PUSH2 0x7B7 JUMP JUMPDEST PUSH2 0x859 JUMP JUMPDEST SWAP2 POP DUP1 DUP1 PUSH2 0x22E SWAP1 PUSH2 0x1415 JUMP JUMPDEST SWAP2 POP POP PUSH2 0x19B JUMP JUMPDEST POP PUSH2 0x260 DUP2 DUP4 PUSH1 0x80 ADD MLOAD PUSH1 0x0 DUP2 MLOAD DUP2 LT PUSH2 0x253 JUMPI PUSH2 0x252 PUSH2 0x13B7 JUMP JUMPDEST JUMPDEST PUSH1 0x20 MUL PUSH1 0x20 ADD ADD MLOAD PUSH2 0x859 JUMP JUMPDEST SWAP1 POP PUSH2 0x2A6 DUP6 PUSH1 0x0 ADD MLOAD DUP7 PUSH1 0x20 ADD MLOAD PUSH2 0x278 DUP5 PUSH2 0x921 JUMP JUMPDEST DUP6 PUSH1 0x40 ADD MLOAD PUSH2 0x28A DUP11 PUSH1 0x40 ADD MLOAD PUSH2 0x921 JUMP JUMPDEST DUP8 PUSH1 0x60 ADD MLOAD PUSH2 0x29C DUP10 PUSH1 0x0 ADD MLOAD PUSH2 0x921 JUMP JUMPDEST DUP10 PUSH1 0x20 ADD MLOAD PUSH2 0x9C6 JUMP JUMPDEST PUSH2 0x2B6 JUMPI PUSH1 0x1 SWAP4 POP POP POP POP PUSH2 0x2BE JUMP JUMPDEST PUSH1 0x0 SWAP4 POP POP POP POP JUMPDEST SWAP3 SWAP2 POP POP JUMP JUMPDEST PUSH2 0x2CC PUSH2 0xEE9 JUMP JUMPDEST PUSH1 0x40 MLOAD DUP1 PUSH1 0x40 ADD PUSH1 0x40 MSTORE DUP1 PUSH32 0xF4B32F1BD6458CF46B284DC93245F2AE17E458029758C6E92A5000B906BDCD2 DUP2 MSTORE PUSH1 0x20 ADD PUSH32 0x1EC187BAD29B215C9DC358D4F2B82A176F0D9BE76CBA2E2C882FA17A9DF8A3FE DUP2 MSTORE POP DUP2 PUSH1 0x0 ADD DUP2 SWAP1 MSTORE POP PUSH1 0x40 MLOAD DUP1 PUSH1 0x40 ADD PUSH1 0x40 MSTORE DUP1 PUSH1 0x40 MLOAD DUP1 PUSH1 0x40 ADD PUSH1 0x40 MSTORE DUP1 PUSH32 0x1E1F7DBDBF4630B9498E085F64525D6FECEE3CD4A37F8C82A92A18202D5C1931 DUP2 MSTORE PUSH1 0x20 ADD PUSH32 0x2FEF1B63EAC92D9C3515555EE86ABFDF7D87969DCA3499E64ABBF758F9372E7D DUP2 MSTORE POP DUP2 MSTORE PUSH1 0x20 ADD PUSH1 0x40 MLOAD DUP1 PUSH1 0x40 ADD PUSH1 0x40 MSTORE DUP1 PUSH32 0x27F19DDB42F0CA17004BD538732A72192C00962A583FC2D58CB6AA917B85FDD8 DUP2 MSTORE PUSH1 0x20 ADD PUSH32 0x214D4BB763E9D8CAA31D6213123B14A4C76BB5C88A4E127B453C240FB86D2CF0 DUP2 MSTORE POP DUP2 MSTORE POP DUP2 PUSH1 0x20 ADD DUP2 SWAP1 MSTORE POP PUSH1 0x40 MLOAD DUP1 PUSH1 0x40 ADD PUSH1 0x40 MSTORE DUP1 PUSH1 0x40 MLOAD DUP1 PUSH1 0x40 ADD PUSH1 0x40 MSTORE DUP1 PUSH31 0x22040F27A5ACE1AC3776910F7D20260F82CFF51C6CF11B4B1F3133AB1273D1 DUP2 MSTORE PUSH1 0x20 ADD PUSH32 0x22C206AFAB437AE81AE6FADA42BFEA522F2F3D5CDBCE622E1875B4706FB7E34D DUP2 MSTORE POP DUP2 MSTORE PUSH1 0x20 ADD PUSH1 0x40 MLOAD DUP1 PUSH1 0x40 ADD PUSH1 0x40 MSTORE DUP1 PUSH32 0x210694F9519746DD78135BB19C308EF8C7D054659D5906CFB211A0FEF917B341 DUP2 MSTORE PUSH1 0x20 ADD PUSH32 0xBB73031D0074C626C2D2F0E17CA01893413E196D294C6C43276CEEF5096D7E3 DUP2 MSTORE POP DUP2 MSTORE POP DUP2 PUSH1 0x40 ADD DUP2 SWAP1 MSTORE POP PUSH1 0x40 MLOAD DUP1 PUSH1 0x40 ADD PUSH1 0x40 MSTORE DUP1 PUSH1 0x40 MLOAD DUP1 PUSH1 0x40 ADD PUSH1 0x40 MSTORE DUP1 PUSH32 0x200D6CBCC089117801DA9A500447C17EF1BC430A5A81766AB0816FA050756DE2 DUP2 MSTORE PUSH1 0x20 ADD PUSH32 0xBB17EFF836C51714FB2CB777D23B7769773D7E18AA353072F4A2C98FBA2EA46 DUP2 MSTORE POP DUP2 MSTORE PUSH1 0x20 ADD PUSH1 0x40 MLOAD DUP1 PUSH1 0x40 ADD PUSH1 0x40 MSTORE DUP1 PUSH32 0x1B4B971D983987040CEC02C5C22B761A4C2844058EE7AFC0CFB0A44B857D6F00 DUP2 MSTORE PUSH1 0x20 ADD PUSH32 0x2A7114DA21E2424A573332D04CCBF8ACE86E134026243D75AEF5DEDACB73B5AC DUP2 MSTORE POP DUP2 MSTORE POP DUP2 PUSH1 0x60 ADD DUP2 SWAP1 MSTORE POP PUSH1 0x4 PUSH8 0xFFFFFFFFFFFFFFFF DUP2 GT ISZERO PUSH2 0x592 JUMPI PUSH2 0x591 PUSH2 0x101D JUMP JUMPDEST JUMPDEST PUSH1 0x40 MLOAD SWAP1 DUP1 DUP3 MSTORE DUP1 PUSH1 0x20 MUL PUSH1 0x20 ADD DUP3 ADD PUSH1 0x40 MSTORE DUP1 ISZERO PUSH2 0x5CB JUMPI DUP2 PUSH1 0x20 ADD JUMPDEST PUSH2 0x5B8 PUSH2 0xF30 JUMP JUMPDEST DUP2 MSTORE PUSH1 0x20 ADD SWAP1 PUSH1 0x1 SWAP1 SUB SWAP1 DUP2 PUSH2 0x5B0 JUMPI SWAP1 POP JUMPDEST POP DUP2 PUSH1 0x80 ADD DUP2 SWAP1 MSTORE POP PUSH1 0x40 MLOAD DUP1 PUSH1 0x40 ADD PUSH1 0x40 MSTORE DUP1 PUSH32 0x131ABFFDE572E05E838B33CA81B605FE1CBE9A300ED2E757B2812174E09C6AC9 DUP2 MSTORE PUSH1 0x20 ADD PUSH32 0x2478C6C267F9F4F8F173C958AE6614428C59AB0668A4A0FB5F78B83076C291CE DUP2 MSTORE POP DUP2 PUSH1 0x80 ADD MLOAD PUSH1 0x0 DUP2 MLOAD DUP2 LT PUSH2 0x641 JUMPI PUSH2 0x640 PUSH2 0x13B7 JUMP JUMPDEST JUMPDEST PUSH1 0x20 MUL PUSH1 0x20 ADD ADD DUP2 SWAP1 MSTORE POP PUSH1 0x40 MLOAD DUP1 PUSH1 0x40 ADD PUSH1 0x40 MSTORE DUP1 PUSH32 0x175CFC5D831AA3B5A34EAE61ED7AF6F1AB933CBCF68C4996E67E01C0A0E1B5BE DUP2 MSTORE PUSH1 0x20 ADD PUSH32 0x24B32C892E1C1883C97B6001F6DB1C8AC8375444D066AECF4691BE3835218F70 DUP2 MSTORE POP DUP2 PUSH1 0x80 ADD MLOAD PUSH1 0x1 DUP2 MLOAD DUP2 LT PUSH2 0x6B9 JUMPI PUSH2 0x6B8 PUSH2 0x13B7 JUMP JUMPDEST JUMPDEST PUSH1 0x20 MUL PUSH1 0x20 ADD ADD DUP2 SWAP1 MSTORE POP PUSH1 0x40 MLOAD DUP1 PUSH1 0x40 ADD PUSH1 0x40 MSTORE DUP1 PUSH32 0x1975AEE5672D2F05D8080D76DD24C7A8397505C369D0EB864FFA1D26F901BF9B DUP2 MSTORE PUSH1 0x20 ADD PUSH32 0x46BB0D9C23B1ECCE914A6FB0E064BC34E4AA5CEA6D2684E8D2B1A85E6B556F5 DUP2 MSTORE POP DUP2 PUSH1 0x80 ADD MLOAD PUSH1 0x2 DUP2 MLOAD DUP2 LT PUSH2 0x731 JUMPI PUSH2 0x730 PUSH2 0x13B7 JUMP JUMPDEST JUMPDEST PUSH1 0x20 MUL PUSH1 0x20 ADD ADD DUP2 SWAP1 MSTORE POP PUSH1 0x40 MLOAD DUP1 PUSH1 0x40 ADD PUSH1 0x40 MSTORE DUP1 PUSH32 0x1387BA48DC4A432AC3D308DA034C6F3DC7879ACFA502DBD3D90AC5EF4F73CD66 DUP2 MSTORE PUSH1 0x20 ADD PUSH32 0x2C07F572BBC963FC196203B9683CEB6D0A11C21480B17368BB28C66B6B9C668F DUP2 MSTORE POP DUP2 PUSH1 0x80 ADD MLOAD PUSH1 0x3 DUP2 MLOAD DUP2 LT PUSH2 0x7A9 JUMPI PUSH2 0x7A8 PUSH2 0x13B7 JUMP JUMPDEST JUMPDEST PUSH1 0x20 MUL PUSH1 0x20 ADD ADD DUP2 SWAP1 MSTORE POP SWAP1 JUMP JUMPDEST PUSH2 0x7BF PUSH2 0xF30 JUMP JUMPDEST PUSH2 0x7C7 PUSH2 0xF4A JUMP JUMPDEST DUP4 PUSH1 0x0 ADD MLOAD DUP2 PUSH1 0x0 PUSH1 0x3 DUP2 LT PUSH2 0x7E0 JUMPI PUSH2 0x7DF PUSH2 0x13B7 JUMP JUMPDEST JUMPDEST PUSH1 0x20 MUL ADD DUP2 DUP2 MSTORE POP POP DUP4 PUSH1 0x20 ADD MLOAD DUP2 PUSH1 0x1 PUSH1 0x3 DUP2 LT PUSH2 0x802 JUMPI PUSH2 0x801 PUSH2 0x13B7 JUMP JUMPDEST JUMPDEST PUSH1 0x20 MUL ADD DUP2 DUP2 MSTORE POP POP DUP3 DUP2 PUSH1 0x2 PUSH1 0x3 DUP2 LT PUSH2 0x820 JUMPI PUSH2 0x81F PUSH2 0x13B7 JUMP JUMPDEST JUMPDEST PUSH1 0x20 MUL ADD DUP2 DUP2 MSTORE POP POP PUSH1 0x0 PUSH1 0x60 DUP4 PUSH1 0x80 DUP5 PUSH1 0x7 PUSH2 0x7D0 GAS SUB STATICCALL SWAP1 POP DUP1 PUSH1 0x0 DUP2 SUB PUSH2 0x846 JUMPI INVALID JUMPDEST POP DUP1 PUSH2 0x851 JUMPI PUSH1 0x0 DUP1 REVERT JUMPDEST POP POP SWAP3 SWAP2 POP POP JUMP JUMPDEST PUSH2 0x861 PUSH2 0xF30 JUMP JUMPDEST PUSH2 0x869 PUSH2 0xF6C JUMP JUMPDEST DUP4 PUSH1 0x0 ADD MLOAD DUP2 PUSH1 0x0 PUSH1 0x4 DUP2 LT PUSH2 0x882 JUMPI PUSH2 0x881 PUSH2 0x13B7 JUMP JUMPDEST JUMPDEST PUSH1 0x20 MUL ADD DUP2 DUP2 MSTORE POP POP DUP4 PUSH1 0x20 ADD MLOAD DUP2 PUSH1 0x1 PUSH1 0x4 DUP2 LT PUSH2 0x8A4 JUMPI PUSH2 0x8A3 PUSH2 0x13B7 JUMP JUMPDEST JUMPDEST PUSH1 0x20 MUL ADD DUP2 DUP2 MSTORE POP POP DUP3 PUSH1 0x0 ADD MLOAD DUP2 PUSH1 0x2 PUSH1 0x4 DUP2 LT PUSH2 0x8C6 JUMPI PUSH2 0x8C5 PUSH2 0x13B7 JUMP JUMPDEST JUMPDEST PUSH1 0x20 MUL ADD DUP2 DUP2 MSTORE POP POP DUP3 PUSH1 0x20 ADD MLOAD DUP2 PUSH1 0x3 PUSH1 0x4 DUP2 LT PUSH2 0x8E8 JUMPI PUSH2 0x8E7 PUSH2 0x13B7 JUMP JUMPDEST JUMPDEST PUSH1 0x20 MUL ADD DUP2 DUP2 MSTORE POP POP PUSH1 0x0 PUSH1 0x60 DUP4 PUSH1 0xC0 DUP5 PUSH1 0x6 PUSH2 0x7D0 GAS SUB STATICCALL SWAP1 POP DUP1 PUSH1 0x0 DUP2 SUB PUSH2 0x90E JUMPI INVALID JUMPDEST POP DUP1 PUSH2 0x919 JUMPI PUSH1 0x0 DUP1 REVERT JUMPDEST POP POP SWAP3 SWAP2 POP POP JUMP JUMPDEST PUSH2 0x929 PUSH2 0xF30 JUMP JUMPDEST PUSH1 0x0 PUSH32 0x30644E72E131A029B85045B68181585D97816A916871CA8D3C208C16D87CFD47 SWAP1 POP PUSH1 0x0 DUP4 PUSH1 0x0 ADD MLOAD EQ DUP1 ISZERO PUSH2 0x966 JUMPI POP PUSH1 0x0 DUP4 PUSH1 0x20 ADD MLOAD EQ JUMPDEST ISZERO PUSH2 0x98A JUMPI PUSH1 0x40 MLOAD DUP1 PUSH1 0x40 ADD PUSH1 0x40 MSTORE DUP1 PUSH1 0x0 DUP2 MSTORE PUSH1 0x20 ADD PUSH1 0x0 DUP2 MSTORE POP SWAP2 POP POP PUSH2 0x9C1 JUMP JUMPDEST PUSH1 0x40 MLOAD DUP1 PUSH1 0x40 ADD PUSH1 0x40 MSTORE DUP1 DUP5 PUSH1 0x0 ADD MLOAD DUP2 MSTORE PUSH1 0x20 ADD DUP3 DUP6 PUSH1 0x20 ADD MLOAD PUSH2 0x9AF SWAP2 SWAP1 PUSH2 0x14C0 JUMP JUMPDEST DUP4 PUSH2 0x9BA SWAP2 SWAP1 PUSH2 0x14F1 JUMP JUMPDEST DUP2 MSTORE POP SWAP2 POP POP JUMPDEST SWAP2 SWAP1 POP JUMP JUMPDEST PUSH1 0x0 DUP1 PUSH1 0x4 PUSH8 0xFFFFFFFFFFFFFFFF DUP2 GT ISZERO PUSH2 0x9E4 JUMPI PUSH2 0x9E3 PUSH2 0x101D JUMP JUMPDEST JUMPDEST PUSH1 0x40 MLOAD SWAP1 DUP1 DUP3 MSTORE DUP1 PUSH1 0x20 MUL PUSH1 0x20 ADD DUP3 ADD PUSH1 0x40 MSTORE DUP1 ISZERO PUSH2 0xA1D JUMPI DUP2 PUSH1 0x20 ADD JUMPDEST PUSH2 0xA0A PUSH2 0xF30 JUMP JUMPDEST DUP2 MSTORE PUSH1 0x20 ADD SWAP1 PUSH1 0x1 SWAP1 SUB SWAP1 DUP2 PUSH2 0xA02 JUMPI SWAP1 POP JUMPDEST POP SWAP1 POP PUSH1 0x0 PUSH1 0x4 PUSH8 0xFFFFFFFFFFFFFFFF DUP2 GT ISZERO PUSH2 0xA3D JUMPI PUSH2 0xA3C PUSH2 0x101D JUMP JUMPDEST JUMPDEST PUSH1 0x40 MLOAD SWAP1 DUP1 DUP3 MSTORE DUP1 PUSH1 0x20 MUL PUSH1 0x20 ADD DUP3 ADD PUSH1 0x40 MSTORE DUP1 ISZERO PUSH2 0xA76 JUMPI DUP2 PUSH1 0x20 ADD JUMPDEST PUSH2 0xA63 PUSH2 0xF8E JUMP JUMPDEST DUP2 MSTORE PUSH1 0x20 ADD SWAP1 PUSH1 0x1 SWAP1 SUB SWAP1 DUP2 PUSH2 0xA5B JUMPI SWAP1 POP JUMPDEST POP SWAP1 POP DUP11 DUP3 PUSH1 0x0 DUP2 MLOAD DUP2 LT PUSH2 0xA8E JUMPI PUSH2 0xA8D PUSH2 0x13B7 JUMP JUMPDEST JUMPDEST PUSH1 0x20 MUL PUSH1 0x20 ADD ADD DUP2 SWAP1 MSTORE POP DUP9 DUP3 PUSH1 0x1 DUP2 MLOAD DUP2 LT PUSH2 0xAAE JUMPI PUSH2 0xAAD PUSH2 0x13B7 JUMP JUMPDEST JUMPDEST PUSH1 0x20 MUL PUSH1 0x20 ADD ADD DUP2 SWAP1 MSTORE POP DUP7 DUP3 PUSH1 0x2 DUP2 MLOAD DUP2 LT PUSH2 0xACE JUMPI PUSH2 0xACD PUSH2 0x13B7 JUMP JUMPDEST JUMPDEST PUSH1 0x20 MUL PUSH1 0x20 ADD ADD DUP2 SWAP1 MSTORE POP DUP5 DUP3 PUSH1 0x3 DUP2 MLOAD DUP2 LT PUSH2 0xAEE JUMPI PUSH2 0xAED PUSH2 0x13B7 JUMP JUMPDEST JUMPDEST PUSH1 0x20 MUL PUSH1 0x20 ADD ADD DUP2 SWAP1 MSTORE POP DUP10 DUP2 PUSH1 0x0 DUP2 MLOAD DUP2 LT PUSH2 0xB0E JUMPI PUSH2 0xB0D PUSH2 0x13B7 JUMP JUMPDEST JUMPDEST PUSH1 0x20 MUL PUSH1 0x20 ADD ADD DUP2 SWAP1 MSTORE POP DUP8 DUP2 PUSH1 0x1 DUP2 MLOAD DUP2 LT PUSH2 0xB2E JUMPI PUSH2 0xB2D PUSH2 0x13B7 JUMP JUMPDEST JUMPDEST PUSH1 0x20 MUL PUSH1 0x20 ADD ADD DUP2 SWAP1 MSTORE POP DUP6 DUP2 PUSH1 0x2 DUP2 MLOAD DUP2 LT PUSH2 0xB4E JUMPI PUSH2 0xB4D PUSH2 0x13B7 JUMP JUMPDEST JUMPDEST PUSH1 0x20 MUL PUSH1 0x20 ADD ADD DUP2 SWAP1 MSTORE POP DUP4 DUP2 PUSH1 0x3 DUP2 MLOAD DUP2 LT PUSH2 0xB6E JUMPI PUSH2 0xB6D PUSH2 0x13B7 JUMP JUMPDEST JUMPDEST PUSH1 0x20 MUL PUSH1 0x20 ADD ADD DUP2 SWAP1 MSTORE POP PUSH2 0xB83 DUP3 DUP3 PUSH2 0xB93 JUMP JUMPDEST SWAP3 POP POP POP SWAP9 SWAP8 POP POP POP POP POP POP POP POP JUMP JUMPDEST PUSH1 0x0 DUP2 MLOAD DUP4 MLOAD EQ PUSH2 0xBA3 JUMPI PUSH1 0x0 DUP1 REVERT JUMPDEST PUSH1 0x0 DUP4 MLOAD SWAP1 POP PUSH1 0x0 PUSH1 0x6 DUP3 PUSH2 0xBB8 SWAP2 SWAP1 PUSH2 0x1525 JUMP JUMPDEST SWAP1 POP PUSH1 0x0 DUP2 PUSH8 0xFFFFFFFFFFFFFFFF DUP2 GT ISZERO PUSH2 0xBD6 JUMPI PUSH2 0xBD5 PUSH2 0x101D JUMP JUMPDEST JUMPDEST PUSH1 0x40 MLOAD SWAP1 DUP1 DUP3 MSTORE DUP1 PUSH1 0x20 MUL PUSH1 0x20 ADD DUP3 ADD PUSH1 0x40 MSTORE DUP1 ISZERO PUSH2 0xC04 JUMPI DUP2 PUSH1 0x20 ADD PUSH1 0x20 DUP3 MUL DUP1 CALLDATASIZE DUP4 CALLDATACOPY DUP1 DUP3 ADD SWAP2 POP POP SWAP1 POP JUMPDEST POP SWAP1 POP PUSH1 0x0 JUMPDEST DUP4 DUP2 LT ISZERO PUSH2 0xE89 JUMPI DUP7 DUP2 DUP2 MLOAD DUP2 LT PUSH2 0xC25 JUMPI PUSH2 0xC24 PUSH2 0x13B7 JUMP JUMPDEST JUMPDEST PUSH1 0x20 MUL PUSH1 0x20 ADD ADD MLOAD PUSH1 0x0 ADD MLOAD DUP3 PUSH1 0x0 PUSH1 0x6 DUP5 PUSH2 0xC41 SWAP2 SWAP1 PUSH2 0x1525 JUMP JUMPDEST PUSH2 0xC4B SWAP2 SWAP1 PUSH2 0x145D JUMP JUMPDEST DUP2 MLOAD DUP2 LT PUSH2 0xC5C JUMPI PUSH2 0xC5B PUSH2 0x13B7 JUMP JUMPDEST JUMPDEST PUSH1 0x20 MUL PUSH1 0x20 ADD ADD DUP2 DUP2 MSTORE POP POP DUP7 DUP2 DUP2 MLOAD DUP2 LT PUSH2 0xC7B JUMPI PUSH2 0xC7A PUSH2 0x13B7 JUMP JUMPDEST JUMPDEST PUSH1 0x20 MUL PUSH1 0x20 ADD ADD MLOAD PUSH1 0x20 ADD MLOAD DUP3 PUSH1 0x1 PUSH1 0x6 DUP5 PUSH2 0xC97 SWAP2 SWAP1 PUSH2 0x1525 JUMP JUMPDEST PUSH2 0xCA1 SWAP2 SWAP1 PUSH2 0x145D JUMP JUMPDEST DUP2 MLOAD DUP2 LT PUSH2 0xCB2 JUMPI PUSH2 0xCB1 PUSH2 0x13B7 JUMP JUMPDEST JUMPDEST PUSH1 0x20 MUL PUSH1 0x20 ADD ADD DUP2 DUP2 MSTORE POP POP DUP6 DUP2 DUP2 MLOAD DUP2 LT PUSH2 0xCD1 JUMPI PUSH2 0xCD0 PUSH2 0x13B7 JUMP JUMPDEST JUMPDEST PUSH1 0x20 MUL PUSH1 0x20 ADD ADD MLOAD PUSH1 0x0 ADD MLOAD PUSH1 0x1 PUSH1 0x2 DUP2 LT PUSH2 0xCF0 JUMPI PUSH2 0xCEF PUSH2 0x13B7 JUMP JUMPDEST JUMPDEST PUSH1 0x20 MUL ADD MLOAD DUP3 PUSH1 0x2 PUSH1 0x6 DUP5 PUSH2 0xD05 SWAP2 SWAP1 PUSH2 0x1525 JUMP JUMPDEST PUSH2 0xD0F SWAP2 SWAP1 PUSH2 0x145D JUMP JUMPDEST DUP2 MLOAD DUP2 LT PUSH2 0xD20 JUMPI PUSH2 0xD1F PUSH2 0x13B7 JUMP JUMPDEST JUMPDEST PUSH1 0x20 MUL PUSH1 0x20 ADD ADD DUP2 DUP2 MSTORE POP POP DUP6 DUP2 DUP2 MLOAD DUP2 LT PUSH2 0xD3F JUMPI PUSH2 0xD3E PUSH2 0x13B7 JUMP JUMPDEST JUMPDEST PUSH1 0x20 MUL PUSH1 0x20 ADD ADD MLOAD PUSH1 0x0 ADD MLOAD PUSH1 0x0 PUSH1 0x2 DUP2 LT PUSH2 0xD5E JUMPI PUSH2 0xD5D PUSH2 0x13B7 JUMP JUMPDEST JUMPDEST PUSH1 0x20 MUL ADD MLOAD DUP3 PUSH1 0x3 PUSH1 0x6 DUP5 PUSH2 0xD73 SWAP2 SWAP1 PUSH2 0x1525 JUMP JUMPDEST PUSH2 0xD7D SWAP2 SWAP1 PUSH2 0x145D JUMP JUMPDEST DUP2 MLOAD DUP2 LT PUSH2 0xD8E JUMPI PUSH2 0xD8D PUSH2 0x13B7 JUMP JUMPDEST JUMPDEST PUSH1 0x20 MUL PUSH1 0x20 ADD ADD DUP2 DUP2 MSTORE POP POP DUP6 DUP2 DUP2 MLOAD DUP2 LT PUSH2 0xDAD JUMPI PUSH2 0xDAC PUSH2 0x13B7 JUMP JUMPDEST JUMPDEST PUSH1 0x20 MUL PUSH1 0x20 ADD ADD MLOAD PUSH1 0x20 ADD MLOAD PUSH1 0x1 PUSH1 0x2 DUP2 LT PUSH2 0xDCC JUMPI PUSH2 0xDCB PUSH2 0x13B7 JUMP JUMPDEST JUMPDEST PUSH1 0x20 MUL ADD MLOAD DUP3 PUSH1 0x4 PUSH1 0x6 DUP5 PUSH2 0xDE1 SWAP2 SWAP1 PUSH2 0x1525 JUMP JUMPDEST PUSH2 0xDEB SWAP2 SWAP1 PUSH2 0x145D JUMP JUMPDEST DUP2 MLOAD DUP2 LT PUSH2 0xDFC JUMPI PUSH2 0xDFB PUSH2 0x13B7 JUMP JUMPDEST JUMPDEST PUSH1 0x20 MUL PUSH1 0x20 ADD ADD DUP2 DUP2 MSTORE POP POP DUP6 DUP2 DUP2 MLOAD DUP2 LT PUSH2 0xE1B JUMPI PUSH2 0xE1A PUSH2 0x13B7 JUMP JUMPDEST JUMPDEST PUSH1 0x20 MUL PUSH1 0x20 ADD ADD MLOAD PUSH1 0x20 ADD MLOAD PUSH1 0x0 PUSH1 0x2 DUP2 LT PUSH2 0xE3A JUMPI PUSH2 0xE39 PUSH2 0x13B7 JUMP JUMPDEST JUMPDEST PUSH1 0x20 MUL ADD MLOAD DUP3 PUSH1 0x5 PUSH1 0x6 DUP5 PUSH2 0xE4F SWAP2 SWAP1 PUSH2 0x1525 JUMP JUMPDEST PUSH2 0xE59 SWAP2 SWAP1 PUSH2 0x145D JUMP JUMPDEST DUP2 MLOAD DUP2 LT PUSH2 0xE6A JUMPI PUSH2 0xE69 PUSH2 0x13B7 JUMP JUMPDEST JUMPDEST PUSH1 0x20 MUL PUSH1 0x20 ADD ADD DUP2 DUP2 MSTORE POP POP DUP1 DUP1 PUSH2 0xE81 SWAP1 PUSH2 0x1415 JUMP JUMPDEST SWAP2 POP POP PUSH2 0xC0A JUMP JUMPDEST POP PUSH2 0xE92 PUSH2 0xFB4 JUMP JUMPDEST PUSH1 0x0 PUSH1 0x20 DUP3 PUSH1 0x20 DUP7 MUL PUSH1 0x20 DUP7 ADD PUSH1 0x8 PUSH2 0x7D0 GAS SUB STATICCALL SWAP1 POP DUP1 PUSH1 0x0 DUP2 SUB PUSH2 0xEB4 JUMPI INVALID JUMPDEST POP DUP1 PUSH2 0xEBF JUMPI PUSH1 0x0 DUP1 REVERT JUMPDEST PUSH1 0x0 DUP3 PUSH1 0x0 PUSH1 0x1 DUP2 LT PUSH2 0xED5 JUMPI PUSH2 0xED4 PUSH2 0x13B7 JUMP JUMPDEST JUMPDEST PUSH1 0x20 MUL ADD MLOAD EQ ISZERO SWAP6 POP POP POP POP POP POP SWAP3 SWAP2 POP POP JUMP JUMPDEST PUSH1 0x40 MLOAD DUP1 PUSH1 0xA0 ADD PUSH1 0x40 MSTORE DUP1 PUSH2 0xEFC PUSH2 0xF30 JUMP JUMPDEST DUP2 MSTORE PUSH1 0x20 ADD PUSH2 0xF09 PUSH2 0xF8E JUMP JUMPDEST DUP2 MSTORE PUSH1 0x20 ADD PUSH2 0xF16 PUSH2 0xF8E JUMP JUMPDEST DUP2 MSTORE PUSH1 0x20 ADD PUSH2 0xF23 PUSH2 0xF8E JUMP JUMPDEST DUP2 MSTORE PUSH1 0x20 ADD PUSH1 0x60 DUP2 MSTORE POP SWAP1 JUMP JUMPDEST PUSH1 0x40 MLOAD DUP1 PUSH1 0x40 ADD PUSH1 0x40 MSTORE DUP1 PUSH1 0x0 DUP2 MSTORE PUSH1 0x20 ADD PUSH1 0x0 DUP2 MSTORE POP SWAP1 JUMP JUMPDEST PUSH1 0x40 MLOAD DUP1 PUSH1 0x60 ADD PUSH1 0x40 MSTORE DUP1 PUSH1 0x3 SWAP1 PUSH1 0x20 DUP3 MUL DUP1 CALLDATASIZE DUP4 CALLDATACOPY DUP1 DUP3 ADD SWAP2 POP POP SWAP1 POP POP SWAP1 JUMP JUMPDEST PUSH1 0x40 MLOAD DUP1 PUSH1 0x80 ADD PUSH1 0x40 MSTORE DUP1 PUSH1 0x4 SWAP1 PUSH1 0x20 DUP3 MUL DUP1 CALLDATASIZE DUP4 CALLDATACOPY DUP1 DUP3 ADD SWAP2 POP POP SWAP1 POP POP SWAP1 JUMP JUMPDEST PUSH1 0x40 MLOAD DUP1 PUSH1 0x40 ADD PUSH1 0x40 MSTORE DUP1 PUSH2 0xFA1 PUSH2 0xFD6 JUMP JUMPDEST DUP2 MSTORE PUSH1 0x20 ADD PUSH2 0xFAE PUSH2 0xFD6 JUMP JUMPDEST DUP2 MSTORE POP SWAP1 JUMP JUMPDEST PUSH1 0x40 MLOAD DUP1 PUSH1 0x20 ADD PUSH1 0x40 MSTORE DUP1 PUSH1 0x1 SWAP1 PUSH1 0x20 DUP3 MUL DUP1 CALLDATASIZE DUP4 CALLDATACOPY DUP1 DUP3 ADD SWAP2 POP POP SWAP1 POP POP SWAP1 JUMP JUMPDEST PUSH1 0x40 MLOAD DUP1 PUSH1 0x40 ADD PUSH1 0x40 MSTORE DUP1 PUSH1 0x2 SWAP1 PUSH1 0x20 DUP3 MUL DUP1 CALLDATASIZE DUP4 CALLDATACOPY DUP1 DUP3 ADD SWAP2 POP POP SWAP1 POP POP SWAP1 JUMP JUMPDEST PUSH1 0x0 PUSH1 0x40 MLOAD SWAP1 POP SWAP1 JUMP JUMPDEST PUSH1 0x0 DUP1 REVERT JUMPDEST PUSH1 0x0 DUP1 REVERT JUMPDEST PUSH1 0x0 PUSH1 0x1F NOT PUSH1 0x1F DUP4 ADD AND SWAP1 POP SWAP2 SWAP1 POP JUMP JUMPDEST PUSH32 0x4E487B7100000000000000000000000000000000000000000000000000000000 PUSH1 0x0 MSTORE PUSH1 0x41 PUSH1 0x4 MSTORE PUSH1 0x24 PUSH1 0x0 REVERT JUMPDEST PUSH2 0x1055 DUP3 PUSH2 0x100C JUMP JUMPDEST DUP2 ADD DUP2 DUP2 LT PUSH8 0xFFFFFFFFFFFFFFFF DUP3 GT OR ISZERO PUSH2 0x1074 JUMPI PUSH2 0x1073 PUSH2 0x101D JUMP JUMPDEST JUMPDEST DUP1 PUSH1 0x40 MSTORE POP POP POP JUMP JUMPDEST PUSH1 0x0 PUSH2 0x1087 PUSH2 0xFF8 JUMP JUMPDEST SWAP1 POP PUSH2 0x1093 DUP3 DUP3 PUSH2 0x104C JUMP JUMPDEST SWAP2 SWAP1 POP JUMP JUMPDEST PUSH1 0x0 DUP2 SWAP1 POP SWAP2 SWAP1 POP JUMP JUMPDEST PUSH2 0x10AB DUP2 PUSH2 0x1098 JUMP JUMPDEST DUP2 EQ PUSH2 0x10B6 JUMPI PUSH1 0x0 DUP1 REVERT JUMPDEST POP JUMP JUMPDEST PUSH1 0x0 DUP2 CALLDATALOAD SWAP1 POP PUSH2 0x10C8 DUP2 PUSH2 0x10A2 JUMP JUMPDEST SWAP3 SWAP2 POP POP JUMP JUMPDEST PUSH1 0x0 PUSH1 0x40 DUP3 DUP5 SUB SLT ISZERO PUSH2 0x10E4 JUMPI PUSH2 0x10E3 PUSH2 0x1007 JUMP JUMPDEST JUMPDEST PUSH2 0x10EE PUSH1 0x40 PUSH2 0x107D JUMP JUMPDEST SWAP1 POP PUSH1 0x0 PUSH2 0x10FE DUP5 DUP3 DUP6 ADD PUSH2 0x10B9 JUMP JUMPDEST PUSH1 0x0 DUP4 ADD MSTORE POP PUSH1 0x20 PUSH2 0x1112 DUP5 DUP3 DUP6 ADD PUSH2 0x10B9 JUMP JUMPDEST PUSH1 0x20 DUP4 ADD MSTORE POP SWAP3 SWAP2 POP POP JUMP JUMPDEST PUSH1 0x0 DUP1 REVERT JUMPDEST PUSH1 0x0 PUSH8 0xFFFFFFFFFFFFFFFF DUP3 GT ISZERO PUSH2 0x113E JUMPI PUSH2 0x113D PUSH2 0x101D JUMP JUMPDEST JUMPDEST PUSH1 0x20 DUP3 MUL SWAP1 POP SWAP2 SWAP1 POP JUMP JUMPDEST PUSH1 0x0 DUP1 REVERT JUMPDEST PUSH1 0x0 PUSH2 0x1161 PUSH2 0x115C DUP5 PUSH2 0x1123 JUMP JUMPDEST PUSH2 0x107D JUMP JUMPDEST SWAP1 POP DUP1 PUSH1 0x20 DUP5 MUL DUP4 ADD DUP6 DUP2 GT ISZERO PUSH2 0x117B JUMPI PUSH2 0x117A PUSH2 0x1149 JUMP JUMPDEST JUMPDEST DUP4 JUMPDEST DUP2 DUP2 LT ISZERO PUSH2 0x11A4 JUMPI DUP1 PUSH2 0x1190 DUP9 DUP3 PUSH2 0x10B9 JUMP JUMPDEST DUP5 MSTORE PUSH1 0x20 DUP5 ADD SWAP4 POP POP PUSH1 0x20 DUP2 ADD SWAP1 POP PUSH2 0x117D JUMP JUMPDEST POP POP POP SWAP4 SWAP3 POP POP POP JUMP JUMPDEST PUSH1 0x0 DUP3 PUSH1 0x1F DUP4 ADD SLT PUSH2 0x11C3 JUMPI PUSH2 0x11C2 PUSH2 0x111E JUMP JUMPDEST JUMPDEST PUSH1 0x2 PUSH2 0x11D0 DUP5 DUP3 DUP6 PUSH2 0x114E JUMP JUMPDEST SWAP2 POP POP SWAP3 SWAP2 POP POP JUMP JUMPDEST PUSH1 0x0 PUSH1 0x80 DUP3 DUP5 SUB SLT ISZERO PUSH2 0x11EF JUMPI PUSH2 0x11EE PUSH2 0x1007 JUMP JUMPDEST JUMPDEST PUSH2 0x11F9 PUSH1 0x40 PUSH2 0x107D JUMP JUMPDEST SWAP1 POP PUSH1 0x0 PUSH2 0x1209 DUP5 DUP3 DUP6 ADD PUSH2 0x11AE JUMP JUMPDEST PUSH1 0x0 DUP4 ADD MSTORE POP PUSH1 0x40 PUSH2 0x121D DUP5 DUP3 DUP6 ADD PUSH2 0x11AE JUMP JUMPDEST PUSH1 0x20 DUP4 ADD MSTORE POP SWAP3 SWAP2 POP POP JUMP JUMPDEST PUSH1 0x0 PUSH2 0x100 DUP3 DUP5 SUB SLT ISZERO PUSH2 0x1240 JUMPI PUSH2 0x123F PUSH2 0x1007 JUMP JUMPDEST JUMPDEST PUSH2 0x124A PUSH1 0x60 PUSH2 0x107D JUMP JUMPDEST SWAP1 POP PUSH1 0x0 PUSH2 0x125A DUP5 DUP3 DUP6 ADD PUSH2 0x10CE JUMP JUMPDEST PUSH1 0x0 DUP4 ADD MSTORE POP PUSH1 0x40 PUSH2 0x126E DUP5 DUP3 DUP6 ADD PUSH2 0x11D9 JUMP JUMPDEST PUSH1 0x20 DUP4 ADD MSTORE POP PUSH1 0xC0 PUSH2 0x1282 DUP5 DUP3 DUP6 ADD PUSH2 0x10CE JUMP JUMPDEST PUSH1 0x40 DUP4 ADD MSTORE POP SWAP3 SWAP2 POP POP JUMP JUMPDEST PUSH1 0x0 PUSH8 0xFFFFFFFFFFFFFFFF DUP3 GT ISZERO PUSH2 0x12A9 JUMPI PUSH2 0x12A8 PUSH2 0x101D JUMP JUMPDEST JUMPDEST PUSH1 0x20 DUP3 MUL SWAP1 POP SWAP2 SWAP1 POP JUMP JUMPDEST PUSH1 0x0 PUSH2 0x12C7 PUSH2 0x12C2 DUP5 PUSH2 0x128E JUMP JUMPDEST PUSH2 0x107D JUMP JUMPDEST SWAP1 POP DUP1 PUSH1 0x20 DUP5 MUL DUP4 ADD DUP6 DUP2 GT ISZERO PUSH2 0x12E1 JUMPI PUSH2 0x12E0 PUSH2 0x1149 JUMP JUMPDEST JUMPDEST DUP4 JUMPDEST DUP2 DUP2 LT ISZERO PUSH2 0x130A JUMPI DUP1 PUSH2 0x12F6 DUP9 DUP3 PUSH2 0x10B9 JUMP JUMPDEST DUP5 MSTORE PUSH1 0x20 DUP5 ADD SWAP4 POP POP PUSH1 0x20 DUP2 ADD SWAP1 POP PUSH2 0x12E3 JUMP JUMPDEST POP POP POP SWAP4 SWAP3 POP POP POP JUMP JUMPDEST PUSH1 0x0 DUP3 PUSH1 0x1F DUP4 ADD SLT PUSH2 0x1329 JUMPI PUSH2 0x1328 PUSH2 0x111E JUMP JUMPDEST JUMPDEST PUSH1 0x3 PUSH2 0x1336 DUP5 DUP3 DUP6 PUSH2 0x12B4 JUMP JUMPDEST SWAP2 POP POP SWAP3 SWAP2 POP POP JUMP JUMPDEST PUSH1 0x0 DUP1 PUSH2 0x160 DUP4 DUP6 SUB SLT ISZERO PUSH2 0x1357 JUMPI PUSH2 0x1356 PUSH2 0x1002 JUMP JUMPDEST JUMPDEST PUSH1 0x0 PUSH2 0x1365 DUP6 DUP3 DUP7 ADD PUSH2 0x1229 JUMP JUMPDEST SWAP3 POP POP PUSH2 0x100 PUSH2 0x1377 DUP6 DUP3 DUP7 ADD PUSH2 0x1314 JUMP JUMPDEST SWAP2 POP POP SWAP3 POP SWAP3 SWAP1 POP JUMP JUMPDEST PUSH1 0x0 DUP2 ISZERO ISZERO SWAP1 POP SWAP2 SWAP1 POP JUMP JUMPDEST PUSH2 0x1396 DUP2 PUSH2 0x1381 JUMP JUMPDEST DUP3 MSTORE POP POP JUMP JUMPDEST PUSH1 0x0 PUSH1 0x20 DUP3 ADD SWAP1 POP PUSH2 0x13B1 PUSH1 0x0 DUP4 ADD DUP5 PUSH2 0x138D JUMP JUMPDEST SWAP3 SWAP2 POP POP JUMP JUMPDEST PUSH32 0x4E487B7100000000000000000000000000000000000000000000000000000000 PUSH1 0x0 MSTORE PUSH1 0x32 PUSH1 0x4 MSTORE PUSH1 0x24 PUSH1 0x0 REVERT JUMPDEST PUSH32 0x4E487B7100000000000000000000000000000000000000000000000000000000 PUSH1 0x0 MSTORE PUSH1 0x11 PUSH1 0x4 MSTORE PUSH1 0x24 PUSH1 0x0 REVERT JUMPDEST PUSH1 0x0 PUSH2 0x1420 DUP3 PUSH2 0x1098 JUMP JUMPDEST SWAP2 POP PUSH32 0xFFFFFFFFFFFFFFFFFFFFFFFFFFFFFFFFFFFFFFFFFFFFFFFFFFFFFFFFFFFFFFFF DUP3 SUB PUSH2 0x1452 JUMPI PUSH2 0x1451 PUSH2 0x13E6 JUMP JUMPDEST JUMPDEST PUSH1 0x1 DUP3 ADD SWAP1 POP SWAP2 SWAP1 POP JUMP JUMPDEST PUSH1 0x0 PUSH2 0x1468 DUP3 PUSH2 0x1098 JUMP JUMPDEST SWAP2 POP PUSH2 0x1473 DUP4 PUSH2 0x1098 JUMP JUMPDEST SWAP3 POP DUP3 DUP3 ADD SWAP1 POP DUP1 DUP3 GT ISZERO PUSH2 0x148B JUMPI PUSH2 0x148A PUSH2 0x13E6 JUMP JUMPDEST JUMPDEST SWAP3 SWAP2 POP POP JUMP JUMPDEST PUSH32 0x4E487B7100000000000000000000000000000000000000000000000000000000 PUSH1 0x0 MSTORE PUSH1 0x12 PUSH1 0x4 MSTORE PUSH1 0x24 PUSH1 0x0 REVERT JUMPDEST PUSH1 0x0 PUSH2 0x14CB DUP3 PUSH2 0x1098 JUMP JUMPDEST SWAP2 POP PUSH2 0x14D6 DUP4 PUSH2 0x1098 JUMP JUMPDEST SWAP3 POP DUP3 PUSH2 0x14E6 JUMPI PUSH2 0x14E5 PUSH2 0x1491 JUMP JUMPDEST JUMPDEST DUP3 DUP3 MOD SWAP1 POP SWAP3 SWAP2 POP POP JUMP JUMPDEST PUSH1 0x0 PUSH2 0x14FC DUP3 PUSH2 0x1098 JUMP JUMPDEST SWAP2 POP PUSH2 0x1507 DUP4 PUSH2 0x1098 JUMP JUMPDEST SWAP3 POP DUP3 DUP3 SUB SWAP1 POP DUP2 DUP2 GT ISZERO PUSH2 0x151F JUMPI PUSH2 0x151E PUSH2 0x13E6 JUMP JUMPDEST JUMPDEST SWAP3 SWAP2 POP POP JUMP JUMPDEST PUSH1 0x0 PUSH2 0x1530 DUP3 PUSH2 0x1098 JUMP JUMPDEST SWAP2 POP PUSH2 0x153B DUP4 PUSH2 0x1098 JUMP JUMPDEST SWAP3 POP DUP3 DUP3 MUL PUSH2 0x1549 DUP2 PUSH2 0x1098 JUMP JUMPDEST SWAP2 POP DUP3 DUP3 DIV DUP5 EQ DUP4 ISZERO OR PUSH2 0x1560 JUMPI PUSH2 0x155F PUSH2 0x13E6 JUMP JUMPDEST JUMPDEST POP SWAP3 SWAP2 POP POP JUMP INVALID LOG2 PUSH5 0x6970667358 0x22 SLT KECCAK256 PUSH27 0x1F2E7F07C5B806FA653590B3AB27D3312B1F566A066E829B5F54E7 0xB1 0x4A CODECOPY DUP12 PUSH5 0x736F6C6343 STOP ADDMOD SLT STOP CALLER "
				},
				"gasEstimates": {
					"creation": {
						"codeDepositCost": "1106600",
						"executionCost": "1147",
						"totalCost": "1107747"
					},
					"external": {
						"verifyTx(((uint256,uint256),(uint256[2],uint256[2]),(uint256,uint256)),uint256[3])": "infinite"
					},
					"internal": {
						"verify(uint256[] memory,struct Verifier.Proof memory)": "infinite",
						"verifyingKey()": "infinite"
					}
				},
				"methodIdentifiers": {
					"verifyTx(((uint256,uint256),(uint256[2],uint256[2]),(uint256,uint256)),uint256[3])": "0f9c5d49"
				}
			},
			"storageLayout": {
				"storage": [],
				"types": null
			},
			"userdoc": {
				"kind": "user",
				"methods": {},
				"version": 1
			}
		}
	}
}